:020000040000FA
:10000000E052001001030000090300000B03000090
:100010000D0300000F0300001103000000000000AA
:1000200000000000000000000000000013030000BA
:1000300015030000000000001703000045590000F0
:100040001B030000351800001B0300001B03000009
:100050001B030000FD360000133800007938000053
:10006000333900001B0300001B0300001B030000CA
:100070001B0300001B0300001B0300001B03000008
:100080001B0300001B0300001B0300001B030000F8
:100090001B0300000B5300001B0300001B030000A8
:1000A0001B0300001B0300001B0300001B030000D8
:1000B0001B0300001B0300001B0300001B030000C8
:1000C0001B0300001B0300001B03000000F002F8EC
:1000D00000F064F80AA090E8000C82448344AAF17E
:1000E0000107DA4501D100F059F8AFF2090EBAE87C
:1000F0000F0013F0010F18BFFB1A43F0010318475C
:10010000ECA906000CAA060010F8013B0A4413F003
:10011000030408BF10F8014B1D1108BF10F8015B64
:10012000641E05D010F8016B641E01F8016BF9D153
:10013000002D15D010F8014B03F00C030C2BA1EB94
:1001400004040ABF10F8013BA4EB8314A4EB0324BE
:1001500005F1010314F8016B5B1E01F8016BF9D581
:10016000914238BF10F8013BD1D3704700230024DF
:1001700000250026103A28BF78C1FBD8520728BFB7
:1001800030C148BF0B607047642915F08986732918
:1001900016F02581002070471FB51FBD16F023F90A
:1001A0001146FFF7F9FF07F04AFD68F0ACED0000DB
:1001B00020204A4908604A48D0F8A00100F02000F9
:1001C00030B100BF4548006800F040000028F9D079
:1001D000032042499C39086000204149C1F8A80128
:1001E0003E490C31086001203C49943908603D4883
:1001F0003B4984310860AA2039498C310860552078
:1002000008600120364980310860AA2034498C31C9
:10021000086055203249C1F88C0000BF3048883052
:10022000006800F080600028F8D003202C4980315D
:100230000860AA202A49C1F88C00552028498C3131
:10024000086000BF26488830006800F04070002831
:10025000F8D023202249A4310860AA202049C1F8FF
:10026000AC0055201E49AC31086001201C49A0316A
:100270000860AA201A49AC31086055201849C1F815
:10028000AC0000BF1648A830006800F48060002869
:10029000F8D003201249A0310860AA201049C1F803
:1002A000AC0055200E49AC31086000BF0C48A830A6
:1002B000006800F440700028F8D00B480849C431A9
:1002C000086000200649C1F8C8010846006820F40B
:1002D000704040F48040086070470000A0C10F40AB
:1002E00000C00F4063000500DE87280402F0FF0312
:1002F00043EA032242EA024215F09EBFFFFFFFFFDE
:100300000948804709480047FEE7FEE7FEE7FEE7A9
:10031000FEE7FEE7FEE7FEE7FEE7FEE704480549E5
:10032000034A054B70470000B1010000CD000000FA
:10033000E0500010E0520010E050001030B1FA49D7
:10034000096841F00061F84A116005E0F649096862
:1003500021F00061F44A1160704700B5F34840682D
:1003600020F44000F14948600846406820F04070A1
:100370004860ED48006840F08050EB49086008464E
:10038000C06940F08050C8610120FFF7D7FFE64800
:10039000806940F00060E44988610020E449087009
:1003A00000BD0CB5002101910BE00021009102E09D
:1003B0000099491C009100990029F9D00199491C24
:1003C000019101998142F0D30CBD00B50120FFF7E6
:1003D000B5FFD548806940F00060D3498861084680
:1003E000806940F0805088610A20FFF7DAFFCE482C
:1003F000C06940F00060CC49C8610A20FFF7D1FF16
:1004000000BD00B50120FFF799FFC748C06940F063
:100410000060C549C8610520FFF7C3FFC248806975
:1004200040F08050C04988610A20FFF7BAFFBE48FB
:10043000806940F00060BC4988610A20FFF7B1FF85
:10044000B948C06940F08050B749C8610020FFF743
:1004500075FF0A20FFF7A5FF00BD10B5002400209E
:10046000FFF76CFFB048C06940F08050AE49C861EA
:100470000520FFF796FFAC48806940F08050AA49FC
:1004800088610520FFF78DFFA748406900F00064F0
:10049000A548C06940F08050A349C8610A20FFF711
:1004A00080FF0CB1012010BD0020FCE700B5012049
:1004B000FFF744FF9C48C06940F080509A49C861EA
:1004C0000A20FFF76EFF9848C06940F00060964927
:1004D000C8610A20FFF765FF9348806940F08050AB
:1004E000914988610A20FFF75CFF8F48C06940F09E
:1004F00080508D49C86100BD00B50120FFF71EFF87
:100500008948C06940F080508749C8610A20FFF7D8
:1005100048FF8548806940F00060834988610A206F
:10052000FFF73FFF8048806940F080507E49886136
:100530000A20FFF736FF7C48C06940F080507A49B6
:10054000C86100BD30B504460120FFF7F7FE7648CC
:10055000C06940F080507449C8610520FFF721FF51
:10056000002523E07048C06940F080506E49C861A2
:1005700004F0800028B10846806940F0006088617E
:1005800005E06948C06940F000606749C8616006DD
:10059000040E0A20FFF705FF6348806940F0805091
:1005A000614988610A20FFF7FCFE6D1C082DD9DB2C
:1005B0005D48C06940F080505B49C8610A20FFF780
:1005C000F0FE30BD30B500240020FFF7B7FE5648DE
:1005D000C06940F080505449C8610520FFF7E1FE32
:1005E00000251FE05048C06940F080504E49C86166
:1005F0000A20FFF7D6FE4C48806940F080504A49F7
:1006000088610A20FFF7CDFE6006040E4648406967
:1006100000F0006008B1601CC4B20520FFF7C1FE05
:10062000681CC5B2082DDDDB3F48C06940F0805032
:100630003D49C8610A20FFF7B4FE204630BD2DE9D0
:10064000F04104460D46E7B2C4F307280326B4F58B
:10065000004F02D30220BDE8F08126E0FFF7B5FE8F
:10066000A020FFF76FFFFFF7F8FEA8B94046FFF79D
:1006700069FFFFF7F2FE78B93846FFF763FFFFF72F
:10068000ECFE48B92846FFF75DFFFFF7E6FE18B914
:10069000FFF7B7FE0020DEE7FFF7B3FE701EC6B21D
:1006A0001EB9012022490870D5E7D7E72DE9F041AE
:1006B00004460D46E7B2C4F307280326B4F5004FFD
:1006C00002D30220BDE8F08134E0FFF77EFEA020D7
:1006D000FFF738FFFFF7C1FEE0B94046FFF732FFF2
:1006E000FFF7BBFEB0B93846FFF72CFFFFF7B5FEAA
:1006F00080B9FFF76AFEA120FFF724FFFFF7ADFEE8
:1007000040B9FFF75FFF2870FFF7F6FEFFF779FEAD
:100710000020D7E7FFF775FE701EC6B256B901205C
:1007200003490870CEE7000000C0092000C0024065
:1007300004000010C9E72DE9F04707460C461546AE
:1007400004F0FF09C4F3072A4FF003080026B4F5AC
:10075000004F04D204F03F002844402802D9022070
:10076000BDE8F08731E0FFF730FEA020FFF7EAFE9A
:10077000FFF773FED8B95046FFF7E4FEFFF76DFEB2
:10078000A8B94846FFF7DEFEFFF767FE78B90026F6
:1007900007E0B85DFFF7D6FEFFF75FFE00B107E0A8
:1007A000761CAE42F5D3FFF72CFE0020D8E700BF41
:1007B000FFF727FEA8F1010000F0FF08B8F1000FD5
:1007C00003D101207E490870CAE7CCE72DE9F84F34
:1007D00080460E4617460025AA46A946AB46002489
:1007E0000020009006F03F0BCBF14004C7F3871ABE
:1007F00007F03F09BBF1000F30D1BAF1000F0AD169
:100800004A4631464046FFF796FF05464CF25030C7
:10081000FFF7C7FD81E00CE0402231464046FFF77C
:100820008AFF05434CF25030FFF7BBFD403608F11C
:1008300040085FEA0A00AAF1010101F0FF0AEBD1CA
:10084000B9F1000F69D04A4631464046FFF773FFC1
:1008500005434CF25030FFF7A4FD5EE0BAF1000F03
:1008600027D1A1451ADDA9EB0400C0B200902246B1
:1008700031464046FFF75FFF05462644A0444CF250
:100880005030FFF78EFD31464046009AFFF753FF88
:1008900005434CF25030FFF784FD3EE03A463146C6
:1008A0004046FFF748FF05464CF25030FFF779FD10
:1008B00033E03F1BC7F3871A07F03F095CB12246BC
:1008C00031464046FFF737FF05434CF25030FFF703
:1008D00068FD2644A0440CE0402231464046FFF724
:1008E0002AFF05434CF25030FFF75BFD403608F11C
:1008F00040085FEA0A00AAF1010101F0FF0AEBD10A
:10090000B9F1000F09D04A4631464046FFF713FFC0
:1009100005434CF25030FFF744FD2846BDE8F88F00
:100920002DE9F04707460C46164604F0FF09C4F3CC
:10093000072A4FF003080025B4F5004F02D3022028
:10094000BDE8F0873BE0FFF740FDA020FFF7FAFD90
:10095000FFF783FD30BB5046FFF7F4FDFFF77DFD49
:1009600000BB4846FFF7EEFDFFF777FDD0B9FFF774
:100970002CFDA120FFF7E6FDFFF76FFD90B90025E4
:1009800008E0FFF71FFE7855701EA84201D9FFF757
:100990008DFD6D1CB542F4D3FFF7AEFDFFF731FDC1
:1009A0000020CDE7FFF72DFDA8F1010000F0FF08C2
:1009B000B8F1000F03D1012001490870C0E7C2E778
:1009C0000400001070B504460D46164600F0D3FE34
:1009D00005F01F0141EA040000F077FE304600F008
:1009E00074FE00F0DEFE70BD70B505460C4600F0EA
:1009F000C2FE04F01F0141EA050000F066FE00F0AF
:100A000072FE064604F0800010B100F06CFE06464F
:100A100000F0C7FE304670BD70B505460E4600F0CA
:100A2000AAFE3A2000F051FE002404E000F05BFE34
:100A30003055601C84B2AC42F8DB00F0B2FE70BDF1
:100A400070B505460E4600F096FE7A2000F03DFE99
:100A5000002404E0305D00F038FE601C84B2AC423B
:100A6000F8DB00F09EFE70BD10B5044604F0600097
:100A7000D549097888420ED003221F21A020FFF714
:100A8000A1FFC4F341121F218020FFF79BFF04F058
:100A90006000CD49087010BD10B504462046FFF730
:100AA000E3FF21460020FFF79FFF10BD70B504460D
:100AB0000D462046FFF7D8FF2A4621464020FFF783
:100AC00081FF70BD10B5C1484179E120FFF7EEFF0D
:100AD000BE480179E020FFF7E9FFBC48C178E32078
:100AE000FFF7E4FFB9488178E220FFF7DFFFB7485E
:100AF0004178E520FFF7DAFFB4480178E420FFF7FA
:100B0000D5FF10BD70B505460C4600BFEA20FFF7C3
:100B1000C3FF00F001000028F8D12946D420FFF7D8
:100B2000C5FFE1B2D620FFF7C1FF2112D720FFF7A2
:100B3000BDFF00BFEA20FFF7AFFF00F00100002873
:100B4000F8D170BD10B50024FF2200211046FFF738
:100B500039FF0A2005F01DF90FE01D20FFF79CFF6B
:100B600000F0010000B109E0052005F012F9641C55
:100B7000B4F5C87F01D9002400E0EEE700BF0422ED
:100B80001F21A020FFF71EFF4FF4C060904908808E
:100B900000210820FFF78AFF06210920FFF786FFC2
:100BA00000210C20FFF782FF06210D20FFF77EFFBA
:100BB000FF210A20FFF77AFF1F210B20FFF776FFA6
:100BC00000210420FFF772FF00210520FFF76EFFD0
:100BD0000D21C020FFF76AFF0021C120FFF766FF4B
:100BE0003322C2218020FFF7EDFE1221C620FFF73D
:100BF0005DFF1521C420FFF759FFEE21CA20FFF742
:100C000055FF0521CB20FFF751FFFFF75BFF4FF4A6
:100C100080710020FFF776FF1F20FFF725FFC0221D
:100C20001B218020FFF7CEFE04221F218020FFF72A
:100C3000C9FE10BD70B505461C20FFF72DFF00F062
:100C4000010018B1FFF77EFF002070BD1C20FFF7E8
:100C500023FF00F0400008B90020F6E75C48008858
:100C6000B0F5C06F04DB5A480088B0F5005F03DBC5
:100C7000FFF768FF0020E8E7554801780020FFF7FC
:100C800015FF5348008801120120FFF70FFF0021D4
:100C90003A20FFF7A9FE4E49088000213A20FFF7CD
:100CA000A3FE4B49098841EA0020494908800021F8
:100CB0003A20FFF799FE044600213A20FFF794FE00
:100CC00044EA002400213A20FFF78EFE0646002168
:100CD0003A20FFF789FE46EA0026B4F5407F02DCA1
:100CE00006F0300088B13A4801780C20FFF7DEFEAC
:100CF0003748008801120D20FFF7D8FE40221E2140
:100D00008020FFF75FFE00209FE729462046FFF77F
:100D100083FE2F4801780C20FFF7C8FE2C4800887E
:100D200001120D20FFF7C2FE40221E218020FFF796
:100D300049FEA4F10E0080B287E770B506460C4666
:100D40003C2C08DA254603E000207055681C85B26B
:100D50003C2DF9DB3C2400210220FFF7A7FE0021F7
:100D60000320FFF7A3FEE1B20620FFF79FFEC4F3C6
:100D700007210720FFF79AFE0E2200217A20FFF7B5
:100D800021FE31462046FFF75BFE08221F2180200E
:100D9000FFF718FE00BF1C20FFF77EFE00F00800E2
:100DA0000028F8D008221C21A020FFF70BFE1C20F1
:100DB000FFF772FE00F0020020B102221C21A020E9
:100DC000FFF700FE70BD000006000010AC00001030
:100DD0000800001070B504460025204600F075FCA0
:100DE0000546284670BD10B5A520FFF7F3FF10BDDE
:100DF0002DE9F041002400250026002700F081FCA9
:100E00009F20FFF7E7FFA520FFF7E4FF0546A52099
:100E1000FFF7E0FF0646A520FFF7DCFF0746A52009
:100E2000FFF7D8FF804600F082FC280640EA064023
:100E300040EA072040EA08042046BDE8F08170B58A
:100E40000024002500F05DFC0520FFF7C3FF0446E9
:100E500004F0800028B10120FFF7BCFF0020FFF75D
:100E6000B9FFFFF7C5FF054600F061FC002070BD2B
:100E700001460020704710B5002400F042FC052018
:100E8000FFF7A8FF00BF0520FFF7A4FF0446032CCF
:100E9000F9D000F04CFC10BD10B500F032FC06207B
:100EA000FFF798FF00F043FCFFF7E5FF10BD10B51A
:100EB00000F027FC0420FFF78DFF00F038FCFFF75F
:100EC000DAFF10BD70B504460025FFF791FF054617
:100ED000A54201D1002070BD4FF0FF30FBE710B5F7
:100EE0000446FFF7D9FF00F00CFC2020FFF772FF4B
:100EF000C4F30740FFF76EFFC4F30720FFF76AFF54
:100F0000E0B2FFF767FF00F012FCFFF7B4FF10BD7F
:100F100010B50446FFF7C0FF00F0F3FBD820FFF741
:100F200059FFC4F30740FFF755FFC4F30720FFF74D
:100F300051FFE0B2FFF74EFF00F0F9FBFFF79BFF18
:100F400010BD10B5FFF7A8FF00F0DBFBC720FFF7CF
:100F500041FF00F0ECFB10BD70B505460C4616468F
:100F6000FFF79AFF00F0CDFB0220FFF733FFC4F339
:100F70000740FFF72FFFC4F30720FFF72BFFE0B276
:100F8000FFF728FF03E02878FFF724FF6D1C3000EF
:100F9000A6F101018EB2F6D100F0C9FBFFF76BFF9D
:100FA00070BD2DE9F05F07460E4614464FF000096C
:100FB000C846C2460025AB463019B0F5000F01D334
:100FC000BDE8F09F06F0FF0ACAF580752046E117DC
:100FD00004EB11614FEA2129E11704EB11610912B9
:100FE000A4EB0128BAF1000F1FD1B9F1000F05D110
:100FF000224631463846FFF7AFFF5FE009E04FF485
:10100000807231463846FFF7A7FF06F5807607F570
:1010100080775FEA0900A9F10109F0D11FFA88F28F
:1010200031463846FFF798FF48E0B9F1000F17D175
:10103000A8450FD9A8EB050BAAB231463846FFF7F1
:101040008BFF2E442F441FFA8BF231463846FFF7B0
:1010500083FF33E0224631463846FFF77DFF2DE01F
:10106000601B84B22046E11704EB11614FEA21298D
:10107000E11704EB11610912A4EB0128AAB2314671
:101080003846FFF769FF2E442F4409E04FF4807281
:1010900031463846FFF760FF06F5807607F5807722
:1010A0005FEA0900A9F10109F0D1B8F1000F05D0FC
:1010B0001FFA88F231463846FFF74EFF00BF7FE740
:1010C00070B505460C46164600F01BFB0320FFF7E3
:1010D00081FEC4F30740FFF77DFEC4F30720FFF74E
:1010E00079FEE0B2FFF776FE04E0A520FFF772FE7E
:1010F00028706D1C3000A6F101018EB2F5D100F010
:1011000016FB70BD70B505460C46164600F0F9FAA0
:101110000B20FFF75FFEC4F30740FFF75BFEC4F34D
:101120000720FFF757FEE0B2FFF754FEFF20FFF75E
:1011300051FE04E0A520FFF74DFE28706D1C300025
:10114000A6F101018EB2F5D100F0F1FA70BD2DE9E2
:10115000F84F81460F461646002000908046824692
:1011600000240025DFF8ACB04FEA1738C7F30B0AAC
:10117000CAF58054A64200DC344645E04FEA083107
:101180004FF480525846FFF7BDFF002508E00AEBF8
:1011900005001BF80000FF2800D003E0681C85B2A2
:1011A000A542F4DB00BFA54217DA4FEA0830FFF78B
:1011B00096FE002507E019F8050005EB0A010BF87B
:1011C0000100681C85B2A542F5DB4FEA08314FF4F7
:1011D00080525846FFF7E5FE04E02246394648466D
:1011E000FFF7DFFEA64200D10FE008F101084FF043
:1011F000000AA1442744301B86B2B6F5805F02DDA9
:101200004FF4805400E03446B8E700BF0098BDE8D2
:10121000F88F00009C070010694800686949084081
:10122000674908606848006820F47F606649086084
:101230006348406A20F040706149486262488030EB
:10124000006840F080506049C1F880000846D0F83E
:101250009C0040F08050C1F89C00704710B50024FD
:101260005948406900F47F60B0F57F6F01D1204696
:1012700010BD052004F08DFD5348406900F47F60E7
:10128000B0F57F6F01D12046F2E74F48406900F486
:101290007F60B0F5706F32D019DCB0F50F6F46D0BB
:1012A0000BDCF0283BD0B0F53C7F3AD0B0F59E6F18
:1012B00039D0B0F5DE6F42D137E0B0F52F6F38D0BE
:1012C000B0F54F6F37D0B0F56F6F38D135E0B0F56E
:1012D000786F1CD009DCB0F5726F12D0B0F5746F66
:1012E00011D0B0F5766F2AD10FE0B0F57A6F10D03B
:1012F000B0F57C6F0FD0B0F57E6F20D10DE03124BA
:101300001DE039241BE0352419E0AB2417E032241A
:1013100015E0302413E0362411E0FD240FE0EF2423
:101320000DE037240BE0F02409E0332407E0A52486
:1013300005E0382403E0FE2401E0342400BF00BFB0
:10134000204695E710B50024FFF788FF044634B91E
:101350001E48007870B100201C4908700AE01B4844
:10136000007830B9012019490870142004F007FCF6
:1013700000E00024204610BD01460020A1F130020B
:101380000A2A1AD2DFE802F00507090B0D0F111324
:101390001517002011E001200FE002200DE00320CE
:1013A0000BE0042009E0052007E0062005E0072007
:1013B00003E0082001E0092000BF00BF70470000E3
:1013C00000C00240FF0000FF00C009200A0000101A
:1013D0001848C06920F440201649C8611648006EBC
:1013E00040F00070144908660846806F40F00070B5
:1013F000886770470F48C06920F440100D49C861E4
:101400000D48006E40F080600B4908660846C06FCA
:1014100040F08060C86770470648006920F440507B
:10142000044908610448006C20F040000249086447
:101430007047000000C0024000C0092001460A2297
:1014400091FBF2F302FB13120A2391FBF3F302EB7D
:101450000312D0B27047014601F00F020B0903EBF3
:10146000830302EB4302D0B27047F0B50346002479
:101470000C2B03DB11B10AB10C2902DD012420463B
:10148000F0BD022924D103F5FA60C51700EB95756C
:10149000AD10A0EB850535B90546642695FBF6F73A
:1014A00006FB175545B903F5FA654FF4C87695FB69
:1014B000F6F706FB17552DB91D2A01DD012428E09A
:1014C000002426E01C2A01DD012422E0002420E083
:1014D00001290BD0032909D0052907D0072905D0F8
:1014E000082903D00A2901D00C2905D11F2A01DDC2
:1014F00001240EE000240CE0042905D0062903D0C5
:10150000092901D00B2904D11E2A01DD012400E0A4
:1015100000242046B4E710B503460020182B04DA57
:101520003C2902DA3C2A00DA00E0012010BDF0B5C7
:101530000346012901D0022901D10C315B1E4D1C4B
:1015400005EB4505052695FBF6F6551C022707FB1E
:10155000015535441D441846DE1703EB967605EB1E
:10156000A605642693FBF6F6AD1B4FF4C87693FBF5
:10157000F6F63544072695FBF6F706FB175420468A
:10158000F0BD00202F490872FF2008740020087366
:101590000320087011200872704710B50146002022
:1015A000284A928F642392FBF3F403FB14220A70FF
:1015B000244A92F838204A70224A92F82C208A70E5
:1015C000204A92F82820CA701E4A92F824200A71F4
:1015D0001C4A92F820204A711A4A92F830208A71E7
:1015E00010BD014600208A79072A01D100228A71A4
:1015F0000A78144B9A874A78124B38331A708A78D3
:10160000104B2C331A70CA781B1F1A700A791B1FD3
:101610001A704A791B1F1A708A790A4B83F8302096
:1016200070470146074A0A4492F84400704710B5D3
:10163000044B03445A6C22F0FF030B44014C044456
:10164000636410BD004002406848006840F04040BC
:10165000664908600846406840F03C004860102039
:101660006349C860202008606048806820F44070AA
:101670005E4988605F48006A40F010005D4908627A
:101680005A48806820F44020584988605948006AC8
:1016900040F40070574908625448806820F0030005
:1016A000524988605348006A40F00100514908627D
:1016B0004E48806820F440304C4988604D48006AAC
:1016C00040F480704B490862704701464848816089
:1016D00000BF4748406800F080000028F9D0444827
:1016E0008068C0B2704700204149886000BF404810
:1016F000406800F080000028F9D03D488068C0B202
:1017000070473C48C06B40F010003A49C863084637
:10171000806B40F4007088630846806B40F00100E5
:1017200088630846806B40F4807088637047314856
:10173000806B40F010002F49886370472D48C06BC4
:1017400040F400702B49C8630846806B40F01000DD
:1017500088630846806B40F0010088630846806B10
:1017600040F48070886370472248806B40F40070BA
:101770002049886370471F48C06B40F001001D4935
:10178000C8630846806B40F0100088630846806B91
:1017900040F4007088630846806B40F48070886372
:1017A00070471448806B40F001001249886370470D
:1017B0001048C06B40F480700E49C8630846806BC7
:1017C00040F0100088630846806B40F40070886326
:1017D0000846806B40F00100886370470548806BC5
:1017E00040F48070034988637047000000C00240E5
:1017F0000000024000C0092010B502204FF0402137
:10180000486001200860002008678860C8601948A7
:10181000006880081421B0FBF1F04FF0402188618E
:1018200003204861012000F01AF801204FF0402108
:10183000486010BD10B50120012181400E4A4309C6
:1018400042F8231000BF4FF0402108600B480068A9
:10185000401C0A490860012000F001F810BD00F0AA
:101860001F02012191404209920002F1E022C2F8D8
:10187000001170470000001080E100E00C00001033
:10188000012081070861084800688008486003203B
:101890000870AA200872552008727047AA204107D4
:1018A000087255200872704700000010FE49C96D8B
:1018B00041F40051FC4AD1651146C96D41F4805193
:1018C000D1651146096AF94A1143F74A11620104C8
:1018D0009163C143C8B20104D1631146C96941F0A3
:1018E0000101D1611146896941F0010191611146FF
:1018F000896D41F4005191657047EB49C96D41F420
:101900000051E94AD1651146896D41F480519165D4
:101910001146096AE54A1143E34A116201049163E1
:10192000C14388B20104D1631146C96941F0010184
:10193000D1611146896941F0010191611146896DBA
:1019400041F400519165704710B504460B4620469E
:10195000FFF7ACFF1846FFF7D0FF10BD10B50146EA
:10196000D148C06D40F40050CF4CE0652046C06DBA
:1019700040F48050E0652046006ACC4C2043CA4CBD
:1019800020620804A063C843C1B20804E063204693
:10199000C06940F00100E0612046806940F001002C
:1019A000A0612046806D40F48050A065BF48A063D0
:1019B0002046006A80B220622046C06940F00200E2
:1019C000E0612046806940F00200A0612046C069C5
:1019D00040F00200E0612046436B806940F0020065
:1019E000A061C3F307422046806D40F40050A0651B
:1019F000104610BD10B5AE48006820F00300AC4999
:101A00000860A948006840F00100A7490860A8489C
:101A1000006820F00C00A6490860A348006840F068
:101A20000200A1490860A248006920F44010A049C2
:101A300008619D48006C40F480609B4908649C48A4
:101A4000006920F440009A4908619748006C40F40E
:101A50000060954908649648006920F040709449F8
:101A600008619148006C40F480508F4908649048A8
:101A7000006920F040608E4908618B48006C40F49A
:101A80000050894908640846806D40F4806088658C
:101A90000846806940F0020088610846806940F08D
:101AA000010088610846806D40F400508865084652
:101AB000806D40F4805088650846806D40F4006079
:101AC00088650846806D40F480608865012004F0D8
:101AD00060F97548C06D40F480607349C865642042
:101AE00004F057F97048806D40F480606E49886555
:101AF000782004F04EF9CF20FFF7D8FE0020FFF742
:101B0000FCFEAA20FFF7F9FEE020FFF7F6FEED202D
:101B1000FFF7CCFE6720FFF7F0FE0320FFF7EDFE96
:101B20001220FFF7EAFE8120FFF7E7FEE820FFF72B
:101B3000BDFE8520FFF7E1FE1120FFF7DEFE7820D5
:101B4000FFF7DBFECB20FFF7B1FE3920FFF7D5FE14
:101B50002C20FFF7D2FE0020FFF7CFFE3420FFF746
:101B6000CCFE0220FFF7C9FEF720FFF79FFE2020E2
:101B7000FFF7C3FEEA20FFF799FE0020FFF7BDFE46
:101B80000020FFF7BAFEC020FFF790FE2120FFF7EC
:101B9000B4FEC120FFF78AFE1120FFF7AEFEC5207C
:101BA000FFF784FE2420FFF7A8FE3C20FFF7A5FEE8
:101BB000C720FFF77BFEB720FFF79FFE3620FFF719
:101BC00075FE8820FFF799FE3A20FFF76FFE55203B
:101BD000FFF793FEF220FFF769FE0020FFF78DFE6E
:101BE0002620FFF763FE0120FFF787FEB720FFF7EF
:101BF0005DFE0620FFF781FEE020FFF757FE0F2075
:101C0000FFF77BFE1B20FFF778FE1920FFF775FE1C
:101C10000C20FFF772FE0D20FFF76FFE0720FFF785
:101C20006CFE4420FFF769FEA920FFF766FE2F2017
:101C3000FFF763FE0820FFF760FE0D20FFF75DFE53
:101C40000320FFF75AFE1020FFF757FE0B20FFF787
:101C500054FE0020FFF751FEE120FFF727FE002091
:101C6000FFF74BFE2420FFF748FE2620FFF745FE36
:101C70000320FFF742FE1220FFF73FFE0820FFF788
:101C80003CFE3C20FFF739FE5620FFF736FE502081
:101C9000FFF733FE0720FFF730FE1220FFF72DFE7F
:101CA0000C20FFF72AFE05E000C009200000FFFF1E
:101CB00000C002402F20FFF720FE3420FFF71DFE5A
:101CC0000F20FFF71AFE1120FFF7F0FD782004F037
:101CD00060F82920FFF7EAFD2C20FFF7E7FD10BD93
:101CE00000B52820FFF7E2FD1020FFF7DFFD00BD63
:101CF00010B51120FFF7DAFD782004F04AF829200A
:101D0000FFF7D4FD10BD00B52C20FFF7CFFD00BDBF
:101D100000B503461846FFF7F0FD00BD00B52920C9
:101D2000FFF7C4FD00BD00B52820FFF7BFFD00BDD3
:101D300070B504460D4616462A20FFF7B7FD200A67
:101D4000FFF7DBFDE0B2FFF7D8FD280AFFF7D5FD6E
:101D5000E8B2FFF7D2FD2B20FFF7A8FD300AFFF70E
:101D6000CCFDF0B2FFF7C9FD180AFFF7C6FDD8B2E7
:101D7000FFF7C3FD2C20FFF799FD70BD30B5044679
:101D8000002540F23F130022EF211046FFF7D0FF5D
:101D9000FFF7B9FFF748C06D40F40050F549C8653A
:101DA0000846806D40F4805088650846006AF24914
:101DB0000843F049086200BF0FE0EF48ED49C863EF
:101DC000200488630846C06940F00100C8610846E5
:101DD000806940F0010088616D1CB5F5963FECD339
:101DE000E448806D40F40050E249886530BD2DE93B
:101DF000F04706460C4615461F46DDF820904FF08A
:101E000000083B46224629463046FFF791FFFFF780
:101E10007AFFD848C06D40F40050D649C8650846DE
:101E2000806D40F4805088650846006AD2490843B6
:101E3000D0490862A81B401C391B491C48434FEA83
:101E4000400A00BF11E0CC48CA49C8634FEA0940C4
:101E500088630846C06940F00100C861084680698F
:101E600040F00100886108F10108D045EBD3C1487A
:101E7000806D40F40050BF49886540F23F13002256
:101E8000EF211046FFF754FFBDE8F08770B5054617
:101E90000C4616462346224629462846FFF748FFA9
:101EA0002C20FFF703FD3046FFF727FD70BD2DE91D
:101EB000FF4F84B081468A460020029083460698F0
:101EC000A0EB09050798A0EB0A06CDF80490CDF821
:101ED00000A0002D01DD012705E00DB9002702E07B
:101EE0004FF0FF376D42002E02DD4FF0010806E093
:101EF00016B94FF0000802E04FF0FF387642B542C5
:101F000001DD2C4600E03446002003901EE0009ADC
:101F100091B2019A90B2119AFFF7B8FF0298284443
:101F20000290B3440298A04205DD0298001B029083
:101F3000019838440190A34504DDABEB040B0098F5
:101F4000404400900398401C80B20390611C0398A9
:101F50008842DCDD08B0BDE8F08F2DE9F841054688
:101F60000E4617469846079C33463A463146284661
:101F70000094FFF79CFF43462A46314628460094CA
:101F8000FFF795FF43463A46414628460094FFF73F
:101F90008EFF43463A46314638460094FFF787FFA6
:101FA000BDE8F8812DE9F04706460F4690469A466F
:101FB000002445460320A0EB480952E03A1B91B2A9
:101FC000721B90B25246FFF761FF3A1B91B2721931
:101FD00090B25246FFF75AFF7A1991B2321B90B273
:101FE0005246FFF753FF3A1B91B2721B90B2524612
:101FF000FFF74CFF7A1B91B2321B90B25246FFF7AB
:1020000045FF3A1991B2721990B25246FFF73EFF5E
:102010007A1B91B2321990B25246FFF737FF7A1904
:1020200091B2321990B25246FFF730FF3A1991B28D
:10203000721B90B25246FFF729FF641CB9F1000FE2
:1020400003DAA000801D814404E0601B80000A3098
:1020500081446D1E7A1991B2321990B25246FFF73F
:1020600015FFAC42AADDBDE8F087704770472DE947
:10207000F04780468946924698F8004098F80170EB
:102080000C209AFBF0F100FB11A000285BD198F81E
:1020900000005030C0B2482805DC98F800005030ED
:1020A000C0B2482812D1354D202C08DB7E2C06DC2E
:1020B000A4F1200000EB400005EB800600E02E4676
:1020C0000C223146484605F00BFD9BE02C4DA12C1F
:1020D00012DBA32C10DCA12F0EDBA7F1A100A4F1D1
:1020E000A101C1EB011202EB411100EB410000EB39
:1020F000400005EBC00620E0A92C08D1A12F06DB8B
:1021000007F1790000EB400005EBC00615E0B02CAC
:1021100013DBF72C11DCA12F0FDBA7F1A100A4F139
:10212000B001C1EB011202EB411100EB410000F5DF
:10213000BC7000EB400005EBC00618223146484653
:1021400005F0CEFC5EE098F800005030C0B24828A0
:1021500005DC98F800005030C0B248281BD1094D6A
:10216000202C11DB7E2C0FDCA4F1200005EB0016E7
:102170000BE0000000C009200000FFFF406D0600DA
:1021800080CF0300C0B703002E46102231464846D8
:1021900005F0A6FC36E00025A42C05DBA82C03DC0A
:1021A000A12F01DB2E4628E0A12C10DBA92C0EDC90
:1021B000A12F0CDBA7F1A100A4F1A101C1EB011239
:1021C00002EB411100EB410005EB401615E0B02C8D
:1021D00012DBF72C10DCA12F0EDBA7F1A100A4F17C
:1021E000B001C1EB011202EB411100EB410000F222
:1021F0004E3005EB401600E02E4620223146484680
:1022000005F06EFCBDE8F0870FB58FB010980A900E
:1022100002A9DDE91102FFF72AFF11980078802852
:102220007EDA0C21129890FBF1F201FB12000028DB
:1022300077D10D9035E102A90D98085C0E9006202B
:102240000B9000200C9022E10C21129890FBF1F0F1
:10225000012818D10E9800F0800020B1149ADDE911
:102260000F01FFF713FE1098401E80B210901099D6
:102270000A98401A06287DD10A9810900F98401CA1
:1022800080B20F9008E10C21129890FBF1F0022827
:1022900035D10E9800F0800008B3149ADDE90F01E3
:1022A000FFF7F4FD1098401E80B201900146149A89
:1022B0000F98FFF7EBFD0F98401C80B20190149A25
:1022C0001099FFF7E3FD1098401E80B201900F981F
:1022D000401C80B20090149A0199FFF7D7FD109826
:1022E000801E80B2109010990A98401A0C28C2D112
:1022F0000A9810900F98801C80B20F90CCE00E9836
:1023000000F0800000287DD0149ADDE90F01FFF76E
:10231000BDFD1098401E80B201900146149A01E064
:1023200008E2C3E00F98FFF7B1FD1098801E80B25D
:1023300001900146149A0F98FFF7A8FD1098C01E4F
:1023400080B201900146149A0F98FFF79FFD0F98F5
:10235000401C80B20190149A1099FFF797FD1098D5
:10236000401E80B201900F98401C80B20090149AD9
:10237000019900E083E0FFF789FD1098801E80B28C
:1023800001900F98401C80B20090149A0199FFF7B9
:102390007DFD1098C01E80B201900F98401C80B245
:1023A0000090149A0199FFF771FD0F98801C80B27C
:1023B0000190149A1099FFF769FD1098401E80B2A1
:1023C00001900F98801C80B20090149A0199FFF739
:1023D0005DFD1098801E80B201900F98801C80B225
:1023E0000090149A0199FFF751FD1098C01E80B219
:1023F00001900F98801C80B20090149A0199FFF709
:1024000045FD00E02BE00F98C01C80B20190149AAB
:102410001099FFF73BFD1098401E80B201900F9875
:10242000C01C80B20090149A0199FFF72FFD1098FC
:10243000801E80B201900F98C01C80B20090149A48
:102440000199FFF723FD1098C01E80B201900F98EC
:10245000C01C80B20090149A0199FFF717FD1098E4
:10246000001F80B2109010990A98401A182806D1BF
:102470000A9810900F98001D80B20F900CE00E98F3
:102480004006000E0E900C98401CC0B20C90DDE986
:102490000B108842FFF6D8AE00BF0D98401CC0B2AA
:1024A0000D900D980C28FFF6C6AEDEE300200D90CF
:1024B0003BE102A90D98085C0E9008200B900020CB
:1024C0000C9028E11298C117019000EB11700121C6
:1024D000B1EB201F1BD10E9800F0800038B10F988F
:1024E000C01C80B20190149A1099FFF7CFFC10988D
:1024F000401E80B2109010990A98401A08287DD189
:102500000A9810900F98401C80B20F9008E1129822
:10251000C117019000EB11700221B1EB201F35D1E2
:102520000E9800F0800008B3149ADDE90F01FFF760
:10253000ADFC1098401E80B201900146149A0F988D
:10254000FFF7A4FC0F98401C80B20190149A1099D8
:10255000FFF79CFC1098401E80B201900F98401C21
:1025600080B20090149A0199FFF790FC1098801E99
:1025700080B2109010990A98401A1028BFD10A987A
:1025800010900F98801C80B20F90C9E00E9800F058
:10259000800000287ED0149ADDE90F01FFF776FC59
:1025A0001098401E80B201900146149A0F98FFF7D0
:1025B0006DFC1098801E80B201900146149A0F980D
:1025C000FFF764FC1098C01E80B201900146149A77
:1025D0000F98FFF75BFC0F98401C80B20190149A93
:1025E0001099FFF753FC1098401E80B201900F988D
:1025F000401C80B20090149A019900E083E0FFF73C
:1026000045FC1098801E80B201900F98401C80B24B
:102610000090149A0199FFF739FC1098C01E80B2FF
:1026200001900F98401C80B20090149A0199FFF716
:102630002DFC0F98801C80B20190149A1099FFF71E
:1026400025FC1098401E80B201900F98801C80B22B
:102650000090149A0199FFF719FC1098801E80B21F
:1026600001900F98801C80B20090149A0199FFF796
:102670000DFC1098C01E80B201900F98801C80B293
:102680000090149A0199FFF701FC0F98C01C80B2CA
:10269000019000E027E0149A1099FFF7F7FB1098DB
:1026A000401E80B201900F98C01C80B20090149A16
:1026B0000199FFF7EBFB1098801E80B201900F98F4
:1026C000C01C80B20090149A0199FFF7DFFB1098AC
:1026D000C01E80B201900F98C01C80B20090149A66
:1026E0000199FFF7D3FB1098001F80B2109010994A
:1026F0000A98401A202806D10A9810900F98001DB9
:1027000080B20F900CE00E984006000E0E900C98D0
:10271000401CC0B20C90DDE90B108842FFF6D2AE2F
:1027200000BF0D98401CC0B20D900D981028FFF608
:10273000C0AE9AE20C21129890FBF1F201FB12005C
:10274000002871D10D903FE102A90D98085C0E9010
:102750000D98019000EBD07041100198A0EB410062
:1027600010B103200B9001E008200B9000200C908A
:1027700020E10C21129890FBF1F0012818D10E985D
:1027800000F0800020B1149ADDE90F01FFF77EFB15
:102790001098401E80B2109010990A98401A0B2889
:1027A0007ED10A9810900F98401C80B20F9006E1DD
:1027B0000C21129890FBF1F0022836D10E9800F00F
:1027C000800008B3149ADDE90F01FFF75FFB109852
:1027D000401E80B201900146149A0F98FFF756FBF5
:1027E0000F98401C80B20190149A1099FFF74EFB8D
:1027F0001098401E80B201900F98401C80B200904B
:10280000149A0199FFF742FB1098801E80B2109035
:1028100010990A98401A1628C2D10A9810900F9859
:10282000801C80B20F90CAE0D3E00E9800F08000C8
:1028300000287DD0149ADDE90F01FFF727FB1098DF
:10284000401E80B201900146149A0F98FFF71EFBBC
:102850001098801E80B201900146149A0F98FFF7DD
:1028600015FB1098C01E80B201900146149A0F9873
:10287000FFF70CFB0F98401C80B20190149A10993E
:10288000FFF704FB1098401E80B201900F98401C87
:1028900080B20090149A0199FFF7F8FA109800E0BE
:1028A00080E0801E80B201900F98401C80B20090A2
:1028B000149A0199FFF7EAFA1098C01E80B20190AD
:1028C0000F98401C80B20090149A0199FFF7DEFA2D
:1028D0000F98801C80B20190149A1099FFF7D6FAD5
:1028E0001098401E80B201900F98801C80B200901A
:1028F000149A0199FFF7CAFA1098801E80B20190CD
:102900000F98801C80B20090149A0199FFF7BEFACC
:102910001098C01E80B201900F98801C80B2009069
:10292000149A0199FFF7B2FA0F98C01C80B200E028
:1029300028E00190149A1099FFF7A8FA1098401E09
:1029400080B201900F98C01C80B20090149A019937
:10295000FFF79CFA1098801E80B201900F98C01C5F
:1029600080B20090149A0199FFF790FA1098C01E57
:1029700080B201900F98C01C80B20090149A019907
:10298000FFF784FA1098001F80B2109010990A98EF
:10299000401A2C2806D10A9810900F98001D80B27A
:1029A0000F900CE00E984006000E0E900C98401C04
:1029B000C0B20C90DDE90B108842FFF6DAAE00BF22
:1029C0000D98401CC0B20D900D981828FFF6BCAEB3
:1029D0004BE100200D9044E102A90D98085C0E9097
:1029E0000D98019000EBD07041100198A0EB4100D0
:1029F00010B107200B9001E008200B9000200C90F4
:102A000025E11298C117019000EB11700121B1EB83
:102A1000201F18D10E9800F0800020B1149ADDE933
:102A20000F01FFF733FA1098401E80B210901099F2
:102A30000A98401A0F287DD10A9810900F98401CD0
:102A400080B20F9008E11298C117019000EB11704D
:102A50000221B1EB201F35D10E9800F0800008B3A1
:102A6000149ADDE90F01FFF711FA1098401E80B2A9
:102A700001900146149A0F98FFF708FA0F98401C2E
:102A800080B20190149A1099FFF700FA1098401E36
:102A900080B201900F98401C80B20090149A019966
:102AA000FFF7F4F91098801E80B2109010990A98E0
:102AB000401A1E28BFD10A9810900F98801C80B22F
:102AC0000F90C9E00E9800F0800000287ED0149A84
:102AD000DDE90F01FFF7DAF91098401E80B201908E
:102AE0000146149A0F98FFF7D1F91098801E80B212
:102AF00001900146149A0F98FFF7C8F91098C01E6C
:102B000080B201900146149A0F98FFF7BFF90F9811
:102B1000401C80B20190149A1099FFF7B7F91098F1
:102B2000401E80B201900F98401C80B20090149A11
:102B3000019900E083E0FFF7A9F91098801E80B2A8
:102B400001900F98401C80B20090149A0199FFF7F1
:102B50009DF91098C01E80B201900F98401C80B261
:102B60000090149A0199FFF791F90F98801C80B298
:102B70000190149A1099FFF789F91098401E80B2BD
:102B800001900F98801C80B20090149A0199FFF771
:102B90007DF91098801E80B201900F98801C80B241
:102BA0000090149A0199FFF771F91098C01E80B235
:102BB00001900F98801C80B20090149A0199FFF741
:102BC00065F90F98C01C80B2019000E027E0149ACC
:102BD0001099FFF75BF91098401E80B201900F9892
:102BE000C01C80B20090149A0199FFF74FF9109819
:102BF000801E80B201900F98C01C80B20090149A81
:102C00000199FFF743F91098C01E80B201900F9808
:102C1000C01C80B20090149A0199FFF737F9109800
:102C2000001F80B2109010990A98401A3C2806D1D3
:102C30000A9810900F98001D80B20F900CE00E982B
:102C40004006000E0E900C98401CC0B20C90DDE9BE
:102C50000B108842FFF6D5AE00BF0D98401CC0B2E5
:102C60000D900D982028FFF6B7AE13B000BD2DE9EA
:102C7000F84305460F4614461E46DDF820804FF007
:102C800000095EE0B9F1000F2FD13078802802DD15
:102C90004FF0010955E02B46324621463846CDF823
:102CA0000080FFF7B1FA761C402D03D1A4F120007B
:102CB00084B246E0302D03D1A4F1180084B240E084
:102CC000202D03D1A4F1100084B23AE0182D03D1D5
:102CD000A4F10C0084B234E0102D03D1A4F108005B
:102CE00084B22EE0A01F84B22BE04FF000092B46E7
:102CF000324621463846CDF80080FFF785FAB61CEB
:102D0000402D03D1A4F1400084B21AE0302D03D14C
:102D1000A4F1300084B214E0202D03D1A4F12000EE
:102D200084B20EE0182D03D1A4F1180084B208E09B
:102D3000102D03D1A4F1100084B202E0A4F10C0024
:102D400084B2307800289DD1BDE8F8832DE9FF4F8B
:102D500089B007460D46144626463A4601A90CA8F6
:102D6000FFF785F90C2097FBF0F100FB11700028AC
:102D70007DD18146CFE001A810F809804FF0060B05
:102D80004FF0000ABFE00C2097FBF0F0012810D1B3
:102D900008F0800020B121462846169AFFF776F801
:102DA000601E84B2301B06287ED13446681C85B272
:102DB000ACE00C2097FBF0F0022823D108F0800053
:102DC000B8B121462846169AFFF760F8601E81B216
:102DD0002846169AFFF75AF8691C88B22146169AB7
:102DE000FFF754F8621E91B26A1C90B2169AFFF770
:102DF0004DF8A01E84B2301B0C287CD13446A81C90
:102E000085B283E008F0800000286BD02146284678
:102E1000169AFFF73BF8601E81B22846169AFFF714
:102E200035F8A01E81B22846169AFFF72FF8E01E4B
:102E300081B22846169AFFF729F8691C88B2214604
:102E4000169AFFF723F8621E91B26A1C90B2169A86
:102E5000FFF71CF8A21E91B26A1C90B2169AFFF7F7
:102E600015F8E21E91B26A1C90B2169A00E057E083
:102E7000FFF70CF8A91C88B22146169AFFF706F84E
:102E8000621E91B2AA1C90B2169AFEF7FFFFA21E14
:102E900091B2AA1C90B2169AFEF7F8FFE21E91B208
:102EA000AA1C90B2169A00E025E0FEF7EFFFE91C9D
:102EB00088B22146169AFEF7E9FF621E91B2EA1C1B
:102EC00090B2169AFEF7E2FFA21E91B2EA1C90B2EF
:102ED000169AFEF7DBFFE21E91B2EA1C90B2169A38
:102EE000FEF7D4FF201F84B2301B182803D13446CC
:102EF000281D85B20AE04FEA48604FEA10680AF1DF
:102F0000010000F0FF0ADA45FFF63DAF00BF09F10E
:102F1000010000F0FF09B9F10C0FFFF62CAFD8E06B
:102F20004FF00009D1E001A810F809804FF0080B1C
:102F30004FF0000AC1E0F91707EB11710122B2EB63
:102F4000211F10D108F0800020B121462846169A92
:102F5000FEF79CFF601E84B2301B08287ED13446E9
:102F6000681C85B2ACE0F91707EB11710222B2EBD5
:102F7000211F23D108F08000B8B121462846169AB7
:102F8000FEF784FF601E81B22846169AFEF77EFF88
:102F9000691C88B22146169AFEF778FF621E91B22C
:102FA0006A1C90B2169AFEF771FFA01E84B2301B05
:102FB00010287AD13446A81C85B281E008F0800040
:102FC000002869D021462846169AFEF75FFF601E4A
:102FD00081B22846169AFEF759FFA01E81B22846F4
:102FE000169AFEF753FFE01E81B22846169AFEF7A6
:102FF0004DFF691C88B22146169AFEF747FF621EF4
:1030000091B26A1C90B2169AFEF740FFA21E91B2CE
:103010006A1C90B2169AFEF739FFE21E91B26A1C42
:1030200090B2169AFEF732FFA91C88B22146169A72
:10303000FEF72CFF621E91B2AA1C90B2169AFEF700
:1030400025FFA21E91B2AA1C90B2169AFEF71EFF8F
:10305000E21E91B2AA1C90B2169A00E025E0FEF79B
:1030600015FFE91C88B22146169AFEF70FFF621E73
:1030700091B2EA1C90B2169AFEF708FFA21E91B216
:10308000EA1C90B2169AFEF701FFE21E91B2EA1C0A
:1030900090B2169AFEF7FAFE201F84B2301B202849
:1030A00003D13446281D85B20AE04FEA48604FEA52
:1030B00010680AF1010000F0FF0ADA45FFF63BAFA5
:1030C00000BF09F1010000F0FF09B9F1100FFFF690
:1030D0002AAF0DB0BDE8F08F30B5DDE9034530BD56
:1030E00030B5DDE9034530BD2DE9F0410746002547
:1030F00040F23F130022EF211046FEF719FEFEF7C3
:1031000002FEFB48C06D40F40050F949C86508460E
:10311000806D40F4805088650846006AF549084390
:10312000F349086200BF26E0F34800EB45214FF465
:103130000072F24813F007F8002419E06000401C08
:10314000EE49095CED4A12F8140001EB002086B24A
:10315000E848E749C863300488630846C06940F01E
:103160000100C8610846806940F001008861641C64
:10317000FF2CE3D96D1CB5F5967FD5D3DC48806D67
:1031800040F40050DA498865BDE8F0812DE9FF5F21
:103190000746884691460E9C00250026AA46AB4667
:1031A00044B908274FF033084FF0140940F22B10B0
:1031B000039049E0012C08D172274FF09D084FF091
:1031C000140940F22B1003903EE0022C0AD108278C
:1031D0004FF033084FF0140940F22B100390DFF842
:1031E00020B331E0032C0AD172274FF09D084FF035
:1031F000140940F22B100390DFF808B324E0042CEC
:1032000008D178274FF0A3084FF0140940F22B1093
:10321000039019E0052C0AD172274FF09D084FF05A
:10322000140940F22B100390DFF8DCB20CE0062CFE
:1032300008D172274FF09D084FF0140940F22B106F
:10324000039001E0BDE8FF9F4A4641463846039B94
:10325000FEF76EFDFEF757FDA548C06D40F4005027
:10326000A349C8650846806D40F4805088650846CB
:10327000006AA04908439E490862002629E04D20C3
:1032800070430BEB80014FF49A729C4812F05BFF85
:1032900000251BE06800401C9849095C974A12F819
:1032A000150001EB00201FFA80FA92489049C8638C
:1032B0004FEA0A4088630846C06940F00100C861CF
:1032C0000846806940F0010088616D1C9A2DE1D3A9
:1032D000761C502ED3D38648806D40F4005084492C
:1032E000886500BFAEE72DE9F05F82460F46904645
:1032F0009B460A9D00245B463A4641465046FEF7EF
:1033000017FDFEF700FD7A48C06D40F40050784983
:10331000C8650846806D40F4805088650846006A9C
:10332000744908437249086200BF6BE145B97748A8
:1033300000EB44214FF40072704812F004FF40E1AA
:10334000012D07D1724800EB44216A026B4812F04C
:10335000FAFE36E1022D07D16E4800EB44212A0225
:10336000664812F0F0FE2CE1032D08D16A4800EB0C
:1033700044214FF40072614812F0E5FE21E1042D72
:1033800007D1664800EB4421EA015C4812F0DBFEFD
:1033900017E1052D08D1624800EB44214FF400727B
:1033A000564812F0D0FE0CE1062D08D15D4800EB26
:1033B00044214FF40072514812F0C5FE01E1072D7F
:1033C00008D1594800EB44214FF400724B4812F0E9
:1033D000BAFEF6E0082D07D1544800EB4421AA01BB
:1033E000464812F0B0FEECE0092D08D1504800EB41
:1033F00044214FF40072414812F0A5FEE1E00A2D8D
:1034000008D14C4800EB44214FF400723B4812F0C5
:103410009AFED6E00B2D08D1474800EB44214FF42B
:103420000072364812F08FFECBE00C2D08D14348D5
:1034300000EB44214FF40072304812F084FEC0E0EB
:103440000D2D08D13E4800EB44214FF400722B486B
:1034500012F079FEB5E00E2D08D13A4800EB442178
:103460004FF40072254812F06EFEAAE00F2D08D12D
:10347000354800EB44214FF40072204812F063FEFF
:103480009FE0102D07D1314800EB44216A011B4811
:1034900012F059FE95E0112D08D12D4800EB442182
:1034A0004FF40072154812F04EFE8AE0122D08D13A
:1034B000284800EB44214FF40072104812F043FEFC
:1034C0007FE0132D08D1244800EB44214FF4007213
:1034D0000A4812F038FE74E0142D41D11F4800EB69
:1034E00044214FF40072054812F02DFE69E00000FF
:1034F00000C009200000FFFF466401009C17001077
:1035000046BC0300861C0400C67C040006DD0400E3
:1035100006EF040006010500061305000625050058
:103520000637050006490500065B0500066D050027
:10353000067F05000691050006A3050006B50500F7
:1035400006C7050006D9050006EB050006FD0500C7
:10355000060F060006210600063306000645060093
:10356000152D08D12D4800EB44214FF400722C4852
:1035700012F0E9FD25E0162D08D12A4800EB442180
:103580004FF40072264812F0DEFD1AE0172D08D124
:10359000254800EB44214FF40072214812F0D3FD7E
:1035A0000FE0182D08D1214800EB44214FF40072A0
:1035B0001B4812F0C8FD04E04FF40071184812F0E7
:1035C00039FE00261BE07000401C1549095C144AB6
:1035D00012F8160001EB00201FFA80F91448154973
:1035E000C8634FEA094088630846C06940F001009B
:1035F000C8610846806940F001008861761CFF2E92
:10360000E1D9641C092CFFF491AE0A48806D40F4A6
:10361000005008498865BDE8F09F00000657060085
:103620009C17001006690600067B0600068D060042
:103630000000FFFF00C00920D149096840F2FF22C5
:10364000914202D30021CE4A1160CD490A6809682F
:10365000491CCB4B1960CB498854704710B54FF4C7
:103660000071C94812F0E6FD10BDC8490968B1F5FE
:10367000FF7F02D90021C54A1160C4490A68096860
:10368000491CC24B1960C04988547047C048006A41
:1036900040F48040BE4908620846C06B40F4804058
:1036A000C863704770B50546BA48006840F0080026
:1036B000B849C439C1F8C400B748006840F01000E8
:1036C000B54908600846006840F040000860832063
:1036D000B2490873B24800688009B0FBF5F4200ACB
:1036E00008710C70032008730120486007200872DD
:1036F000052000F039F9FFF7C9FF70BD00B5A748F4
:103700000078A849087008460078FFF7AEFF00BDB2
:1037100000BFA248007D00F001000028F9D09F48BA
:10372000007870479D49087000BF9C49097D01F0F1
:1037300040010029F9D0704710B503460C4600221D
:1037400004E0985CFFF7EEFF501C82B2A242F8DB67
:1037500010BD70B50446204612F0CAFC85B2294659
:103760002046FFF7E9FF70BD30B504460D46884896
:10377000806B40F480408649886329462046FFF7E5
:10378000DBFF8348C06B40F480408149C86330BD93
:1037900070B505467F48006840F010007D49C43987
:1037A000C1F8C4007C48006940F002007A49086111
:1037B0000846006940F00800086183207A490873D0
:1037C000774800688009B0FBF5F4200A08710C7096
:1037D000032008730120486007200872062000F0CB
:1037E000C3F870BD7049087000BF6F49097D01F0D2
:1037F00040010029F9D0704710B503460C4600225D
:1038000004E0985CFFF7EEFF501C82B2A242F8DBA6
:1038100010BD00B564480078624908700846007819
:10382000FFF70AFF00BD70B505465A48006840F032
:1038300080705849C439C1F8C4005748006940F441
:103840000030554908610846006940F400200861CD
:10385000832056490873524800688009B0FBF5F48C
:10386000200A08710C7003200873012048600720AB
:10387000087200F079F870BD4C480078494908702A
:1038800070474A49087000BF4849097D01F040016E
:103890000029F9D0704710B503460C46002204E019
:1038A000985CFFF7EEFF501C82B2A242F8DB10BD1D
:1038B00070B505463748006840F000703549C43996
:1038C000C1F8C4003448406840F4402032494860A0
:1038D0000846406840F4401048608320344908732B
:1038E0002F4800688009B0FBF5F4200A08710C70BD
:1038F000032008730120486007200872082000F0A8
:1039000033F870BD2A49087000BF2949097D01F0CC
:1039100040010029F9D0704710B503460C4600223B
:1039200004E0985CFFF7EEFF501C82B2A242F8DB85
:1039300010BD10B51E4800781A4908701D4890F84F
:10394000A50020B11B4890F8A500AD280BD119485F
:1039500090F8A50018B9AD20164981F8A5001148C6
:10396000007802F029FF10BD00F01F0201219140F4
:103970004209920002F1E022C2F8001170470000F3
:1039800018000010A41B0010A4190010140000104F
:1039900000C00920C4C00F4000C0024000C0004069
:1039A00000000010100000100000014000800940DD
:1039B00000C00940B01F001070B504460D462946EE
:1039C0002046FFF768FF70BD3EB50446002000901A
:1039D000019002907E208DF8000002208DF80100F9
:1039E0008DF80240EF208DF8030004216846FFF7B0
:1039F000E3FF3EBD10B50C20FFF7E6FF10BD3EB55E
:103A0000044600200090019002907E208DF8000076
:103A100003208DF8010006208DF802008DF8034088
:103A2000EF208DF8040005216846FFF7C5FF3EBD75
:103A30003EB5044600200090019002907E208DF853
:103A4000000004208DF8010003208DF80200200AF8
:103A50008DF80300E0B28DF80400EF208DF805002A
:103A600006216846FFF7A8FF3EBD08B5002000907C
:103A70001E2002F08EF90BE00098401C009042F2EC
:103A800010710098884200D903E0012002F081F90A
:103A9000F2E700BF08BD00000CB510E00021009166
:103AA0000AE00199491C01910199052901D90021D8
:103AB00001910099491C009100990329F1D301005B
:103AC000A0F10100EAD10CBDD248406820F003000B
:103AD000D04948600846006920F0C0000861CE481F
:103AE000006840F48030CC4908600846006C40F023
:103AF000080008640846806D40F0080088650846A4
:103B0000C06940F48030C8617047C248406820F402
:103B10004060C04948600846406820F0C0004860E6
:103B20000846406820F4407048600846406820F429
:103B300040504860B848006840F40010B64908603A
:103B40000846006840F4002008600846006820F439
:103B5000800008600846006820F48010086008466D
:103B6000C06940F40010C8610846806940F4002034
:103B70008861704730B50446A748806940F48030BA
:103B8000A5498861002519E0A348C06D40F00800F0
:103B9000A149C8650220FFF77FFF9F48806D40F074
:103BA00008009D4988650220FFF776FF9A48C069A2
:103BB00040F480309849C861681CC5B2A542E3DB77
:103BC00030BD10B59448C06940F480309249C86156
:103BD000002413E09048806D40F008008E4988650D
:103BE0000220FFF759FF8C48C06D40F008008A4959
:103BF000C8650220FFF750FF601CC4B2C32CE9DB8C
:103C000010BD70B504468448806940F48030824914
:103C10008861002519E08048C06D40F008007E49A9
:103C2000C8650220FFF738FF7B48806D40F0080030
:103C3000794988650220FFF72FFF7748C06940F473
:103C400080307549C861681CC5B2A542E3DB4FF4FA
:103C5000B47002F09EF8FFF7B4FF70BD2DE9F04399
:103C600006460C464FF000080025A94600272046CE
:103C7000E11704EB5171C1F3C707E11704EB517170
:103C8000C910A4EBC10109B1781CC7B2B94662489A
:103C9000806940F40020604988610846806940F4EA
:103CA000001088610220FFF7F7FE5B48C06940F40E
:103CB00000205949C8610220FFF7EEFE564880698E
:103CC00040F400205449886100252AE00020705506
:103CD000804621E0705D401070554F48406900F407
:103CE000800018B9705D40F0800070554A48C06986
:103CF00040F400104849C8610220FFF7CDFE464855
:103D0000806940F40010444988610220FFF7C4FE36
:103D100008F1010000F0FF08B8F1080FDADB681CB9
:103D2000C5B2BD42D2DB3C48C06940F400103A49FC
:103D3000C8614846BDE8F0832DE9F04306460C46CD
:103D40004FF000080025A94600272046E11704EBA4
:103D50005171C1F3C707E11704EB5171C910A4EB0E
:103D6000C10109B1781CC7B2B9462B48806940F43B
:103D70000020294988610846806940F40010886164
:103D80000220FFF789FE2448C06940F40020224940
:103D9000C8610220FFF780FE1F48806940F40020C0
:103DA0001D49886100252AE000207055804621E0E9
:103DB000705D401070551848406900F4801018B9C3
:103DC000705D40F0800070551348C06940F40010E9
:103DD0001149C8610220FFF75FFE0F48806940F477
:103DE00000100D4988610220FFF756FE08F101001E
:103DF00000F0FF08B8F1080FDADB681CC5B2BD425D
:103E0000D2DB0548C06940F400100349C861484648
:103E1000BDE8F08300C0024000C009200CB50021BD
:103E200001910BE00021009102E00099491C0091F2
:103E300000990329F9DB0199491C019101998142FB
:103E4000F0D30CBD10B50446204601F0A2FF10BD12
:103E500010B504462046FDF738FC10BD10B5FDF73F
:103E600042FC0446204610BD70B504460026254697
:103E7000FDF764FC6806050E45F080052846FFF74F
:103E8000E7FFFFF7EBFF0646FDF76EFC0020FFF7AC
:103E9000C5FF304670BD70B504460E462546FDF799
:103EA0004DFC6806050E05F07F052846FFF7D0FF9C
:103EB0003046FFF7CDFFFDF757FC0020FFF7AEFFC0
:103EC00070BD10B5002480210020FFF7E4FF00BF83
:103ED00008E00120FFF7C8FF18B900210846FFF7E6
:103EE000DAFF641C1E2CF4DB0B212A20FFF7D3FF22
:103EF00002212B20FFF7CFFF42212C20FFF7CBFF21
:103F00007F210620FFF7C7FF7F210720FFF7C3FFB0
:103F100002212620FFF7BFFF5B211120FFF7BBFF27
:103F200001211E20FFF7B7FF07212120FFF7B3FF74
:103F300000213120FFF7AFFF10BD10B50024F84875
:103F4000806820F44000F6498860F648006A40F432
:103F50008060F44908620846C06B40F48060C86322
:103F60000520FFF76FFFEF48806B40F48060ED495C
:103F700088631920FFF766FFEA48C06B40F4806051
:103F8000E849C8630F20FFF75DFF08E00520FFF751
:103F900059FF601CC4B2142C01DD012010BD0120AA
:103FA000FFF762FF0028F1D1FFF78BFF0020F5E754
:103FB00070B50920FFF758FF044644F0010421467C
:103FC0000920FFF768FF002507E00420FFF74CFFFA
:103FD00004460CB9002070BD6D1C502DF5DB01208E
:103FE000F9E770B505460E46002404E0315D022075
:103FF000FFF751FF641CAC42F8DB70BD70B506469C
:10400000002400250420FFF72FFF04460CB90020F0
:1040100070BD182C00DB1824002505E00220FFF7F6
:1040200023FF7055681CC5B2A542F7DB2046EFE7B9
:10403000024611785378022909D0042907D00529AE
:1040400005D0082903D0532901D0032902D10BB987
:10405000012070470020FCE72DE9F04780468946A3
:10406000144600210120FFF716FFFFF7A1FF494684
:104070004046FFF7B6FF21460120FFF70CFF002561
:104080000FE00120FFF7F0FE06460720FFF7ECFEE9
:1040900000F080070EB1802F02D10120BDE8F0872B
:1040A0006D1C502DEDD30020F8E770B505469E48F5
:1040B000057007210F20FFF7EEFE03212220FFF7F6
:1040C000EAFE0920FFF7D0FE044604F0F70421467B
:1040D0000920FFF7E0FE1E2293490120FFF7BCFFF5
:1040E00004460CB9012070BD8F48FFF787FF8E484A
:1040F000FFF79EFF0446012C08D18B4800788B49BE
:1041000008708948407848700020ECE71520EAE7FD
:104110000022002104E08648405C4240481CC1B2B5
:104120000529F8DB0AB9012070470020FCE7F0B54B
:1041300003460C4615465BB954B9002005E07A4E9B
:10414000365C7B4F3E54461CF0B2A842F7DB4CE095
:10415000754E31785E1E764FBA5D082C2CD2DFE8A2
:1041600004F004080D12171C212600225E1CF3B275
:1041700023E001F0FE0102F001021EE001F0FC016B
:1041800002F0030219E001F0F80102F0070214E066
:1041900001F0F00102F00F020FE001F0E00102F087
:1041A0001F020AE001F0C00102F03F0205E001F049
:1041B000800102F07F0200E000BF00BF5A4E317064
:1041C00042EA01065F1EDFF868C10CF807600120B3
:1041D00009E0554E375C5E1E0644DFF854C10CF80A
:1041E0000670461CF0B2A842F3DBF0BD70B5054680
:1041F0000C46052D18D2DFE805F003070B0F13005E
:1042000020204949487010E03020474948700CE0B0
:1042100040204549487008E050204349487004E078
:1042200060204149487000E000BF00BF082C57D211
:10423000DFE804F00409141F2A35404B00210F2049
:10424000FFF729FE4DE011210F20FFF724FE36482D
:10425000407840F001003449487042E022210F20AC
:10426000FFF719FE3048407840F002002E494870B0
:1042700037E033210F20FFF70EFE2B48407840F047
:104280000300294948702CE044210F20FFF703FE6A
:104290002548407840F004002349487021E055212A
:1042A0000F20FFF7F8FD2048407840F005001E4938
:1042B000487016E066210F20FFF7EDFD1A484078A0
:1042C00040F00600184948700BE077210F20FFF7F7
:1042D000E2FD1548407840F007001349487000E0BF
:1042E00000BF00BF70BD2DE9F0410027B846002592
:1042F00063212320FFF7CFFD3F211220FFF7CBFDE5
:104300009320094908702020487003212220FFF7DC
:10431000C2FD1E2204490220FFF79EFE04465FE014
:1043200000C0024000C00920A41E00101C000010A4
:104330001E00001014B90120BDE8F0810420FFF731
:1043400093FD04460CB90C20F6E7F748FFF756FE3C
:10435000224641463846FFF7EAFE0A20FFF784FD71
:10436000044604F001043CB9FFF7D2FE04460CB940
:104370000820E1E70020DFE70B20FFF775FD04468A
:104380002046E11704EB5171CF10E11704EB517196
:10439000C910A4EBC10101F0FF089320E2490870A5
:1043A0007919C8B24146FFF721FFE819C5B20026C6
:1043B00006E0DE48815DDC4AB01C1154701CC6B2B8
:1043C000681C8642F5DBB8F1000F01D0C7B200E0EF
:1043D0002F46B91CC8B21E22D349FFF73DFE044642
:1043E000A8E770B563212320FFF755FD3F21122078
:1043F000FFF751FD9320CC490870702048700025CC
:1044000006E0CA48415DC84AA81C1154681CC5B2E0
:10441000052DF6DB0F212220FFF73DFD1E22C249AC
:104420000720FFF719FE04460CB9012070BD0A20D1
:10443000FFF71AFD044604F00200022801D105200E
:10444000F4E704F00400042801D11420EEE704F09E
:104450000800082801D10220E8E70420FFF704FD46
:104460000446012C01D00C20E0E7AF48FFF7C6FD61
:10447000AD4804780020D9E770B502460B4600210C
:104480000025002400BF12E0505C00F00F05505CD6
:104490000411E84345EA0010012606EB4106985551
:1044A000E04344EA001003F81100481CC1B2062999
:1044B000EADB002070BD7FB505460020009001902A
:1044C0000290039069462846FFF7D6FF19226946F5
:1044D0000C20FFF7C1FD044614B9132004B070BDD1
:1044E0000A20FFF7C1FC00F04004402C01D1042059
:1044F000F4E70020F2E72DE9F04781460D46174624
:10450000202D07DBA5F1200000F0FF08202000EBA4
:104510008800C5B263212320FFF7BDFC3F21122094
:10452000FFF7B9FC602F04D0612F02D00420BDE852
:10453000F0877D480770032000EB85007A494870BA
:10454000002606E019F80610B01C774A1154701CBA
:10455000C6B2042EF6DB0F212220FFF79CFC0C22B2
:1045600071490620FFF778FD04460CB99920DEE773
:104570000A20FFF779FC044604F00200022801D16A
:104580000520D4E704F00400042801D11420CEE76C
:1045900004F00800082801D10220C8E7142262496B
:1045A0000020FFF759FD04460CB98820BFE70A2018
:1045B000FFF75AFC044604F00200022801D105204E
:1045C000B5E704F00400042801D11420AFE704F09B
:1045D0000800082801D10220A9E70920FFF744FCC0
:1045E00082460AF0080ABAF1080F01D100209EE7BE
:1045F00004209CE770B505460E4663212320FFF793
:104600004AFC3F211220FFF746FC3F211320FFF711
:1046100042FC0F212220FFF73EFC302028706E70F4
:104620001E2229460220FFF717FD04460CB901207F
:1046300070BD0A20FFF718FC044604F002000228AF
:1046400001D10520F4E704F00400042801D114206E
:10465000EEE704F00800082801D10220E8E7042072
:10466000FFF702FC0446102C04D12846FFF7C6FCD5
:104670000020DDE7042C04D12846FFF7BFFC002012
:10468000D6E70C20D4E7FEB506460F46632123206B
:10469000FFF701FC3F211220FFF7FDFB6D460721CC
:1046A0002220FFF7F8FBA02028706F701E222946F9
:1046B0000220FFF7D1FC04460CB90120FEBD042006
:1046C000FFF7D2FB04460CB90C20F7E72846FFF7AA
:1046D00095FC2C78042C0BD003DC3CB1012C0ED1C2
:1046E00009E0052C09D00A2C09D103E00A20E5E7EE
:1046F0000320E3E705E00220E0E70520DEE70F20E6
:10470000DCE700BF1E2231461020FFF7A5FC04465F
:10471000012C01D10020D1E70A20FFF7A5FB0446B8
:1047200034B90020CAE70000A41E00101E000010CB
:1047300004F00200022801D10520BFE704F00400C4
:10474000042801D11420B9E704F00800082801D199
:104750000220B3E70F20B1E710B563212320FFF754
:104760009AFB3F211220FFF796FB03212220FFF73F
:1047700092FB5020FA490870002048701A2202204B
:10478000FFF76AFC0446012C01D1002010BD0A206D
:10479000FFF76AFB044604F00200022801D105205D
:1047A000F4E704F00400042801D11420EEE701200E
:1047B000ECE72DE9F04106460F4663212320FFF781
:1047C0006AFB3F211220FFF766FB341DC1202070D9
:1047D000677007212220FFF75EFB1E222146022080
:1047E000FFF73AFC054615B90120BDE8F081042029
:1047F000FFF73AFB05460DB90C20F6E72046FFF718
:10480000FDFB2578042D0BD003DC3DB1012D0ED12D
:1048100009E0052D09D00A2D09D103E00A20E4E7BB
:104820000320E2E705E00220DFE70520DDE71020B6
:10483000DBE700BF1A2231460420FFF70DFC0546D6
:104840000DB91020D1E70020CFE72DE9F041064651
:104850000F4663212320FFF71EFB3F211220FFF7A5
:104860001AFB341DC0202070677007212220FFF73B
:1048700012FB1E2221460220FFF7EEFB054615B96A
:104880000120BDE8F0810420FFF7EEFA05460DB9DE
:104890000C20F6E72046FFF7B1FB2578042D0BD05E
:1048A00003DC3DB1012D0ED109E0052D09D00A2D03
:1048B00009D103E00A20E4E70320E2E705E0022053
:1048C000DFE70520DDE71120DBE700BF1A223146D4
:1048D0000420FFF7C1FB05460DB91120D1E70020E8
:1048E000CFE770B5064663212320FFF7D4FA3F21B6
:1048F0001220FFF7D0FA07212220FFF7CCFAC220BE
:1049000097490870084646701E220220FFF7A4FB54
:1049100004460CB9012070BD0420FFF7A5FA044637
:104920000CB90C20F7E78E48FFF768FB8C48047839
:10493000042C0BD003DC3CB1012C0ED109E0052C7A
:1049400009D00A2C09D103E00A20E4E70320E2E7BA
:1049500005E00220DFE70520DDE70D20DBE700BFF3
:10496000002504E000207E494855681CC5B2042D8E
:10497000F8DB1A227A490420FFF76EFB04460CB9D3
:104980000D20C8E70020C6E770B505466321232047
:10499000FFF781FA3F211220FFF77DFA072122203D
:1049A000FFF779FAB0206E490870084645701E225C
:1049B0000220FFF751FB04460CB9012070BD042012
:1049C000FFF752FA04460CB90C20F7E76448FFF7EA
:1049D00015FB63480478042C0BD003DC3CB1012C9C
:1049E0000FD10AE0052C0AD00A2C0AD103E00A20D4
:1049F000E4E70320E2E70020E0E70220DEE705200D
:104A0000DCE70E20DAE72DE9F04105460F46904637
:104A10001E46FFF7A1FE2620FFF747FB044614B110
:104A20001520BDE8F081FFF75EFC04460CB11720AD
:104A3000F7E7042229464B4811F00AFB08B1FF2092
:104A4000EFE7FFF7CEFC04460CB11620E9E730464D
:104A5000FFF731FD424639462846FFF74CFD044634
:104A60000CB10420DDE70020DBE710B5002400BF17
:104A700009E05220FFF719FB08B9002010BDFFF72D
:104A80006BFE601CC4B2032CF3DBFF20F6E770B5AD
:104A90000446002500BF11E05220FFF706FB38B99D
:104AA000FFF721FC38B92F4800682060002070BD56
:104AB000FFF752FE00E000BF681CC5B2032DEBDB20
:104AC000FF20F4E770B50025002400BF10E052205D
:104AD000FFF7EBFA30B9FFF706FC30B9214805685B
:104AE000284670BDFFF738FE00E000BF601CC4B26E
:104AF000032CECDB2846F4E72DE9F04706460C468C
:104B000091461F46DDF820A00025402C02DDFF2045
:104B1000BDE8F087002532E05220FFF7C6FA00B169
:104B20002BE0FFF7E0FB00B127E0042231460D48FF
:104B300011F08EFA00B120E0FFF753FC00B11CE049
:104B40003846FFF7B8FC00B117E0E01704EB9070AF
:104B5000C0F387014A463046FFF7CDFC20B10CE098
:104B6000A41E00101E00001021465046FFF742FD13
:104B700000B102E0FFF7F0FD03E0681CC5B2032DB1
:104B8000CADB00BF032D01D1FF20C1E70020BFE732
:104B90002DE9F04706460C4691461F46DDF820A059
:104BA00000250CB1402C02DBFF20BDE8F08700257A
:104BB0002EE05220FFF779FA00B127E0FFF793FBD0
:104BC00000B123E004223146B94811F041FA00B1A6
:104BD0001CE0FFF706FC00B118E03846FFF76BFC5D
:104BE00000B113E0E01704EB9070C0F387014A4670
:104BF0003046FFF780FC00B108E021465046FFF741
:104C000042FD00B102E0FFF7A7FD03E0681CC5B25A
:104C1000032DCEDB00BF032D01D1FF20C5E700200F
:104C2000C3E72DE9FC4707460C46914698460A9E85
:104C3000FF2206216846FBF759FB102C02DDFF20FE
:104C4000BDE8FC8700253EE05220FFF72EFA00B1B8
:104C500038E0FFF748FB00B134E0042239469448BD
:104C600011F0F6F900B12DE0FFF7BBFB00B129E030
:104C70004046FFF720FC00B124E04A462146384672
:104C8000FFF739FC00B11DE0A006010E3046FFF72A
:104C9000B1FC00B116E0012000EB8400C1B206F1C6
:104CA0001000FFF7A7FC00B10CE0022000EB84002D
:104CB000C1B206F12000FFF79DFC00B102E0FFF752
:104CC0004BFD02E06D1C032DBED300BF032D01D1AF
:104CD000FF20B5E70020B3E72DE9F04707460C4673
:104CE00091469846089E102C02DDFF20BDE8F08713
:104CF000002544E05220FFF7D8F900B13EE0FFF76D
:104D0000F2FA00B13AE004223946694811F0A0F9FC
:104D100000B133E0FFF765FB00B12FE04046FFF73D
:104D2000CAFB00B12AE04A4621463846FFF7E3FBBA
:104D300000B123E0A006010E3046FFF7A4FC00B14D
:104D40001CE00320FFF77EF8012000EB8400C1B2D5
:104D500006F11000FFF797FC00B10FE00320FFF70A
:104D600071F8022000EB8400C1B206F12000FFF7C9
:104D70008AFC00B102E0FFF7EFFC02E06D1C032D9E
:104D8000B8D300BF032D01D1FF20AFE70020ADE76E
:104D90002DE9F05F80460C4691469A46DDF828B032
:104DA00000250026402C02DDFF20BDE8F09F0025F5
:104DB0000FE02746E01704EB9070C0F387015346DD
:104DC0004A464046FFF71FFE064606B903E0681C48
:104DD000C5B2032DEDDB00BF032D01D13046E4E762
:104DE00021465846FFF7E5FC06462046FFF7CCFD76
:104DF0003046DAE72DE9F05F80460C4691469A4648
:104E0000DDF828B000250026402C02DDFF20BDE89B
:104E1000F09F00250FE02746E01704EB9070C0F3E9
:104E2000870153464A464046FFF7EDFD064606B960
:104E300003E0681CC5B2032DEDDB00BF032D01D1DB
:104E40003046E4E721465846FFF7FFFC0646204679
:104E5000FFF79AFD3046DAE72DE9F04780460C4629
:104E600091469A4600250026402C02DDFF20BDE831
:104E7000F08700250FE02746E01704EB9070C0F3A1
:104E8000870153464A464046FFF7BDFD064606B930
:104E900003E0681CC5B2032DEDDB00BF032D01D17B
:104EA0003046E4E72046FFF71CFD06463046DEE7C5
:104EB0001E00001010B5F748006840F01000F549DA
:104EC000B439C1F8B4000846D0F8B40040F020006E
:104ED000C1F8B4001520012181404209920002F17D
:104EE000E022C2F8001100BFEB48006C20F0100077
:104EF000E94908640846006C20F020000864242179
:104F0000E64811F097F910BD0020052027E0E3499D
:104F1000C978A1B1E149091D095C01F08001DF4AAE
:104F2000D170111D095C49060A0EDC49091D0A549D
:104F3000095C491CCAB2D949091D0A540DE0D74978
:104F4000091D095C01F08001D44AD170111D095C72
:104F500049060A0ED149091D0A54411EC8B200284B
:104F6000D5DC704700200021CC4AD17000BF25E07D
:104F7000CA49C97899B1C949091D095C01F0010103
:104F8000C64AD170111D095C4A10C449091D0A5452
:104F9000095C8031CAB2C149091D0A540CE0BF49FD
:104FA000091D095C01F00101BC4AD170111D095CA9
:104FB0004A10BA49091D0A54411CC8B20628D7DB59
:104FC000704770B5002500269AE1FCF767FCB248EF
:104FD0005430007800F0300030286ED0AE485430A5
:104FE000007800F030000028F7D00020AB490870AE
:104FF000A9485430007800F0100010B101208870EA
:1050000002E00020A5498870002508E0FCF746FC76
:105010006D1C41F28830854201D9002070BD9E4848
:105020005430007800F030003028EFD19B480078F1
:10503000401C9A4908700846002141600181002403
:105040004AE0FCF72BFC94485430007800F0100044
:10505000E8B900209149C870FFF756FF002508E025
:10506000FCF71CFC6D1C41F28830854201D9002000
:10507000D4E789485430007800F030003028EFD170
:10508000002486480078401C8449087023E0824848
:105090005430007800F02000E8B901207F49C87042
:1050A000FFF732FF002509E0FCF7F8FB6D1C41F229
:1050B0008830854202D90020B0E720E1764854309C
:1050C000007800F030003028EED1002473480078DA
:1050D000401C72490870641C71488442B1D36F4807
:1050E00000781A2853D1FFF73DFF002440E0FCF779
:1050F000D5FB082C1CD26948C1790120A040014091
:1051000039B16648807808B9012000E00020634981
:1051100088706248417A0120A040014039B35F485D
:10512000C07808B9012000E000205C49C8701EE08A
:105130005A48007A211F01228A40104038B157484E
:10514000807808B9012000E0002054498870534855
:10515000007AA4F1080101228A40104038B14F487A
:10516000C07808B9012000E000204C49C870641CD8
:105170000C2CBCD3494880784849C97809B9012129
:1051800000E000210843002870D0002046E7434893
:105190000078222853D1FFF7E5FE002441E0FCF718
:1051A0007DFB082C1CD23D4881790120A0400140A4
:1051B00039B13A48807808B9012000E00020374929
:1051C00088703648007A0121A140084040B3334836
:1051D000C07808B9012000E000203049C8701FE005
:1051E0002E48C079A4F1080101228A40104038B14C
:1051F0002A48807808B9012000E0002027498870FB
:105200002648407AA4F1080101228A40104038B1B2
:105210002248C07808B9012000E000201F49C8706A
:10522000641C102CBBD31D4880781C49C97809B96F
:10523000012100E000210843C0B10020EEE617483C
:105240000078232857D1FFF78DFE00244CE0FCF7AF
:1052500025FB082C26D2114880790121A140084065
:1052600040B10E48807810B9012001E045E00020EF
:105270000A4988700948007A0121A140084070B3AA
:105280000648C07808B9012000E000200349C87032
:1052900029E00000B480024000C00920CC1E0010AC
:1052A000701101002E48C079A4F1080101228A4042
:1052B000104038B12A48807808B9012000E0002069
:1052C000274988702648407AA4F1080101228A40C3
:1052D000104020B12248C07810B9012001E002E05E
:1052E00000201F49C870641C102CB0D31C48807863
:1052F0001B48C07801E0002090E601208EE6761C75
:10530000642EFFF462AE002088E610B572B6154830
:10531000006840F010001349AC39C1F8AC000846F1
:10532000D0F8AC0040F02000C1F8AC00FFF749FE17
:10533000012801D10A49487062B610BD0020084911
:10534000497859B10021064A51701146C8790002C6
:10535000097A084400021146497A0844704700005F
:10536000CC1E0010AC800240FEB503460C46002067
:105370001A4600BF0A25B2FBF5F605FB16253035A7
:105380000646471CF8B20DF806500A25B2FBF5F2A6
:10539000002AEFD10146002006E00D1A6D1E1DF80F
:1053A00005502554451CE8B28842F6DBFEBD2DE9C8
:1053B000F04385B006460C460027B84614216846DF
:1053C00010F05AFF0025A9461CB9002005B0BDE821
:1053D000F0830A2C02DD4FF0FF30F7E7224631461A
:1053E000684610F0B0FE002522E01DF805003028C8
:1053F00019DB1DF80500392815DC1DF80500A0F1A2
:105400003008681C201A00F0FF0903E008EB880050
:105410004FEA40085FEA0900A9F1010101F0FF0924
:10542000F4D1474402E04FF0FF30CFE7681CC5B22B
:10543000A542DADB3846C9E770B5034600240020F0
:1054400000BF09E00C5C04F00F05260906EB860698
:1054500005EB46051D54401C9042F3D370BDF0B5DA
:1054600003460024002000BF0EE00C5C0A2594FBDC
:10547000F5F5F02606EA05150A2694FBF6F706FB75
:10548000174635431D54401C9042EED3F0BDF0B595
:1054900003460D4616460020002400BF1CE02A5D8E
:1054A0001109092903DD01F13707F9B202E001F121
:1054B0003007F9B20746401CD95502F00F010929FF
:1054C00003DD01F13707F9B202E001F13007F9B26B
:1054D0000746401CD955641CB442E0D3F0BD2DE909
:1054E000F04104460B4615460022002000BF3CE078
:1054F000995C302905DB392903DCA1F13007F9B2C9
:105500000EE0612905DB662903DCA1F15707F9B23A
:1055100006E0412904DB462902DCA1F13707F9B294
:105520000F073E0E521C995C302905DB392903DC3C
:10553000A1F13007F9B20EE0612905DB662903DC31
:10554000A1F15707F9B206E0412904DB462902DC44
:10555000A1F13707F9B201F00F01771807F0FF0842
:105560000746401C04F80780521CAA42C0D3BDE87D
:10557000F081F0B503460C4600250021002000BF55
:105580000EE0655C302606EB151C0646401C03F851
:1055900006C005F00F0630360746401CDE55491C94
:1055A0009142EED3F0BD10B503460C46002105E054
:1055B000585CA04201D1084610BD491C9142F7D366
:1055C0004FF0FF30F8E72DE9FE4F81468A464C4602
:1055D0005546204610F08CFD0090284610F088FDBE
:1055E00080460098A0EB080BBBF1000F02DA002008
:1055F000BDE8FE8F002620E020782978884201D07F
:10560000641C19E00294019500270DE002980178CE
:1056100001980078814200D008E00298401C029076
:105620000198401C01907F1C4745EFDB00BF4745B8
:1056300001D10120DCE7641C761C5E45DCDD002026
:10564000D6E70146012070477CB504460B4601258C
:1056500000200090019000220EE0A05C2E2801D0D6
:10566000A05C38B928466E1CF5B20DF80020052D57
:1056700000DB1E22501CC2B2142AEEDB00212CE0FB
:1056800099B900201870002209E0A05C30385E5CF7
:1056900006EB860600EB46005854501CC2B2481C6C
:1056A0001DF800009042F0DC15E0002058541DF871
:1056B0000100401CC2B209E0A05C30385E5C06EB21
:1056C000860600EB46005854501CC2B2481C1DF818
:1056D00000009042F0DC481CC1B20429D0DB042059
:1056E0007CBDF0B502460C460023002000BF55E00B
:1056F000E15C632928DD642691FBF6F6F5B26426A9
:1057000091FBF6F706FB1716F1B205F1300606F02D
:10571000FF0C0646401C02F806C00A2691FBF6F66E
:10572000303606F0FF0C0646401C02F806C00A267A
:1057300091FBF6F706FB1716303606F0FF0C06460F
:10574000401C02F806C020E0092916DD0A2691FB5C
:10575000F6F6303606F0FF0C0646401C02F806C08E
:105760000A2691FBF6F706FB1716303606F0FF0CFB
:105770000646401C02F806C007E001F1300606F0BC
:10578000FF0C0646401C02F806C0032B05D04FF064
:105790002E0C0646401C02F806C05B1C042BA7D347
:1057A000F0BD70B5024600230020002400BF18E0C1
:1057B000002011E052F82060451C52F82550AE42FE
:1057C00009D952F82040451C52F8255042F8205083
:1057D000451C42F82540401CCD1A6D1E8542E9D873
:1057E0005B1C8B42E4D370BD012808D14FF0E0214F
:1057F000096941F001014FF0E02211610EE0811CC6
:1058000041B94FF0E021096921F001014FF0E02298
:10581000116103E000214FF0E0225161704770B543
:105820000346B3F57A7F01D04FF47A737348B0FB27
:10583000F3F1B1F1807F00D31DE021F07F40401EE5
:105840004FF0E022506150171F22002807DAD406DB
:10585000260E6B4C00F00F052D1F665503E0D40695
:10586000250E684C255400BF00204FF0E0229061C7
:105870000720106100BF6FF00100FFF7B5FF0020A7
:105880006149087070BD00B501205F490870FFF7DD
:10589000ABFF00BD00B500205B490870801EFFF71C
:1058A000A3FF0020FFF7A0FF00BD00B50020564970
:1058B0000870801EFFF798FF00BD10B503465248E0
:1058C000007808B1FFF7E6FF50480068834205D131
:1058D0004E48006800684D4908600CE04B48046879
:1058E00006E02068984202D11868206002E024682F
:1058F000002CF6D100BF4648006818604448036099
:105900004148007808B1FFF7BEFF10BD10B53F4811
:10591000046814E02079012810D1E068401EE0609E
:10592000E06858B9D4E9040188476079012802D1B8
:10593000A068E06002E02046FFF7BFFF2468002C6B
:10594000E8D110BD10B5FFF7E1FF10BD0021304ACE
:10595000116000200EE02E49096800EB40022D4B3B
:1059600043F8321000EB40011A4602EBC101284A0D
:105970001160401C0828EEDB0021244A11607047AA
:105980002DE9F04105460E4614461F46DDF8188005
:105990001D48007808B1FFF77DFF1D4803687BB103
:1059A000006800681A4908601D715E719C60DC60C7
:1059B0005F61C3F8108015480068186013480360E1
:1059C0001148007808B1FFF75EFF1846BDE8F08186
:1059D00070B504460E4615460B48007808B1FFF72F
:1059E00059FFFFF757FF26716571A360E360064812
:1059F000007808B1FFF747FF70BD000000E1F50532
:105A000018ED00E000E400E0240000102C0000107D
:105A100028000010F01E0010B1F1FF3F02D1A24A91
:105A2000116102E04A00A04B1A6142089F4B1B68BB
:105A30009A6001229D4B1B681A7170479A49096947
:105A400011B39B49097831B19A49C96F41F000718E
:105A5000984AD16705E09749896F41F00071954AEE
:105A600091679349097809B9012100E00021904A22
:105A700011708D490969B1F1FF3F0FD08A49096959
:105A8000491E894A116109E08A49896F41F0007114
:105A9000884A91670021854A12681171704710B5D4
:105AA00000B14AB9834BDB6F43F08063814CE367FD
:105AB0000023814C237010BD804B1860804B19600F
:105AC000804B1A600023804C2360804C2360804B05
:105AD0001B689B687E4C2468E36001237D4C237027
