:020000040000FA
:100000001056001001030000090300000B0300005C
:100010000D0300000F0300001103000000000000AA
:1000200000000000000000000000000013030000BA
:10003000150300000000000017030000AD5600008B
:100040001B030000E92C00001B0300001B03000041
:100050001B0300008D4B0000A34C0000094D000065
:10006000C34D00001B0300001B0300001B03000026
:100070001B0300001B0300001B0300001B03000008
:100080001B0300001B0300001B0300001B030000F8
:100090001B0300001B0300001B0300001B030000E8
:1000A0001B0300001B0300001B0300001B030000D8
:1000B0001B0300001B0300001B0300001B030000C8
:1000C0001B0300001B0300001B03000000F002F8EC
:1000D00000F060F80AA090E8000C82448344AAF182
:1000E0000107DA4501D100F055F8AFF2090EBAE880
:1000F0000F0013F0010F18BFFB1A43F0010318475C
:1001000038970600589706000A444FF0000C10F884
:10011000013B13F0070408BF10F8014B1D1108BF85
:1001200010F8015B641E05D010F8016B641E01F825
:10013000016BF9D113F0080F1EBF10F8014BAD1C75
:100140000C1B09D16D1E58BF01F801CBFAD505E093
:1001500014F8016B01F8016B6D1EF9D59142D6D3ED
:10016000704700000023002400250026103A28BF15
:1001700078C1FBD8520728BF30C148BF0B60704719
:10018000642914F05385782914F08C850020704779
:100190001FB51FBD15F03FF81146FFF7F9FF07F037
:1001A000ACFB67F0C8EC000020204A4908604A48D0
:1001B000D0F8A00100F0200030B100BF4548006831
:1001C00000F040000028F9D0032042499C39086023
:1001D00000204149C1F8A8013E490C3108600120C6
:1001E0003C49943908603D483B4984310860AA2065
:1001F00039498C310860552008600120364980312A
:100200000860AA2034498C31086055203249C1F871
:100210008C0000BF30488830006800F08060002803
:10022000F8D003202C4980310860AA202A49C1F85F
:100230008C00552028498C31086000BF2648883042
:10024000006800F040700028F8D023202249A43133
:100250000860AA202049C1F8AC0055201E49AC31E5
:10026000086001201C49A0310860AA201A49AC315D
:10027000086055201849C1F8AC0000BF1648A830E6
:10028000006800F480600028F8D003201249A031F3
:100290000860AA201049C1F8AC0055200E49AC31C5
:1002A000086000BF0C48A830006800F440700028C7
:1002B000F8D00B480849C431086000200649C1F84D
:1002C000C8010846006820F4704040F4804008608F
:1002D00070470000A0C10F4000C00F406300050040
:1002E000DE872804421E12F8013F002BFBD111F8D3
:1002F000013B002B02F8013BF9D17047FFFFFFFFE4
:100300000948804709480047FEE7FEE7FEE7FEE7A9
:10031000FEE7FEE7FEE7FEE7FEE7FEE704480549E5
:10032000034A054B70470000A9010000CD00000002
:10033000105400101056001010540010FE48406871
:1003400020F00300FC4948600846006920F0C00026
:100350000861FA48006840F48030F84908600846AF
:10036000006C40F0080008640846806D40F008000A
:1003700088650846C06940F48030C8617047EE481F
:10038000406820F44060EC4948600846406820F02E
:10039000C00048600846406820F440704860084645
:1003A000406820F440504860E448006840F4001081
:1003B000E24908600846006840F4002008600846EA
:1003C000006820F4800008600846006820F480106F
:1003D00008600846C06940F40010C861084680699A
:1003E00040F4002088617047D44A926942F4803218
:1003F000D24B9A61002111E0D04AD26D42F008023E
:10040000CE4BDA651A46926D42F008029A651A469A
:10041000D26942F48032DA614A1CD1B28142EBDB0C
:100420007047C649C96941F48031C44AD16100208E
:100430000CE0C249896D41F00801C04A916511463E
:10044000C96D41F00801D165411CC8B2C328F0DB79
:10045000704770B50446B948806940F48030B749A8
:100460008861002511E0B548C06D40F00800B3492F
:10047000C8650846806D40F0080088650846C06978
:1004800040F48030C861681CC5B2A542EBDB4FF474
:10049000967005F02CFBFFF7C4FF70BDF0B5034666
:1004A00000250022002600240846CF1701EB5777CD
:1004B000C7F3C704CF1701EB5777FF10A1EBC707AE
:1004C0000FB1601CC4B226469C48806940F40020ED
:1004D0009A4FB8613846806940F40010B8613846D8
:1004E000C06940F40020F8613846806940F400207B
:1004F000B861002221E000209854002519E0985CA2
:100500004006000E98548D484069012727EA905014
:1005100010B1985C401C98548848C06940F40010A1
:10052000864FF8613846806940F40010B861681C55
:10053000C5B2082DE3DB501CC2B2A242DBDB7F4810
:10054000C06940F400107D4FF8613046F0BDF0B551
:10055000034600250022002600240846CF1701EBA1
:100560005777C7F3C704CF1701EB5777FF10A1EBFD
:10057000C7070FB1601CC4B226467048806940F4BA
:1005800000206E4FB8613846806940F40010B861B1
:100590003846C06940F40020F8613846806940F46C
:1005A0000020B861002220E000209854002518E0C7
:1005B000985C401098546148406900F4800018B974
:1005C000985C40F0800098545C48C06940F400108A
:1005D0005A4FF8613846806940F40010B861681CD1
:1005E000C5B2082DE4DB501CC2B2A242DCDB53488A
:1005F000C06940F40010514FF8613046F0BDF0B5CD
:10060000034600250022002600240846CF1701EBF0
:100610005777C7F3C704CF1701EB5777FF10A1EB4C
:10062000C7070FB1601CC4B226464448806940F435
:100630000020424FB8613846806940F40010B8612C
:100640003846C06940F40020F8613846806940F4BB
:100650000020B861002220E000209854002518E016
:10066000985C4006000E98543448406900F48010AD
:1006700010B1985C401C98543048C06940F4001098
:100680002E4FF8613846806940F40010B861681C4C
:10069000C5B2082DE4DB501CC2B2A242DCDB274805
:1006A000C06940F40010254FF8613046F0BDF0B548
:1006B000034600250022002600240846CF1701EB40
:1006C0005777C7F3C704CF1701EB5777FF10A1EB9C
:1006D000C7070FB1601CC4B226461848806940F4B1
:1006E0000020164FB8613846806940F40010B861A8
:1006F0003846C06940F40020F8613846806940F40B
:100700000020B861002225E00020985400251DE05B
:10071000985C401098540948406900F4801018B95A
:10072000985C40F0800098540448C06940F4001080
:10073000024FF861384603E000C0024000C00920C3
:10074000806940F40010B861681CC5B2082DDFDB79
:10075000501CC2B2A242D7DB0348C06940F400106B
:10076000014FF8613046F0BD00C0092030B1FA49B0
:10077000096841F00061F84A116005E0F64909682E
:1007800021F00061F44A1160704700B5F3484068F9
:1007900020F44000F14948600846406820F040706D
:1007A0004860ED48006840F08050EB49086008461A
:1007B000C06940F08050C8610120FFF7D7FFE648CC
:1007C000806940F00060E44988610020E4490870D5
:1007D00000BD0CB5002101910BE00021009102E069
:1007E0000099491C009100990029F9D00199491CF0
:1007F000019101998142F0D30CBD00B50120FFF7B2
:10080000B5FFD548806940F00060D349886108464B
:10081000806940F0805088610A20FFF7DAFFCE48F7
:10082000C06940F00060CC49C8610A20FFF7D1FFE1
:1008300000BD00B50120FFF799FFC748C06940F02F
:100840000060C549C8610520FFF7C3FFC248806941
:1008500040F08050C04988610A20FFF7BAFFBE48C7
:10086000806940F00060BC4988610A20FFF7B1FF51
:10087000B948C06940F08050B749C8610020FFF70F
:1008800075FF0A20FFF7A5FF00BD10B5002400206A
:10089000FFF76CFFB048C06940F08050AE49C861B6
:1008A0000520FFF796FFAC48806940F08050AA49C8
:1008B00088610520FFF78DFFA748406900F00064BC
:1008C000A548C06940F08050A349C8610A20FFF7DD
:1008D00080FF0CB1012010BD0020FCE700B5012015
:1008E000FFF744FF9C48C06940F080509A49C861B6
:1008F0000A20FFF76EFF9848C06940F000609649F3
:10090000C8610A20FFF765FF9348806940F0805076
:10091000914988610A20FFF75CFF8F48C06940F069
:1009200080508D49C86100BD00B50120FFF71EFF52
:100930008948C06940F080508749C8610A20FFF7A4
:1009400048FF8548806940F00060834988610A203B
:10095000FFF73FFF8048806940F080507E49886102
:100960000A20FFF736FF7C48C06940F080507A4982
:10097000C86100BD30B504460120FFF7F7FE764898
:10098000C06940F080507449C8610520FFF721FF1D
:10099000002523E07048C06940F080506E49C8616E
:1009A00004F0800028B10846806940F0006088614A
:1009B00005E06948C06940F000606749C8616006A9
:1009C000040E0A20FFF705FF6348806940F080505D
:1009D000614988610A20FFF7FCFE6D1C082DD9DBF8
:1009E0005D48C06940F080505B49C8610A20FFF74C
:1009F000F0FE30BD30B500240020FFF7B7FE5648AA
:100A0000C06940F080505449C8610520FFF7E1FEFD
:100A100000251FE05048C06940F080504E49C86131
:100A20000A20FFF7D6FE4C48806940F080504A49C2
:100A300088610A20FFF7CDFE6006040E4648406933
:100A400000F0006008B1601CC4B20520FFF7C1FED1
:100A5000681CC5B2082DDDDB3F48C06940F08050FE
:100A60003D49C8610A20FFF7B4FE204630BD2DE99C
:100A7000F04104460D46E7B2C4F307280326B4F557
:100A8000004F02D30220BDE8F08126E0FFF7B5FE5B
:100A9000A020FFF76FFFFFF7F8FEA8B94046FFF769
:100AA00069FFFFF7F2FE78B93846FFF763FFFFF7FB
:100AB000ECFE48B92846FFF75DFFFFF7E6FE18B9E0
:100AC000FFF7B7FE0020DEE7FFF7B3FE701EC6B2E9
:100AD0001EB9012022490870D5E7D7E72DE9F0417A
:100AE00004460D46E7B2C4F307280326B4F5004FC9
:100AF00002D30220BDE8F08134E0FFF77EFEA020A3
:100B0000FFF738FFFFF7C1FEE0B94046FFF732FFBD
:100B1000FFF7BBFEB0B93846FFF72CFFFFF7B5FE75
:100B200080B9FFF76AFEA120FFF724FFFFF7ADFEB3
:100B300040B9FFF75FFF2870FFF7F6FEFFF779FE79
:100B40000020D7E7FFF775FE701EC6B256B9012028
:100B500003490870CEE7000000C0092000C0024031
:100B600004000010C9E72DE9F04707460C4615467A
:100B700004F0FF09C4F3072A4FF003080026B4F578
:100B8000004F04D204F03F002844402802D902203C
:100B9000BDE8F08731E0FFF730FEA020FFF7EAFE66
:100BA000FFF773FED8B95046FFF7E4FEFFF76DFE7E
:100BB000A8B94846FFF7DEFEFFF767FE78B90026C2
:100BC00007E0B85DFFF7D6FEFFF75FFE00B107E074
:100BD000761CAE42F5D3FFF72CFE0020D8E700BF0D
:100BE000FFF727FEA8F1010000F0FF08B8F1000FA1
:100BF00003D101207E490870CAE7CCE72DE9F84F00
:100C000080460E4617460025AA46A946AB46002454
:100C10000020009006F03F0BCBF14004C7F3871A89
:100C200007F03F09BBF1000F30D1BAF1000F0AD134
:100C30004A4631464046FFF796FF05464CF2503093
:100C4000FFF7C7FD81E00CE0402231464046FFF748
:100C50008AFF05434CF25030FFF7BBFD403608F1E8
:100C600040085FEA0A00AAF1010101F0FF0AEBD196
:100C7000B9F1000F69D04A4631464046FFF773FF8D
:100C800005434CF25030FFF7A4FD5EE0BAF1000FCF
:100C900027D1A1451ADDA9EB0400C0B2009022467D
:100CA00031464046FFF75FFF05462644A0444CF21C
:100CB0005030FFF78EFD31464046009AFFF753FF54
:100CC00005434CF25030FFF784FD3EE03A46314692
:100CD0004046FFF748FF05464CF25030FFF779FDDC
:100CE00033E03F1BC7F3871A07F03F095CB1224688
:100CF00031464046FFF737FF05434CF25030FFF7CF
:100D000068FD2644A0440CE0402231464046FFF7EF
:100D10002AFF05434CF25030FFF75BFD403608F1E7
:100D200040085FEA0A00AAF1010101F0FF0AEBD1D5
:100D3000B9F1000F09D04A4631464046FFF713FF8C
:100D400005434CF25030FFF744FD2846BDE8F88FCC
:100D50002DE9F04707460C46164604F0FF09C4F398
:100D6000072A4FF003080025B4F5004F02D30220F4
:100D7000BDE8F0873BE0FFF740FDA020FFF7FAFD5C
:100D8000FFF783FD30BB5046FFF7F4FDFFF77DFD15
:100D900000BB4846FFF7EEFDFFF777FDD0B9FFF740
:100DA0002CFDA120FFF7E6FDFFF76FFD90B90025B0
:100DB00008E0FFF71FFE7855701EA84201D9FFF723
:100DC0008DFD6D1CB542F4D3FFF7AEFDFFF731FD8D
:100DD0000020CDE7FFF72DFDA8F1010000F0FF088E
:100DE000B8F1000F03D1012001490870C0E7C2E744
:100DF0000400001070B504460D46164601F015FFBC
:100E000005F01F0141EA040001F0B9FE304601F08F
:100E1000B6FE01F020FF70BD70B505460C4601F02E
:100E200004FF04F01F0141EA050001F0A8FE01F0F3
:100E3000B4FE064604F0800010B101F0AEFE064696
:100E400001F009FF304670BD70B505460E4601F051
:100E5000ECFE3A2001F093FE002404E001F09DFE38
:100E60003055601C84B2AC42F8DB01F0F4FE70BD7A
:100E700070B505460E4601F0D8FE7A2001F07FFEDF
:100E8000002404E0305D01F07AFE601C84B2AC42C4
:100E9000F8DB01F0E0FE70BD10B5044604F0600020
:100EA000D549097888420ED003221F21A020FFF7E0
:100EB000A1FFC4F341121F218020FFF79BFF04F024
:100EC0006000CD49087010BD10B504462046FFF7FC
:100ED000E3FF21460020FFF79FFF10BD70B50446D9
:100EE0000D462046FFF7D8FF2A4621464020FFF74F
:100EF00081FF70BD10B5C1484179E120FFF7EEFFD9
:100F0000BE480179E020FFF7E9FFBC48C178E32043
:100F1000FFF7E4FFB9488178E220FFF7DFFFB74829
:100F20004178E520FFF7DAFFB4480178E420FFF7C5
:100F3000D5FF10BD70B505460C4600BFEA20FFF78F
:100F4000C3FF00F001000028F8D12946D420FFF7A4
:100F5000C5FFE1B2D620FFF7C1FF2112D720FFF76E
:100F6000BDFF00BFEA20FFF7AFFF00F0010000283F
:100F7000F8D170BD10B50024FF2200211046FFF704
:100F800039FF0A2004F0B3FD0FE01D20FFF79CFF9E
:100F900000F0010000B109E0052004F0A8FD641C88
:100FA000B4F5C87F01D9002400E0EEE700BF0422B9
:100FB0001F21A020FFF71EFF4FF4C060904908805A
:100FC00000210820FFF78AFF06210920FFF786FF8E
:100FD00000210C20FFF782FF06210D20FFF77EFF86
:100FE000FF210A20FFF77AFF1F210B20FFF776FF72
:100FF00000210420FFF772FF00210520FFF76EFF9C
:101000000D21C020FFF76AFF0021C120FFF766FF16
:101010003322C2218020FFF7EDFE1221C620FFF708
:101020005DFF1521C420FFF759FFEE21CA20FFF70D
:1010300055FF0521CB20FFF751FFFFF75BFF4FF472
:1010400080710020FFF776FF1F20FFF725FFC022E9
:101050001B218020FFF7CEFE04221F218020FFF7F6
:10106000C9FE10BD70B505461C20FFF72DFF00F02E
:10107000010018B1FFF77EFF002070BD1C20FFF7B4
:1010800023FF00F0400008B90020F6E75C48008824
:10109000B0F5C06F04DB5A480088B0F5005F03DB91
:1010A000FFF768FF0020E8E7554801780020FFF7C8
:1010B00015FF5348008801120120FFF70FFF0021A0
:1010C0003A20FFF7A9FE4E49088000213A20FFF799
:1010D000A3FE4B49098841EA0020494908800021C4
:1010E0003A20FFF799FE044600213A20FFF794FECC
:1010F00044EA002400213A20FFF78EFE0646002134
:101100003A20FFF789FE46EA0026B4F5407F02DC6C
:1011100006F0300088B13A4801780C20FFF7DEFE77
:101120003748008801120D20FFF7D8FE40221E210B
:101130008020FFF75FFE00209FE729462046FFF74B
:1011400083FE2F4801780C20FFF7C8FE2C4800884A
:1011500001120D20FFF7C2FE40221E218020FFF762
:1011600049FEA4F10E0080B287E770B506460C4632
:101170003C2C08DA254603E000207055681C85B237
:101180003C2DF9DB3C2400210220FFF7A7FE0021C3
:101190000320FFF7A3FEE1B20620FFF79FFEC4F392
:1011A00007210720FFF79AFE0E2200217A20FFF781
:1011B00021FE31462046FFF75BFE08221F218020DA
:1011C000FFF718FE00BF1C20FFF77EFE00F00800AE
:1011D0000028F8D008221C21A020FFF70BFE1C20BD
:1011E000FFF772FE00F0020020B102221C21A020B5
:1011F000FFF700FE70BD000006000010A800001000
:101200000800001070B504460025204601F0B7FC28
:101210000546284670BD10B5A520FFF7F3FF10BDA9
:101220002DE9F041002400250026002701F0C3FC31
:101230009F20FFF7E7FFA520FFF7E4FF0546A52065
:10124000FFF7E0FF0646A520FFF7DCFF0746A520D5
:10125000FFF7D8FF804601F0C4FC280640EA0640AC
:1012600040EA072040EA08042046BDE8F08170B556
:101270000024002501F09FFC0520FFF7C3FF044672
:1012800004F0800028B10120FFF7BCFF0020FFF729
:10129000B9FFFFF7C5FF054601F0A3FC002070BDB4
:1012A00001460020704710B5002401F084FC0520A1
:1012B000FFF7A8FF00BF0520FFF7A4FF0446032C9B
:1012C000F9D001F08EFC10BD10B501F074FC0620C1
:1012D000FFF798FF01F085FCFFF7E5FF10BD10B5A3
:1012E00001F069FC0420FFF78DFF01F07AFCFFF7A5
:1012F000DAFF10BD70B504460025FFF791FF0546E3
:10130000A54201D1002070BD4FF0FF30FBE710B5C2
:101310000446FFF7D9FF01F04EFC2020FFF772FFD3
:10132000C4F30740FFF76EFFC4F30720FFF76AFF1F
:10133000E0B2FFF767FF01F054FCFFF7B4FF10BD08
:1013400010B50446FFF7C0FF01F035FCD820FFF7C9
:1013500059FFC4F30740FFF755FFC4F30720FFF719
:1013600051FFE0B2FFF74EFF01F03BFCFFF79BFFA0
:1013700010BD10B5FFF7A8FF01F01DFCC720FFF757
:1013800041FF01F02EFC10BD70B505460C46164617
:10139000FFF79AFF01F00FFC0220FFF733FFC4F3C1
:1013A0000740FFF72FFFC4F30720FFF72BFFE0B242
:1013B000FFF728FF03E02878FFF724FF6D1C3000BB
:1013C000A6F101018EB2F6D101F00BFCFFF76BFF25
:1013D00070BD2DE9F05F07460E4614464FF0000938
:1013E000C846C2460025AB463019B0F5000F01D300
:1013F000BDE8F09F06F0FF0ACAF580752046E117A8
:1014000004EB11614FEA2129E11704EB1161091284
:10141000A4EB0128BAF1000F1FD1B9F1000F05D1DB
:10142000224631463846FFF7AFFF5FE009E04FF450
:10143000807231463846FFF7A7FF06F5807607F53C
:1014400080775FEA0900A9F10109F0D11FFA88F25B
:1014500031463846FFF798FF48E0B9F1000F17D141
:10146000A8450FD9A8EB050BAAB231463846FFF7BD
:101470008BFF2E442F441FFA8BF231463846FFF77C
:1014800083FF33E0224631463846FFF77DFF2DE0EB
:10149000601B84B22046E11704EB11614FEA212959
:1014A000E11704EB11610912A4EB0128AAB231463D
:1014B0003846FFF769FF2E442F4409E04FF480724D
:1014C00031463846FFF760FF06F5807607F58077EE
:1014D0005FEA0900A9F10109F0D1B8F1000F05D0C8
:1014E0001FFA88F231463846FFF74EFF00BF7FE70C
:1014F00070B505460C46164601F05DFB0320FFF76C
:1015000081FEC4F30740FFF77DFEC4F30720FFF719
:1015100079FEE0B2FFF776FE04E0A520FFF772FE49
:1015200028706D1C3000A6F101018EB2F5D101F0DA
:1015300058FB70BD70B505460C46164601F03BFBE6
:101540000B20FFF75FFEC4F30740FFF75BFEC4F319
:101550000720FFF757FEE0B2FFF754FEFF20FFF72A
:1015600051FE04E0A520FFF74DFE28706D1C3000F1
:10157000A6F101018EB2F5D101F033FB70BD2DE96A
:10158000F84F81460F46164600200090804682465E
:1015900000240025DFF8ACB04FEA1738C7F30B0A78
:1015A000CAF58054A64200DC344645E04FEA0831D3
:1015B0004FF480525846FFF7BDFF002508E00AEBC4
:1015C00005001BF80000FF2800D003E0681C85B26E
:1015D000A542F4DB00BFA54217DA4FEA0830FFF757
:1015E00096FE002507E019F8050005EB0A010BF847
:1015F0000100681C85B2A542F5DB4FEA08314FF4C3
:1016000080525846FFF7E5FE04E022463946484638
:10161000FFF7DFFEA64200D10FE008F101084FF00E
:10162000000AA1442744301B86B2B6F5805F02DD74
:101630004FF4805400E03446B8E700BF0098BDE89E
:10164000F88F00009809001069480068694908404F
:10165000674908606848006820F47F606649086050
:101660006348406A20F040706149486262488030B7
:10167000006840F080506049C1F880000846D0F80A
:101680009C0040F08050C1F89C00704710B50024C9
:101690005948406900F47F60B0F57F6F01D1204662
:1016A00010BD052004F023FA5348406900F47F6020
:1016B000B0F57F6F01D12046F2E74F48406900F452
:1016C0007F60B0F5706F32D019DCB0F50F6F46D087
:1016D0000BDCF0283BD0B0F53C7F3AD0B0F59E6FE4
:1016E00039D0B0F5DE6F42D137E0B0F52F6F38D08A
:1016F000B0F54F6F37D0B0F56F6F38D135E0B0F53A
:10170000786F1CD009DCB0F5726F12D0B0F5746F31
:1017100011D0B0F5766F2AD10FE0B0F57A6F10D006
:10172000B0F57C6F0FD0B0F57E6F20D10DE0312485
:101730001DE039241BE0352419E0AB2417E03224E6
:1017400015E0302413E0362411E0FD240FE0EF24EF
:101750000DE037240BE0F02409E0332407E0A52452
:1017600005E0382403E0FE2401E0342400BF00BF7C
:10177000204695E710B50024FFF788FF044634B9EA
:101780001E48007870B100201C4908700AE01B4810
:10179000007830B9012019490870142004F0A3F82A
:1017A00000E00024204610BD01460020A1F13002D7
:1017B0000A2A1AD2DFE802F00507090B0D0F1113F0
:1017C0001517002011E001200FE002200DE003209A
:1017D0000BE0042009E0052007E0062005E00720D3
:1017E00003E0082001E0092000BF00BF70470000AF
:1017F00000C00240FF0000FF00C009200A000010E6
:101800001848C06920F440201649C8611648006E87
:1018100040F00070144908660846806F40F0007080
:10182000886770470F48C06920F440100D49C861AF
:101830000D48006E40F080600B4908660846C06F96
:1018400040F08060C86770470648006920F4405047
:10185000044908610448006C20F040000249086413
:101860007047000000C0024000C009200CB50021F4
:1018700001910BE00021009102E00099491C0091C8
:1018800000990729F9DB0199491C019101998142CD
:10189000F0D30CBD10B50446204604F028F910BD65
:1018A00010B50446204601F06AF910BD10B501F0EC
:1018B00074F90446204610BD70B50446002625463E
:1018C00001F096F96806050E45F080052846FFF7F9
:1018D000E7FFFFF7EBFF064601F0A0F90020FFF756
:1018E000C5FF304670BD70B504460E46254601F072
:1018F0007FF96806050E05F07F052846FFF7D0FF43
:101900003046FFF7CDFF01F089F90020FFF7AEFF69
:1019100070BD10B5002480210020FFF7E4FF00BF58
:1019200008E00120FFF7C8FF18B900210846FFF7BB
:10193000DAFF641C1E2CF4DB0B212A20FFF7D3FFF7
:1019400002212B20FFF7CFFF42212C20FFF7CBFFF6
:101950007F210620FFF7C7FF7F210720FFF7C3FF86
:1019600002212620FFF7BFFF5B211120FFF7BBFFFD
:1019700001211E20FFF7B7FF07212120FFF7B3FF4A
:1019800000213120FFF7AFFF10BD10B50024F8484B
:10199000806820F44000F6498860F648006A40F408
:1019A0008060F44908620846C06B40F48060C863F8
:1019B0000520FFF76FFFEF48806B40F48060ED4932
:1019C00088631920FFF766FFEA48C06B40F4806027
:1019D000E849C8630F20FFF75DFF08E00520FFF727
:1019E00059FF601CC4B2142C01DD012010BD012080
:1019F000FFF762FF0028F1D1FFF78BFF0020F5E72A
:101A000070B50920FFF758FF044644F00104214651
:101A10000920FFF768FF002507E00420FFF74CFFCF
:101A200004460CB9002070BD6D1C502DF5DB012063
:101A3000F9E770B505460E46002404E0315D02204A
:101A4000FFF751FF641CAC42F8DB70BD70B5064671
:101A5000002400250420FFF72FFF04460CB90020C6
:101A600070BD182C00DB1824002505E00220FFF7CC
:101A700023FF7055681CC5B2A542F7DB2046EFE78F
:101A8000024611785378022909D0042907D0052984
:101A900005D0082903D0532901D0032902D10BB95D
:101AA000012070470020FCE72DE9F0478046894679
:101AB000144600210120FFF716FFFFF7A1FF49465A
:101AC0004046FFF7B6FF21460120FFF70CFF002537
:101AD0000FE00120FFF7F0FE06460720FFF7ECFEBF
:101AE00000F080070EB1802F02D10120BDE8F08701
:101AF0006D1C502DEDD30020F8E770B505469E48CB
:101B0000057007210F20FFF7EEFE03212220FFF7CB
:101B1000EAFE0920FFF7D0FE044604F0F704214650
:101B20000920FFF7E0FE1E2293490120FFF7BCFFCA
:101B300004460CB9012070BD8F48FFF787FF8E481F
:101B4000FFF79EFF0446012C08D18B4800788B4993
:101B500008708948407848700020ECE71520EAE7D3
:101B60000022002104E08648405C4240481CC1B28B
:101B70000529F8DB0AB9012070470020FCE7F0B521
:101B800003460C4615465BB954B9002005E07A4E71
:101B9000365C7B4F3E54461CF0B2A842F7DB4CE06B
:101BA000754E31785E1E764FBA5D082C2CD2DFE878
:101BB00004F004080D12171C212600225E1CF3B24B
:101BC00023E001F0FE0102F001021EE001F0FC0141
:101BD00002F0030219E001F0F80102F0070214E03C
:101BE00001F0F00102F00F020FE001F0E00102F05D
:101BF0001F020AE001F0C00102F03F0205E001F01F
:101C0000800102F07F0200E000BF00BF5A4E317039
:101C100042EA01065F1EDFF868C10CF80760012088
:101C200009E0554E375C5E1E0644DFF854C10CF8DF
:101C30000670461CF0B2A842F3DBF0BD70B5054655
:101C40000C46052D18D2DFE805F003070B0F130033
:101C500020204949487010E03020474948700CE086
:101C600040204549487008E050204349487004E04E
:101C700060204149487000E000BF00BF082C57D2E7
:101C8000DFE804F00409141F2A35404B00210F201F
:101C9000FFF729FE4DE011210F20FFF724FE364803
:101CA000407840F001003449487042E022210F2082
:101CB000FFF719FE3048407840F002002E49487086
:101CC00037E033210F20FFF70EFE2B48407840F01D
:101CD0000300294948702CE044210F20FFF703FE40
:101CE0002548407840F004002349487021E0552100
:101CF0000F20FFF7F8FD2048407840F005001E490E
:101D0000487016E066210F20FFF7EDFD1A48407875
:101D100040F00600184948700BE077210F20FFF7CC
:101D2000E2FD1548407840F007001349487000E094
:101D300000BF00BF70BD2DE9F0410027B846002567
:101D400063212320FFF7CFFD3F211220FFF7CBFDBA
:101D50009320094908702020487003212220FFF7B2
:101D6000C2FD1E2204490220FFF79EFE04465FE0EA
:101D700000C0024000C00920981900100B0000109C
:101D80000D00001014B90120BDE8F0810420FFF718
:101D900093FD04460CB90C20F6E7F848FFF756FE11
:101DA000224641463846FFF7EAFE0A20FFF784FD47
:101DB000044604F001043CB9FFF7D2FE04460CB916
:101DC0000820E1E70020DFE70B20FFF775FD044660
:101DD0002046E11704EB5171CF10E11704EB51716C
:101DE000C910A4EBC10101F0FF089320E34908707A
:101DF0007919C8B24146FFF721FFE819C5B200269C
:101E000006E0DF48815DDD4AB01C1154701CC6B28B
:101E1000681C8642F5DBB8F1000F01D0C7B200E0C4
:101E20002F46B91CC8B21E22D449FFF73DFE044616
:101E3000A8E770B563212320FFF755FD3F2112204D
:101E4000FFF751FD9320CD490870702048700025A0
:101E500006E0CB48415DC94AA81C1154681CC5B2B4
:101E6000052DF6DB0F212220FFF73DFD1E22C34981
:101E70000720FFF719FE04460CB9012070BD0A20A7
:101E8000FFF71AFD044604F00200022801D10520E4
:101E9000F4E704F00400042801D11420EEE704F074
:101EA0000800082801D10220E8E70420FFF704FD1C
:101EB0000446012C01D00C20E0E7B048FFF7C6FD36
:101EC000AE4804780020D9E770B502460B460021E1
:101ED0000025002400BF12E0505C00F00F05505CAC
:101EE0000411E84345EA0010012606EB4106985527
:101EF000E04344EA001003F81100481CC1B206296F
:101F0000EADB002070BD7FB50546002000900190FF
:101F10000290039069462846FFF7D6FF19226946CA
:101F20000C20FFF7C1FD044614B9132004B070BDA6
:101F30000A20FFF7C1FC00F04004402C01D104202E
:101F4000F4E70020F2E72DE9F04781460D461746F9
:101F5000202D07DBA5F1200000F0FF08202000EB7A
:101F60008800C5B263212320FFF7BDFC3F2112206A
:101F7000FFF7B9FC602F04D0612F02D00420BDE828
:101F8000F0877E480770032000EB85007B4948708E
:101F9000002606E019F80610B01C784A1154701C8F
:101FA000C6B2042EF6DB0F212220FFF79CFC0C2288
:101FB00072490620FFF778FD04460CB99920DEE748
:101FC0000A20FFF779FC044604F00200022801D140
:101FD0000520D4E704F00400042801D11420CEE742
:101FE00004F00800082801D10220C8E71422634940
:101FF0000020FFF759FD04460CB98820BFE70A20EE
:10200000FFF75AFC044604F00200022801D1052023
:10201000B5E704F00400042801D11420AFE704F070
:102020000800082801D10220A9E70920FFF744FC95
:1020300082460AF0080ABAF1080F01D100209EE793
:1020400004209CE770B505460E4663212320FFF768
:102050004AFC3F211220FFF746FC3F211320FFF7E7
:1020600042FC0F212220FFF73EFC302028706E70CA
:102070001E2229460220FFF717FD04460CB9012055
:1020800070BD0A20FFF718FC044604F00200022885
:1020900001D10520F4E704F00400042801D1142044
:1020A000EEE704F00800082801D10220E8E7042048
:1020B000FFF702FC0446102C04D12846FFF7C6FCAB
:1020C0000020DDE7042C04D12846FFF7BFFC0020E8
:1020D000D6E70C20D4E7FEB506460F466321232041
:1020E000FFF701FC3F211220FFF7FDFB6D460721A2
:1020F0002220FFF7F8FBA02028706F701E222946CF
:102100000220FFF7D1FC04460CB90120FEBD0420DB
:10211000FFF7D2FB04460CB90C20F7E72846FFF77F
:1021200095FC2C78042C0BD003DC3CB1012C0ED197
:1021300009E0052C09D00A2C09D103E00A20E5E7C3
:102140000320E3E705E00220E0E70520DEE70F20BB
:10215000DCE700BF1E2231461020FFF7A5FC044635
:10216000012C01D10020D1E70A20FFF7A5FB04468E
:1021700004F00200022805D10520C7E798190010D5
:102180000D00001004F00400042801D11420BDE764
:1021900004F00800082801D10220B7E70F20B5E7B6
:1021A00010B563212320FFF79EFB3F211220FFF78C
:1021B0009AFB03212220FFF796FB5020FA49087072
:1021C000002048701A220220FFF76EFC0446012C02
:1021D00001D1002010BD0A20FFF76EFB044604F079
:1021E0000200022801D10520F4E704F004000428CD
:1021F00001D11420EEE70120ECE72DE9F04106467D
:102200000F4663212320FFF76EFB3F211220FFF7CB
:102210006AFB341DC1202070677007212220FFF760
:1022200062FB1E2221460220FFF73EFC054615B93F
:102230000120BDE8F0810420FFF73EFB05460DB903
:102240000C20F6E72046FFF701FC2578042D0BD083
:1022500003DC3DB1012D0ED109E0052D09D00A2D79
:1022600009D103E00A20E4E70320E2E705E00220C9
:10227000DFE70520DDE71020DBE700BF1A2231464B
:102280000420FFF711FC05460DB91020D1E700200E
:10229000CFE72DE9F04106460F4663212320FFF7E3
:1022A00022FB3F211220FFF71EFB341DC0202070AF
:1022B000677007212220FFF716FB1E22214602200D
:1022C000FFF7F2FB054615B90120BDE8F0810420B7
:1022D000FFF7F2FA05460DB90C20F6E72046FFF7A6
:1022E000B5FB2578042D0BD003DC3DB1012D0ED1BB
:1022F00009E0052D09D00A2D09D103E00A20E4E701
:102300000320E2E705E00220DFE70520DDE71120FA
:10231000DBE700BF1A2231460420FFF7C5FB054664
:102320000DB91120D1E70020CFE770B50646632133
:102330002320FFF7D8FA3F211220FFF7D4FA072114
:102340002220FFF7D0FAC22097490870084646704D
:102350001E220220FFF7A8FB04460CB9012070BD25
:102360000420FFF7A9FA04460CB90C20F7E78E48C1
:10237000FFF76CFB8C480478042C0BD003DC3CB1D9
:10238000012C0ED109E0052C09D00A2C09D103E05B
:102390000A20E4E70320E2E705E00220DFE705206A
:1023A000DDE70D20DBE700BF002504E000207E49CB
:1023B0004855681CC5B2042DF8DB1A227A4904205E
:1023C000FFF772FB04460CB90D20C8E70020C6E7F2
:1023D00070B5054663212320FFF785FA3F211220BF
:1023E000FFF781FA07212220FFF77DFAB0206E491E
:1023F0000870084645701E220220FFF755FB044670
:102400000CB9012070BD0420FFF756FA04460CB940
:102410000C20F7E76448FFF719FB63480478042CA5
:102420000BD003DC3CB1012C0FD10AE0052C0AD003
:102430000A2C0AD103E00A20E4E70320E2E70020A7
:10244000E0E70220DEE70520DCE70E20DAE72DE9F1
:10245000F04105460F4690461E46FFF7A1FE262096
:10246000FFF74BFB044614B11520BDE8F081FFF7E0
:1024700062FC04460CB11720F7E7042229464B48BA
:1024800012F0D8FC08B1FF20EFE7FFF7D2FC0446BA
:102490000CB11620E9E73046FFF735FD42463946D4
:1024A0002846FFF750FD04460CB10420DDE700206C
:1024B000DBE710B5002400BF09E05220FFF71DFB49
:1024C00008B9002010BDFFF76BFE601CC4B2032CDE
:1024D000F3DBFF20F6E770B50446002500BF11E0EE
:1024E0005220FFF70AFB38B9FFF725FC38B92F480F
:1024F00000682060002070BDFFF752FE00E000BFC2
:10250000681CC5B2032DEBDBFF20F4E770B5002596
:10251000002400BF10E05220FFF7EFFA30B9FFF7B8
:102520000AFC30B921480568284670BDFFF738FE1F
:1025300000E000BF601CC4B2032CECDB2846F4E7CB
:102540002DE9F04706460C4691461F46DDF820A0CF
:102550000025402C02DDFF20BDE8F087002532E099
:102560005220FFF7CAFA00B12BE0FFF7E4FB00B1FD
:1025700027E0042231460D4812F05CFC00B120E057
:10258000FFF757FC00B11CE03846FFF7BCFC00B178
:1025900017E0E01704EB9070C0F387014A4630461D
:1025A000FFF7D1FC20B10CE0981900100D000010CD
:1025B00021465046FFF746FD00B102E0FFF7F0FD6F
:1025C00003E0681CC5B2032DCADB00BF032D01D197
:1025D000FF20C1E70020BFE72DE9F04706460C4683
:1025E00091461F46DDF820A000250CB1402C02DBEF
:1025F000FF20BDE8F08700252EE05220FFF77DFA8E
:1026000000B127E0FFF797FB00B123E00422314639
:10261000B64812F00FFC00B11CE0FFF70AFC00B155
:1026200018E03846FFF76FFC00B113E0E01704EB49
:102630009070C0F387014A463046FFF784FC00B132
:1026400008E021465046FFF746FD00B102E0FFF7E3
:10265000A7FD03E0681CC5B2032DCEDB00BF032D30
:1026600001D1FF20C5E70020C3E72DE9FC4707465D
:102670000C46914698460A9EFF220621684612F0B3
:10268000BFFC102C02DDFF20BDE8FC8700253EE0EA
:102690005220FFF732FA00B138E0FFF74CFB00B1EF
:1026A00034E004223946914812F0C4FB00B12DE019
:1026B000FFF7BFFB00B129E04046FFF724FC00B163
:1026C00024E04A4621463846FFF73DFC00B11DE0B4
:1026D000A006010E3046FFF7B5FC00B116E0012060
:1026E00000EB8400C1B206F11000FFF7ABFC00B1B3
:1026F0000CE0022000EB8400C1B206F12000FFF7DD
:10270000A1FC00B102E0FFF74BFD02E06D1C032DC0
:10271000BED300BF032D01D1FF20B5E70020B3E7F2
:102720002DE9F04707460C4691469846089E102C26
:1027300002DDFF20BDE8F08700253EE05220FFF7D4
:10274000DCF900B138E0FFF7F6FA00B134E004221A
:102750003946664812F06EFB00B12DE0FFF769FBC9
:1027600000B129E04046FFF7CEFB00B124E04A4625
:1027700021463846FFF7E7FB00B11DE0A006010E39
:102780003046FFF7A8FC00B116E0012000EB840002
:10279000C1B206F11000FFF79EFC00B10CE0022070
:1027A00000EB8400C1B206F12000FFF794FC00B1F9
:1027B00002E0FFF7F5FC02E06D1C032DBED300BF65
:1027C000032D01D1FF20B5E70020B3E72DE9F05F2D
:1027D00080460C4691469A46DDF828B00025002632
:1027E000402C02DDFF20BDE8F09F00250FE02746CA
:1027F000E01704EB9070C0F3870153464A46404609
:10280000FFF725FE064606B903E0681CC5B2032D96
:10281000EDDB00BF032D01D13046E4E721465846E9
:10282000FFF7EBFC06462046FFF7D2FD3046DAE71D
:102830002DE9F05F80460C4691469A46DDF828B0B7
:1028400000250026402C02DDFF20BDE8F09F00257A
:102850000FE02746E01704EB9070C0F38701534662
:102860004A464046FFF7F3FD064606B903E0681CFA
:10287000C5B2032DEDDB00BF032D01D13046E4E7E7
:1028800021465846FFF705FD06462046FFF7A0FD06
:102890003046DAE72DE9F04780460C4691469A46E5
:1028A00000250026402C02DDFF20BDE8F087002532
:1028B0000FE02746E01704EB9070C0F38701534602
:1028C0004A464046FFF7C3FD064606B903E0681CCA
:1028D000C5B2032DEDDB00BF032D01D13046E4E787
:1028E0002046FFF722FD06463046DEE70D000010C9
:1028F00001460A2291FBF2F302FB13120A2391FB19
:10290000F3F302EB0312D0B27047014601F00F025D
:102910000B0903EB830302EB4302D0B27047F0B51F
:10292000034600240C2B03DB11B10AB10C2902DD94
:1029300001242046F0BD022924D103F5FA60C51711
:1029400000EB9575AD10A0EB850535B905466426FD
:1029500095FBF6F706FB175545B903F5FA654FF4F5
:10296000C87695FBF6F706FB17552DB91D2A01DD34
:10297000012428E0002426E01C2A01DD012422E0B5
:10298000002420E001290BD0032909D0052907D014
:10299000072905D0082903D00A2901D00C2905D11F
:1029A0001F2A01DD01240EE000240CE0042905D0DB
:1029B000062903D0092901D00B2904D11E2A01DDE3
:1029C000012400E000242046B4E710B503460020AF
:1029D000182B04DA3C2902DA3C2A00DA00E0012054
:1029E00010BDF0B50346012901D0022901D10C31F7
:1029F0005B1E4D1C05EB4505052695FBF6F6551CA3
:102A0000022707FB015535441D441846DE1703EB2A
:102A1000967605EBA605642693FBF6F6AD1B4FF400
:102A2000C87693FBF6F63544072695FBF6F706FBCA
:102A300017542046F0BD00202F490872FF2008746B
:102A4000002008730320087011200872704710B529
:102A500001460020284A928F642392FBF3F403FB83
:102A600014220A70244A92F838204A70224A92F8B6
:102A70002C208A70204A92F82820CA701E4A92F8A8
:102A800024200A711C4A92F820204A711A4A92F8AE
:102A900030208A7110BD014600208A79072A01D1B1
:102AA00000228A710A78144B9A874A78124B38337D
:102AB0001A708A78104B2C331A70CA781B1F1A7040
:102AC0000A791B1F1A704A791B1F1A708A790A4BE0
:102AD00083F8302070470146074A0A4492F84400C0
:102AE000704710B5044B03445A6C22F0FF030B44AB
:102AF000014C0444636410BD004002406848006813
:102B000040F04040664908600846406840F03C009C
:102B1000486010206349C8602020086060488068D1
:102B200020F440705E4988605F48006A40F0100001
:102B30005D4908625A48806820F4402058498860FE
:102B40005948006A40F40070574908625448806848
:102B500020F00300524988605348006A40F00100A9
:102B6000514908624E48806820F440304C498860E2
:102B70004D48006A40F480704B4908627047014636
:102B80004848816000BF4748406800F08000002846
:102B9000F9D044488068C0B270470020414988603D
:102BA00000BF4048406800F080000028F9D03D4850
:102BB0008068C0B270473C48C06B40F010003A4992
:102BC000C8630846806B40F4007088630846806BD9
:102BD00040F0010088630846806B40F48070886391
:102BE00070473148806B40F010002F498863704770
:102BF0002D48C06B40F400702B49C8630846806BB9
:102C000040F0100088630846806B40F00100886344
:102C10000846806B40F48070886370472248806B60
:102C200040F400702049886370471F48C06B40F033
:102C300001001D49C8630846806B40F0100088639E
:102C40000846806B40F4007088630846806B40F44F
:102C50008070886370471448806B40F0010012490F
:102C6000886370471048C06B40F480700E49C86399
:102C70000846806B40F0100088630846806B40F483
:102C8000007088630846806B40F0010088637047DD
:102C90000548806B40F480700349886370470000EA
:102CA00000C002400000024000C0092010B5022010
:102CB0004FF04021486001200860002008678860CC
:102CC000C8601948006880081421B0FBF1F04FF08B
:102CD0004021886103204861012000F01AF801209A
:102CE0004FF04021486010BD10B501200121814006
:102CF0000E4A430942F8231000BF4FF040210860FC
:102D00000B480068401C0A490860012000F001F8E7
:102D100010BD00F01F02012191404209920002F112
:102D2000E022C2F8001170470000001080E100E0CE
:102D3000140000100120810708610848006880081D
:102D4000486003200870AA20087255200872704756
:102D5000AA20410708725520087270470000001031
:102D6000FE49C96D41F40051FC4AD1651146C96D57
:102D700041F48051D1651146096AF94A1143F74A75
:102D8000116201049163C143C8B20104D1631146C9
:102D9000C96941F00101D1611146896941F0010120
:102DA00091611146896D41F4005191657047EB497D
:102DB000C96D41F40051E94AD1651146896D41F46C
:102DC000805191651146096AE54A1143E34A11624F
:102DD00001049163C14388B20104D1631146C969FA
:102DE00041F00101D1611146896941F00101916110
:102DF0001146896D41F400519165704710B5044644
:102E00000B462046FFF7ACFF1846FFF7D0FF10BD7A
:102E100010B50146D148C06D40F40050CF4CE0657C
:102E20002046C06D40F48050E0652046006ACC4CDE
:102E30002043CA4C20620804A063C843C1B20804FE
:102E4000E0632046C06940F00100E06120468069EF
:102E500040F00100A0612046806D40F48050A065E4
:102E6000BF48A0632046006A80B220622046C06945
:102E700040F00200E0612046806940F00200A0615D
:102E80002046C06940F00200E0612046436B806943
:102E900040F00200A061C3F307422046806D40F479
:102EA0000050A065104610BD10B5AE48006820F077
:102EB0000300AC490860A948006840F00100A74938
:102EC0000860A848006820F00C00A6490860A348E4
:102ED000006840F00200A1490860A248006920F49F
:102EE0004010A04908619D48006C40F480609B49F7
:102EF00008649C48006920F440009A49086197489A
:102F0000006C40F40060954908649648006920F020
:102F10004070944908619148006C40F480508F499A
:102F200008649048006920F040608E4908618B4831
:102F3000006C40F40050894908640846806D40F4F4
:102F4000806088650846806940F002008861084614
:102F5000806940F0010088610846806D40F40050AF
:102F600088650846806D40F4805088650846806D0D
:102F700040F4006088650846806D40F48060886594
:102F8000012002F0B4FD7548C06D40F480607349C3
:102F9000C865642002F0ABFD7048806D40F480602D
:102FA0006E498865782002F0A2FDCF20FFF7D8FE99
:102FB0000020FFF7FCFEAA20FFF7F9FEE020FFF754
:102FC000F6FEED20FFF7CCFE6720FFF7F0FE0320B2
:102FD000FFF7EDFE1220FFF7EAFE8120FFF7E7FE84
:102FE000E820FFF7BDFE8520FFF7E1FE1120FFF787
:102FF000DEFE7820FFF7DBFECB20FFF7B1FE3920A5
:10300000FFF7D5FE2C20FFF7D2FE0020FFF7CFFE02
:103010003420FFF7CCFE0220FFF7C9FEF720FFF7B0
:103020009FFE2020FFF7C3FEEA20FFF799FE002055
:10303000FFF7BDFE0020FFF7BAFEC020FFF790FEAD
:103040002120FFF7B4FEC120FFF78AFE1120FFF711
:10305000AEFEC520FFF784FE2420FFF7A8FE3C202B
:10306000FFF7A5FEC720FFF77BFEB720FFF79FFE07
:103070003620FFF775FE8820FFF799FE3A20FFF70C
:103080006FFE5520FFF793FEF220FFF769FE002048
:10309000FFF78DFE2620FFF763FE0120FFF787FE76
:1030A000B720FFF75DFE0620FFF781FEE020FFF767
:1030B00057FE0F20FFF77BFE1B20FFF778FE19203D
:1030C000FFF775FE0C20FFF772FE0D20FFF76FFE75
:1030D0000720FFF76CFE4420FFF769FEA920FFF7E9
:1030E00066FE2F20FFF763FE0820FFF760FE0D202D
:1030F000FFF75DFE0320FFF75AFE1020FFF757FE93
:103100000B20FFF754FE0020FFF751FEE120FFF7F0
:1031100027FE0020FFF74BFE2420FFF748FE262065
:10312000FFF745FE0320FFF742FE1220FFF73FFEA8
:103130000820FFF73CFE3C20FFF739FE5620FFF742
:1031400036FE5020FFF733FE0720FFF730FE122037
:10315000FFF72DFE0C20FFF72AFE05E000C0092036
:103160000000FFFF00C002402F20FFF720FE3420A8
:10317000FFF71DFE0F20FFF71AFE1120FFF7F0FDED
:10318000782002F0B4FC2920FFF7EAFD2C20FFF79D
:10319000E7FD10BD00B52820FFF7E2FD1020FFF786
:1031A000DFFD00BD10B51120FFF7DAFD782002F039
:1031B0009EFC2920FFF7D4FD10BD00B52C20FFF7A1
:1031C000CFFD00BD00B503461846FFF7F0FD00BD7A
:1031D00000B52920FFF7C4FD00BD00B52820FFF78A
:1031E000BFFD00BD70B504460D4616462A20FFF708
:1031F000B7FD200AFFF7DBFDE0B2FFF7D8FD280A94
:10320000FFF7D5FDE8B2FFF7D2FD2B20FFF7A8FDB1
:10321000300AFFF7CCFDF0B2FFF7C9FD180AFFF73F
:10322000C6FDD8B2FFF7C3FD2C20FFF799FD70BD96
:1032300030B50446002540F23F130022EF2110462E
:10324000FFF7D0FFFFF7B9FFF748C06D40F400501B
:10325000F549C8650846806D40F480508865084689
:10326000006AF2490843F049086200BF0FE0EF48E6
:10327000ED49C863200488630846C06940F0010036
:10328000C8610846806940F0010088616D1CB5F591
:10329000963FECD3E448806D40F40050E2498865E5
:1032A00030BD2DE9F04706460C4615461F46DDF8B1
:1032B00020904FF000083B46224629463046FFF753
:1032C00091FFFFF77AFFD848C06D40F40050D6490F
:1032D000C8650846806D40F4805088650846006ADD
:1032E000D2490843D0490862A81B401C391B491C1D
:1032F00048434FEA400A00BF11E0CC48CA49C863BE
:103300004FEA094088630846C06940F00100C8617F
:103310000846806940F00100886108F10108D04545
:10332000EBD3C148806D40F40050BF49886540F23E
:103330003F130022EF211046FFF754FFBDE8F0874E
:1033400070B505460C4616462346224629462846B1
:10335000FFF748FF2C20FFF703FD3046FFF727FD5E
:1033600070BD2DE9FF4F84B081468A46002002904F
:1033700083460698A0EB09050798A0EB0A06CDF84E
:103380000490CDF800A0002D01DD012705E00DB966
:10339000002702E04FF0FF376D42002E02DD4FF0B4
:1033A000010806E016B94FF0000802E04FF0FF38C0
:1033B0007642B54201DD2C4600E034460020039001
:1033C0001EE0009A91B2019A90B2119AFFF7B8FFED
:1033D000029828440290B3440298A04205DD029866
:1033E000001B0290019838440190A34504DDABEB2B
:1033F000040B0098404400900398401C80B2039056
:10340000611C03988842DCDD08B0BDE8F08F2DE92F
:10341000F84105460E4617469846079C33463A46FD
:10342000314628460094FFF79CFF43462A46314622
:1034300028460094FFF795FF43463A464146284602
:103440000094FFF78EFF43463A46314638460094D3
:10345000FFF787FFBDE8F8812DE9F04706460F46E4
:1034600090469A46002445460320A0EB480952E0C6
:103470003A1B91B2721B90B25246FFF761FF3A1BA2
:1034800091B2721990B25246FFF75AFF7A1991B26F
:10349000321B90B25246FFF753FF3A1B91B2721B98
:1034A00090B25246FFF74CFF7A1B91B2321B90B29A
:1034B0005246FFF745FF3A1991B2721990B252463F
:1034C000FFF73EFF7A1B91B2321990B25246FFF7D6
:1034D00037FF7A1991B2321990B25246FFF730FF96
:1034E0003A1991B2721B90B25246FFF729FF641C41
:1034F000B9F1000F03DAA000801D814404E0601BD5
:1035000080000A3081446D1E7A1991B2321990B24E
:103510005246FFF715FFAC42AADDBDE8F0877047C1
:1035200070472DE9F04780468946924698F800405A
:1035300098F801700C209AFBF0F100FB11A0002814
:103540005BD198F800005030C0B2482805DC98F8EC
:1035500000005030C0B2482812D1354D202C08DB75
:103560007E2C06DCA4F1200000EB400005EB800679
:1035700000E02E460C223146484604F011F99BE04B
:103580002C4DA12C12DBA32C10DCA12F0EDBA7F1FC
:10359000A100A4F1A101C1EB011202EB411100EB6A
:1035A000410000EB400005EBC00620E0A92C08D14B
:1035B000A12F06DB07F1790000EB400005EBC00608
:1035C00015E0B02C13DBF72C11DCA12F0FDBA7F1DA
:1035D000A100A4F1B001C1EB011202EB411100EB1B
:1035E000410000F5BC7000EB400005EBC00618225E
:1035F0003146484604F0D4F85EE098F800005030B8
:10360000C0B2482805DC98F800005030C0B2482805
:103610001BD1094D202C11DB7E2C0FDCA4F12000E6
:1036200005EB00160BE0000000C009200000FFFFC2
:10363000406D060080CF0300C0B703002E46102265
:103640003146484604F0ACF836E00025A42C05DBF2
:10365000A82C03DCA12F01DB2E4628E0A12C10DBD7
:10366000A92C0EDCA12F0CDBA7F1A100A4F1A10174
:10367000C1EB011202EB411100EB410005EB4016DA
:1036800015E0B02C12DBF72C10DCA12F0EDBA7F11C
:10369000A100A4F1B001C1EB011202EB411100EB5A
:1036A000410000F24E3005EB401600E02E4620228D
:1036B0003146484604F074F8BDE8F0870FB58FB086
:1036C00010980A9002A9DDE91102FFF72AFF11986C
:1036D000007880287EDA0C21129890FBF1F201FB31
:1036E0001200002877D10D9035E102A90D98085CF1
:1036F0000E9006200B9000200C9022E10C211298D5
:1037000090FBF1F0012818D10E9800F0800020B154
:10371000149ADDE90F01FFF713FE1098401E80B2E6
:10372000109010990A98401A06287DD10A98109096
:103730000F98401C80B20F9008E10C21129890FB6A
:10374000F1F0022835D10E9800F0800008B3149AE9
:10375000DDE90F01FFF7F4FD1098401E80B20190E3
:103760000146149A0F98FFF7EBFD0F98401C80B2AA
:103770000190149A1099FFF7E3FD1098401E80B253
:1037800001900F98401C80B20090149A0199FFF7A5
:10379000D7FD1098801E80B2109010990A98401A98
:1037A0000C28C2D10A9810900F98801C80B20F90FC
:1037B000CCE00E9800F0800000287DD0149ADDE95E
:1037C0000F01FFF7BDFD1098401E80B20190014629
:1037D000149A01E008E2C3E00F98FFF7B1FD1098DA
:1037E000801E80B201900146149A0F98FFF7A8FD41
:1037F0001098C01E80B201900146149A0F98FFF7EE
:103800009FFD0F98401C80B20190149A1099FFF709
:1038100097FD1098401E80B201900F98401C80B216
:103820000090149A019900E083E0FFF789FD109859
:10383000801E80B201900F98401C80B20090149AB4
:103840000199FFF77DFD1098C01E80B201900F987E
:10385000401C80B20090149A0199FFF771FD0F98F7
:10386000801C80B20190149A1099FFF769FD10989E
:10387000401E80B201900F98801C80B20090149A74
:103880000199FFF75DFD1098801E80B201900F989E
:10389000801C80B20090149A0199FFF751FD109896
:1038A000C01E80B201900F98801C80B20090149AC4
:1038B0000199FFF745FD00E02BE00F98C01C80B296
:1038C0000190149A1099FFF73BFD1098401E80B2AA
:1038D00001900F98C01C80B20090149A0199FFF7D4
:1038E0002FFD1098801E80B201900F98C01C80B2EE
:1038F0000090149A0199FFF723FD1098C01E80B222
:1039000001900F98C01C80B20090149A0199FFF7A3
:1039100017FD1098001F80B2109010990A98401A55
:10392000182806D10A9810900F98001D80B20F90A9
:103930000CE00E984006000E0E900C98401CC0B291
:103940000C90DDE90B108842FFF6D8AE00BF0D9851
:10395000401CC0B20D900D980C28FFF6C6AEDEE3F9
:1039600000200D903BE102A90D98085C0E90082004
:103970000B9000200C9028E11298C117019000EBE9
:1039800011700121B1EB201F1BD10E9800F08000B7
:1039900038B10F98C01C80B20190149A1099FFF7AB
:1039A000CFFC1098401E80B2109010990A98401ACF
:1039B00008287DD10A9810900F98401C80B20F9073
:1039C00008E11298C117019000EB11700221B1EBD0
:1039D000201F35D10E9800F0800008B3149ADDE95D
:1039E0000F01FFF7ADFC1098401E80B20190014618
:1039F000149A0F98FFF7A4FC0F98401C80B2019016
:103A0000149A1099FFF79CFC1098401E80B2019008
:103A10000F98401C80B20090149A0199FFF790FC17
:103A20001098801E80B2109010990A98401A1028A1
:103A3000BFD10A9810900F98801C80B20F90C9E0F7
:103A40000E9800F0800000287ED0149ADDE90F0166
:103A5000FFF776FC1098401E80B201900146149A40
:103A60000F98FFF76DFC1098801E80B20190014600
:103A7000149A0F98FFF764FC1098C01E80B2019052
:103A80000146149A0F98FFF75BFC0F98401C80B218
:103A90000190149A1099FFF753FC1098401E80B2C1
:103AA00001900F98401C80B20090149A019900E098
:103AB00083E0FFF745FC1098801E80B201900F98BC
:103AC000401C80B20090149A0199FFF739FC1098BD
:103AD000C01E80B201900F98401C80B20090149AD2
:103AE0000199FFF72DFC0F98801C80B20190149A69
:103AF0001099FFF725FC1098401E80B201900F9896
:103B0000801C80B20090149A0199FFF719FC10985C
:103B1000801E80B201900F98801C80B20090149A91
:103B20000199FFF70DFC1098C01E80B201900F980C
:103B3000801C80B20090149A0199FFF701FC0F9845
:103B4000C01C80B2019000E027E0149A1099FFF7A2
:103B5000F7FB1098401E80B201900F98C01C80B2F5
:103B60000090149A0199FFF7EBFB1098801E80B229
:103B700001900F98C01C80B20090149A0199FFF731
:103B8000DFFB1098C01E80B201900F98C01C80B25D
:103B90000090149A0199FFF7D3FB1098001F80B290
:103BA000109010990A98401A202806D10A9810906F
:103BB0000F98001D80B20F900CE00E984006000E8A
:103BC0000E900C98401CC0B20C90DDE90B1088429E
:103BD000FFF6D2AE00BF0D98401CC0B20D900D98FC
:103BE0001028FFF6C0AE9AE20C21129890FBF1F279
:103BF00001FB1200002871D10D903FE102A90D9840
:103C0000085C0E900D98019000EBD0704110019867
:103C1000A0EB410010B103200B9001E008200B90B5
:103C200000200C9020E10C21129890FBF1F001286B
:103C300018D10E9800F0800020B1149ADDE90F0130
:103C4000FFF77EFB1098401E80B2109010990A98E2
:103C5000401A0B287ED10A9810900F98401C80B211
:103C60000F9006E10C21129890FBF1F0022836D15A
:103C70000E9800F0800008B3149ADDE90F01FFF7F9
:103C80005FFB1098401E80B201900146149A0F9875
:103C9000FFF756FB0F98401C80B20190149A1099C0
:103CA000FFF74EFB1098401E80B201900F98401C09
:103CB00080B20090149A0199FFF742FB1098801E81
:103CC00080B2109010990A98401A1628C2D10A980A
:103CD00010900F98801C80B20F90CAE0D3E00E982D
:103CE00000F0800000287DD0149ADDE90F01FFF775
:103CF00027FB1098401E80B201900146149A0F983D
:103D0000FFF71EFB1098801E80B201900146149AA6
:103D10000F98FFF715FB1098C01E80B20190014666
:103D2000149A0F98FFF70CFB0F98401C80B201907B
:103D3000149A1099FFF704FB1098401E80B201906E
:103D40000F98401C80B20090149A0199FFF7F8FA7E
:103D5000109800E080E0801E80B201900F98401C17
:103D600080B20090149A0199FFF7EAFA1098C01EE9
:103D700080B201900F98401C80B20090149A019973
:103D8000FFF7DEFA0F98801C80B20190149A109908
:103D9000FFF7D6FA1098401E80B201900F98801C51
:103DA00080B20090149A0199FFF7CAFA1098801E09
:103DB00080B201900F98801C80B20090149A0199F3
:103DC000FFF7BEFA1098C01E80B201900F98801CB9
:103DD00080B20090149A0199FFF7B2FA0F98C01CB4
:103DE00080B200E028E00190149A1099FFF7A8FA39
:103DF0001098401E80B201900F98C01C80B20090B5
:103E0000149A0199FFF79CFA1098801E80B20190D5
:103E10000F98C01C80B20090149A0199FFF790FA95
:103E20001098C01E80B201900F98C01C80B2009004
:103E3000149A0199FFF784FA1098001F80B210902D
:103E400010990A98401A2C2806D10A9810900F98B9
:103E5000001D80B20F900CE00E984006000E0E90F0
:103E60000C98401CC0B20C90DDE90B108842FFF6A4
:103E7000DAAE00BF0D98401CC0B20D900D98182806
:103E8000FFF6BCAE4BE100200D9044E102A90D9875
:103E9000085C0E900D98019000EBD07041100198D5
:103EA000A0EB410010B107200B9001E008200B901F
:103EB00000200C9025E11298C117019000EB1170C1
:103EC0000121B1EB201F18D10E9800F0800020B125
:103ED000149ADDE90F01FFF733FA1098401E80B203
:103EE000109010990A98401A0F287DD10A981090C6
:103EF0000F98401C80B20F9008E11298C1170190F2
:103F000000EB11700221B1EB201F35D10E9800F0AB
:103F1000800008B3149ADDE90F01FFF711FA109839
:103F2000401E80B201900146149A0F98FFF708FADC
:103F30000F98401C80B20190149A1099FFF700FA74
:103F40001098401E80B201900F98401C80B20090E3
:103F5000149A0199FFF7F4F91098801E80B210901E
:103F600010990A98401A1E28BFD10A9810900F98ED
:103F7000801C80B20F90C9E00E9800F080000028ED
:103F80007ED0149ADDE90F01FFF7DAF91098401E90
:103F900080B201900146149A0F98FFF7D1F910985A
:103FA000801E80B201900146149A0F98FFF7C8F95D
:103FB0001098C01E80B201900146149A0F98FFF726
:103FC000BFF90F98401C80B20190149A1099FFF726
:103FD000B7F91098401E80B201900F98401C80B233
:103FE0000090149A019900E083E0FFF7A9F9109876
:103FF000801E80B201900F98401C80B20090149AED
:104000000199FFF79DF91098C01E80B201900F989A
:10401000401C80B20090149A0199FFF791F90F9813
:10402000801C80B20190149A1099FFF789F91098BA
:10403000401E80B201900F98801C80B20090149AAC
:104040000199FFF77DF91098801E80B201900F98BA
:10405000801C80B20090149A0199FFF771F91098B2
:10406000C01E80B201900F98801C80B20090149AFC
:104070000199FFF765F90F98C01C80B2019000E02C
:1040800027E0149A1099FFF75BF91098401E80B250
:1040900001900F98C01C80B20090149A0199FFF70C
:1040A0004FF91098801E80B201900F98C01C80B20A
:1040B0000090149A0199FFF743F91098C01E80B23E
:1040C00001900F98C01C80B20090149A0199FFF7DC
:1040D00037F91098001F80B2109010990A98401A72
:1040E0003C2806D10A9810900F98001D80B20F90BE
:1040F0000CE00E984006000E0E900C98401CC0B2CA
:104100000C90DDE90B108842FFF6D5AE00BF0D988C
:10411000401CC0B20D900D982028FFF6B7AE13B02A
:1041200000BD2DE9F84305460F4614461E46DDF84E
:1041300020804FF000095EE0B9F1000F2FD13078F8
:10414000802802DD4FF0010955E02B46324621461A
:104150003846CDF80080FFF7B1FA761C402D03D128
:10416000A4F1200084B246E0302D03D1A4F1180060
:1041700084B240E0202D03D1A4F1100084B23AE0D3
:10418000182D03D1A4F10C0084B234E0102D03D11A
:10419000A4F1080084B22EE0A01F84B22BE04FF0FF
:1041A00000092B46324621463846CDF80080FFF7FD
:1041B00085FAB61C402D03D1A4F1400084B21AE068
:1041C000302D03D1A4F1300084B214E0202D03D1AE
:1041D000A4F1200084B20EE0182D03D1A4F1180040
:1041E00084B208E0102D03D1A4F1100084B202E0E3
:1041F000A4F10C0084B2307800289DD1BDE8F8838A
:104200002DE9FF4F89B007460D46144626463A462B
:1042100001A90CA8FFF785F90C2097FBF0F100FB32
:10422000117000287DD18146CFE001A810F80980E7
:104230004FF0060B4FF0000ABFE00C2097FBF0F0A8
:10424000012810D108F0800020B121462846169A96
:10425000FFF776F8601E84B2301B06287ED1344604
:10426000681C85B2ACE00C2097FBF0F0022823D14B
:1042700008F08000B8B121462846169AFFF760F88A
:10428000601E81B22846169AFFF75AF8691C88B258
:104290002146169AFFF754F8621E91B26A1C90B23A
:1042A000169AFFF74DF8A01E84B2301B0C287CD163
:1042B0003446A81C85B283E008F0800000286BD04B
:1042C00021462846169AFFF73BF8601E81B2284621
:1042D000169AFFF735F8A01E81B22846169AFFF706
:1042E0002FF8E01E81B22846169AFFF729F8691CBC
:1042F00088B22146169AFFF723F8621E91B26A1C13
:1043000090B2169AFFF71CF8A21E91B26A1C90B2E6
:10431000169AFFF715F8E21E91B26A1C90B2169A2F
:1043200000E057E0FFF70CF8A91C88B22146169A66
:10433000FFF706F8621E91B2AA1C90B2169AFEF719
:10434000FFFFA21E91B2AA1C90B2169AFEF7F8FFC8
:10435000E21E91B2AA1C90B2169A00E025E0FEF788
:10436000EFFFE91C88B22146169AFEF7E9FF621EAC
:1043700091B2EA1C90B2169AFEF7E2FFA21E91B229
:10438000EA1C90B2169AFEF7DBFFE21E91B2EA1C1D
:1043900090B2169AFEF7D4FF201F84B2301B182863
:1043A00003D13446281D85B20AE04FEA48604FEA3F
:1043B00010680AF1010000F0FF0ADA45FFF63DAF90
:1043C00000BF09F1010000F0FF09B9F10C0FFFF681
:1043D0002CAFD8E04FF00009D1E001A810F8098017
:1043E0004FF0080B4FF0000AC1E0F91707EB11710D
:1043F0000122B2EB211F10D108F0800020B121462C
:104400002846169AFEF79CFF601E84B2301B0828CF
:104410007ED13446681C85B2ACE0F91707EB117108
:104420000222B2EB211F23D108F08000B8B121464F
:104430002846169AFEF784FF601E81B22846169A17
:10444000FEF77EFF691C88B22146169AFEF778FFB8
:10445000621E91B26A1C90B2169AFEF771FFA01EFE
:1044600084B2301B10287AD13446A81C85B281E072
:1044700008F08000002869D021462846169AFEF7E9
:104480005FFF601E81B22846169AFEF759FFA01EF4
:1044900081B22846169AFEF753FFE01E81B22846E5
:1044A000169AFEF74DFF691C88B22146169AFEF750
:1044B00047FF621E91B26A1C90B2169AFEF740FF47
:1044C000A21E91B26A1C90B2169AFEF739FFE21E44
:1044D00091B26A1C90B2169AFEF732FFA91C88B2FC
:1044E0002146169AFEF72CFF621E91B2AA1C90B2CA
:1044F000169AFEF725FFA21E91B2AA1C90B2169A38
:10450000FEF71EFFE21E91B2AA1C90B2169A00E0BE
:1045100025E0FEF715FFE91C88B22146169AFEF742
:104520000FFF621E91B2EA1C90B2169AFEF708FFC6
:10453000A21E91B2EA1C90B2169AFEF701FFE21E8B
:1045400091B2EA1C90B2169AFEF7FAFE201F84B2CE
:10455000301B202803D13446281D85B20AE04FEADB
:1045600048604FEA10680AF1010000F0FF0ADA45DE
:10457000FFF63BAF00BF09F1010000F0FF09B9F100
:10458000100FFFF62AAF0DB0BDE8F08F30B5DDE9B2
:10459000034530BD30B5DDE9034530BD2DE9F041BF
:1045A0000746002540F23F130022EF211046FEF798
:1045B00019FEFEF702FEFB48C06D40F40050F949B9
:1045C000C8650846806D40F4805088650846006ADA
:1045D000F5490843F349086200BF26E0F34800EBC1
:1045E00045214FF40072F24810F093FC002419E0CA
:1045F0006000401CEE49095CED4A12F8140001EB22
:10460000002086B2E848E749C8633004886308465A
:10461000C06940F00100C8610846806940F00100AF
:104620008861641CFF2CE3D96D1CB5F5967FD5D34A
:10463000DC48806D40F40050DA498865BDE8F081BF
:104640002DE9FF5F0746884691460E9C002500260F
:10465000AA46AB4644B908274FF033084FF0140977
:1046600040F22B10039049E0012C08D172274FF043
:104670009D084FF0140940F22B1003903EE0022CED
:104680000AD108274FF033084FF0140940F22B10DD
:104690000390DFF820B331E0032C0AD172274FF0EA
:1046A0009D084FF0140940F22B100390DFF808B377
:1046B00024E0042C08D178274FF0A3084FF0140908
:1046C00040F22B10039019E0052C0AD172274FF00D
:1046D0009D084FF0140940F22B100390DFF8DCB274
:1046E0000CE0062C08D172274FF09D084FF01409FA
:1046F00040F22B10039001E0BDE8FF9F4A4641467F
:104700003846039BFEF76EFDFEF757FDA548C06DCA
:1047100040F40050A349C8650846806D40F48050BD
:1047200088650846006AA04908439E490862002639
:1047300029E04D2070430BEB80014FF49A729C48A6
:1047400010F0E7FB00251BE06800401C9849095C5D
:10475000974A12F8150001EB00201FFA80FA9248E0
:104760009049C8634FEA0A4088630846C06940F030
:104770000100C8610846806940F0010088616D1C35
:104780009A2DE1D3761C502ED3D38648806D40F409
:1047900000508449886500BFAEE72DE9F05F82468E
:1047A0000F4690469B460A9D00245B463A4641468A
:1047B0005046FEF717FDFEF700FD7A48C06D40F445
:1047C00000507849C8650846806D40F4805088657F
:1047D0000846006A744908437249086200BF6BE1E9
:1047E00045B9774800EB44214FF40072704810F04F
:1047F00090FB40E1012D07D1724800EB44216A0291
:104800006B4810F086FB36E1022D07D16E4800EBB5
:1048100044212A02664810F07CFB2CE1032D08D1CC
:104820006A4800EB44214FF40072614810F071FBBC
:1048300021E1042D07D1664800EB4421EA015C48E0
:1048400010F067FB17E1052D08D1624800EB442109
:104850004FF40072564810F05CFB0CE1062D08D1B5
:104860005D4800EB44214FF40072514810F051FBB9
:1048700001E1072D08D1594800EB44214FF40072A3
:104880004B4810F046FBF6E0082D07D1544800EBEA
:104890004421AA01464810F03CFBECE0092D08D168
:1048A000504800EB44214FF40072414810F031FBB6
:1048B000E1E00A2D08D14C4800EB44214FF400728E
:1048C0003B4810F026FBD6E00B2D08D1474800EB03
:1048D00044214FF40072364810F01BFBCBE00C2D46
:1048E00008D1434800EB44214FF40072304810F0E7
:1048F00010FBC0E00D2D08D13E4800EB44214FF4E1
:1049000000722B4810F005FBB5E00E2D08D13A4897
:1049100000EB44214FF40072254810F0FAFAAAE0A7
:104920000F2D08D1354800EB44214FF40072204888
:1049300010F0EFFA9FE0102D07D1314800EB442131
:104940006A011B4810F0E5FA95E0112D08D12D48B9
:1049500000EB44214FF40072154810F0DAFA8AE0B7
:10496000122D08D1284800EB44214FF40072104862
:1049700010F0CFFA7FE0132D08D1244800EB44213A
:104980004FF400720A4810F0C4FA74E0142D41D1BB
:104990001F4800EB44214FF40072054810F0B9FAAB
:1049A00069E0000000C009200000FFFF765201000E
:1049B000C019001076AA0300B60A0400F66A0400C3
:1049C00036CB040036DD040036EF04003601050066
:1049D0003613050036250500363705003649050033
:1049E000365B0500366D0500367F05003691050003
:1049F00036A3050036B5050036C7050036D90500D3
:104A000036EB050036FD0500360F060036210600A0
:104A100036330600152D08D12D4800EB44214FF404
:104A200000722C4810F075FA25E0162D08D12A489E
:104A300000EB44214FF40072264810F06AFA1AE0A5
:104A4000172D08D1254800EB44214FF4007221486E
:104A500010F05FFA0FE0182D08D1214800EB442137
:104A60004FF400721B4810F054FA04E04FF4007148
:104A7000184810F0CDFA00261BE07000401C1549C4
:104A8000095C144A12F8160001EB00201FFA80F9A5
:104A900014481549C8634FEA094088630846C0694D
:104AA00040F00100C8610846806940F0010088615B
:104AB000761CFF2EE1D9641C092CFFF491AE0A4844
:104AC000806D40F4005008498865BDE8F09F000003
:104AD00036450600C0190010365706003669060034
:104AE000367B06000000FFFF00C0092010B54FF420
:104AF0000071C74810F08CFA10BDC6490968B1F5BD
:104B0000FF7F02D90021C34A1160C2490A680968BF
:104B1000491CC04B1960BE4988547047BE48006AA2
:104B200040F48040BC4908620846C06B40F48040B5
:104B3000C863704770B50546B848006840F0080083
:104B4000B649C439C1F8C400B548006840F0100047
:104B5000B34908600846006840F0400008608320C0
:104B6000B0490873B04800688009B0FBF5F4200A2A
:104B700008710C7003200873012048600720087238
:104B8000052000F039F9FFF7C9FF70BD00B5A54851
:104B90000078A649087008460078FFF7AEFF00BD10
:104BA00000BFA048007D00F001000028F9D09D481A
:104BB000007870479B49087000BF9A49097D01F051
:104BC00040010029F9D0704710B503460C46002279
:104BD00004E0985CFFF7EEFF501C82B2A242F8DBC3
:104BE00010BD70B50446204610F074F985B2294610
:104BF0002046FFF7E9FF70BD30B504460D468648F4
:104C0000806B40F480408449886329462046FFF742
:104C1000DBFF8148C06B40F480407F49C86330BDF2
:104C200070B505467D48006840F010007B49C439E6
:104C3000C1F8C4007A48006940F002007849086170
:104C40000846006940F0080008618320784908732D
:104C5000754800688009B0FBF5F4200A08710C70F3
:104C6000032008730120486007200872062000F026
:104C7000C3F870BD6E49087000BF6D49097D01F031
:104C800040010029F9D0704710B503460C460022B8
:104C900004E0985CFFF7EEFF501C82B2A242F8DB02
:104CA00010BD00B562480078604908700846007879
:104CB000FFF7E0FF00BD70B505465848006840F0BA
:104CC00080705649C439C1F8C4005548006940F4A1
:104CD0000030534908610846006940F4002008612B
:104CE000832054490873504800688009B0FBF5F4EC
:104CF000200A08710C700320087301204860072007
:104D0000087200F079F870BD4A4800784749087089
:104D100070474849087000BF4649097D01F04001CD
:104D20000029F9D0704710B503460C46002204E074
:104D3000985CFFF7EEFF501C82B2A242F8DB10BD78
:104D400070B505463548006840F000703349C439F5
:104D5000C1F8C4003248406840F4402030494860FF
:104D60000846406840F44010486083203249087388
:104D70002D4800688009B0FBF5F4200A08710C701A
:104D8000032008730120486007200872082000F003
:104D900033F870BD2849087000BF2749097D01F02C
:104DA00040010029F9D0704710B503460C46002297
:104DB00004E0985CFFF7EEFF501C82B2A242F8DBE1
:104DC00010BD10B51C480078184908701B4890F8B1
:104DD000A50020B1194890F8A500AD280BD11748BF
:104DE00090F8A50018B9AD20144981F8A5000F4826
:104DF000007801F0A5FB10BD00F01F0201219140D9
:104E00004209920002F1E022C2F80011704700004E
:104E1000C81B00101C00001000C00920C4C00F40B7
:104E200000C0024000C00040000000101800001048
:104E3000000001400080094000C00940881E0010A9
:104E400070B504460D4629462046FFF76CFF70BD3D
:104E50003EB5044600200090019002907E208DF81F
:104E6000000002208DF801008DF80240EF208DF83F
:104E7000030004216846FFF7E3FF3EBD10B50C2098
:104E8000FFF7E6FF10BD3EB50446002000900190FC
:104E900002907E208DF8000003208DF8010006208E
:104EA0008DF802008DF80340EF208DF804000521F5
:104EB0006846FFF7C5FF3EBD3EB5044600200090A2
:104EC000019002907E208DF8000004208DF80100F2
:104ED00003208DF80200200A8DF80300E0B28DF85F
:104EE0000400EF208DF8050006216846FFF7A8FFB3
:104EF0003EBD08B5002000901E2000F0F8FD0BE03C
:104F00000098401C009042F210710098884200D92D
:104F100003E0012000F0EBFDF2E700BF08BD70B533
:104F2000044600260025632C00DD70BD092C01DD40
:104F3000022600E00126012E27D0022E34D10A20BD
:104F400094FBF0F00A2190FBF1F201FB1200C5B2D4
:104F5000012D03D11420FFF7AFFF15E0012D07DD70
:104F600005F10A00FFF7A8FF1420FFF7A5FF0BE0EB
:104F700055B9032E08D10A2094FBF0F100FB114033
:104F800010B10A20FFF798FF00BF0A2094FBF0F150
:104F900000FB1140C5B21DB105F10A00FFF78CFFFF
:104FA0001F20FFF789FF00BF00BF00BFBDE770B53E
:104FB000044600260025632C00DD70BD092C01DDB0
:104FC000022600E00126012E27D0022E34D10A202D
:104FD00094FBF0F00A2190FBF1F201FB1200C5B244
:104FE000012D03D11420FFF767FF15E0012D07DD28
:104FF00005F10A00FFF760FF1420FFF75DFF0BE0EB
:1050000055B9032E08D10A2094FBF0F100FB1140A2
:1050100010B10A20FFF750FF00BF0A2094FBF0F107
:1050200000FB1140C5B21DB105F10A00FFF744FFB6
:105030001520FFF741FF00BF00BF00BFBDE770B5FF
:10504000044600260025632C00DD70BD092C01DD1F
:10505000022600E00126012E27D0022E34D10A209C
:1050600094FBF0F00A2190FBF1F201FB1200C5B2B3
:10507000012D03D11420FFF71FFF15E0012D07DDDF
:1050800005F10A00FFF718FF1420FFF715FF0BE0EA
:1050900055B9032E08D10A2094FBF0F100FB114012
:1050A00010B10A20FFF708FF00BF0A2094FBF0F1BF
:1050B00000FB1140C5B21DB105F10A00FFF7FCFE6F
:1050C0002620FFF7F9FE00BF00BF00BFBDE7FEB519
:1050D00003460C4600201A4600BF0A25B2FBF5F62F
:1050E00005FB162530350646471CF8B20DF806506C
:1050F0000A25B2FBF5F2002AEFD10146002006E0B6
:105100000D1A6D1E1DF805502554451CE8B2884245
:10511000F6DBFEBD2DE9F04385B006460C460027C0
:10512000B846142168460FF095FF0025A9461CB922
:10513000002005B0BDE8F0830A2C02DD4FF0FF30FF
:10514000F7E72246314668460FF0E3FE002522E0ED
:105150001DF80500302819DB1DF80500392815DC7D
:105160001DF80500A0F13008681C201A00F0FF09A6
:1051700003E008EB88004FEA40085FEA0900A9F164
:10518000010101F0FF09F4D1474402E04FF0FF3084
:10519000CFE7681CC5B2A542DADB3846C9E770B56F
:1051A00003460024002000BF09E00C5C04F00F055A
:1051B000260906EB860605EB46051D54401C904269
:1051C000F3D370BDF0B503460024002000BF0EE00D
:1051D0000C5C0A2594FBF5F5F02606EA05150A266F
:1051E00094FBF6F706FB174635431D54401C9042CE
:1051F000EED3F0BDF0B503460D4616460020002460
:1052000000BF1CE02A5D1109092903DD01F1370700
:10521000F9B202E001F13007F9B20746401CD95556
:1052200002F00F01092903DD01F13707F9B202E0AD
:1052300001F13007F9B20746401CD955641CB4424D
:10524000E0D3F0BD2DE9F04104460B46154600229F
:10525000002000BF3CE0995C302905DB392903DCE4
:10526000A1F13007F9B20EE0612905DB662903DC04
:10527000A1F15707F9B206E0412904DB462902DC17
:10528000A1F13707F9B20F073E0E521C995C302985
:1052900005DB392903DCA1F13007F9B20EE0612901
:1052A00005DB662903DCA1F15707F9B206E04129C5
:1052B00004DB462902DCA1F13707F9B201F00F0146
:1052C000771807F0FF080746401C04F80780521CB7
:1052D000AA42C0D3BDE8F081F0B503460C460025D4
:1052E0000021002000BF0EE0655C302606EB151C97
:1052F0000646401C03F806C005F00F063036074688
:10530000401CDE55491C9142EED3F0BD10B503465A
:105310000C46002105E0585CA04201D1084610BDB2
:10532000491C9142F7D34FF0FF30F8E72DE9FE4FCB
:1053300081468A464C46554620460FF0CBFD0090EC
:1053400028460FF0C7FD80460098A0EB080BBBF184
:10535000000F02DA0020BDE8FE8F002620E0207852
:105360002978884201D0641C19E002940195002735
:105370000DE00298017801980078814200D008E0A1
:105380000298401C02900198401C01907F1C4745E8
:10539000EFDB00BF474501D10120DCE7641C761C30
:1053A0005E45DCDD0020D6E70146012070477CB574
:1053B00004460B46012500200090019000220EE0DB
:1053C000A05C2E2801D0A05C38B928466E1CF5B22E
:1053D0000DF80020052D00DB1E22501CC2B2142A3D
:1053E000EEDB00212CE099B900201870002209E0C2
:1053F000A05C30385E5C06EB860600EB4600585435
:10540000501CC2B2481C1DF800009042F0DC15E0B0
:10541000002058541DF80100401CC2B209E0A05CF5
:1054200030385E5C06EB860600EB46005854501C94
:10543000C2B2481C1DF800009042F0DC481CC1B20A
:105440000429D0DB04207CBDF0B502460C460023C5
:10545000002000BF55E0E15C632928DD642691FB54
:10546000F6F6F5B2642691FBF6F706FB1716F1B2D5
:1054700005F1300606F0FF0C0646401C02F806C097
:105480000A2691FBF6F6303606F0FF0C0646401C65
:1054900002F806C00A2691FBF6F706FB171630360F
:1054A00006F0FF0C0646401C02F806C020E0092961
:1054B00016DD0A2691FBF6F6303606F0FF0C06469E
:1054C000401C02F806C00A2691FBF6F706FB1716E9
:1054D000303606F0FF0C0646401C02F806C007E016
:1054E00001F1300606F0FF0C0646401C02F806C02B
:1054F000032B05D04FF02E0C0646401C02F806C0C8
:105500005B1C042BA7D3F0BD70B50246002300201E
:10551000002400BF18E0002011E052F82060451C74
:1055200052F82550AE4209D952F82040451C52F895
:10553000255042F82050451C42F82540401CCD1A09
:105540006D1E8542E9D85B1C8B42E4D370BD000020
:10555000012808D14FF0E021096941F001014FF025
:10556000E02211610EE0811C41B94FF0E021096990
:1055700021F001014FF0E022116103E000214FF022
:10558000E0225161704770B50346B3F57A7F01D0D0
:105590004FF47A737348B0FBF3F1B1F1807F00D31D
:1055A0001DE021F07F40401E4FF0E0225061501777
:1055B0001F22002807DAD406260E6B4C00F00F05D8
:1055C0002D1F665503E0D406250E684C255400BFF8
:1055D00000204FF0E02290610720106100BF6FF0C3
:1055E0000100FFF7B5FF00206149087070BD00B5EC
:1055F00001205F490870FFF7ABFF00BD00B5002038
:105600005B490870801EFFF7A3FF0020FFF7A0FF93
:1056100000BD00B5002056490870801EFFF798FFB6
:1056200000BD10B503465248007808B1FFF7E6FF09
:1056300050480068834205D14E48006800684D49D3
:1056400008600CE04B48046806E02068984202D1EC
:105650001868206002E02468002CF6D100BF46489C
:1056600000681860444803604148007808B1FFF7BB
:10567000BEFF10BD10B53F48046814E02079012832
:1056800010D1E068401EE060E06858B9D4E9040138
:1056900088476079012802D1A068E06002E02046D6
:1056A000FFF7BFFF2468002CE8D110BD10B5FFF74D
:1056B000E1FF10BD0021304A116000200EE02E49AC
:1056C000096800EB40022D4B43F8321000EB40011B
:1056D0001A4602EBC101284A1160401C0828EEDB83
:1056E0000021244A116070472DE9F04105460E461D
:1056F00014461F46DDF818801D48007808B1FFF7F2
:105700007DFF1D4803687BB1006800681A49086086
:105710001D715E719C60DC605F61C3F8108015488C
:1057200000681860134803601148007808B1FFF75B
:105730005EFF1846BDE8F08170B504460E4615467A
:105740000B48007808B1FFF759FFFFF757FF2671A4
:105750006571A360E3600648007808B1FFF747FF72
:1057600070BD000000E1F50518ED00E000E400E088
:10577000200000102800001024000010C81D001098
:10578000B1F1FF3F02D1A34A116102E04A00A14BEF
:105790001A614208A04B1B689A6001229E4B1B684D
:1057A0001A7170479B49096911B39C49097831B155
:1057B0009B49C96F41F00071994AD16705E098494A
:1057C000896F41F00071964A91679449097809B947
:1057D000012100E00021914A11708E490969B1F15F
:1057E000FF3F0FD08B490969491E8A4A116109E0C0
:1057F0008B49896F41F00071894A91670021864A7F
:1058000012681171704710B500B14AB9844BDB6F53
:1058100043F08063824CE3670023824C237010BD09
:10582000814B1860814B1960814B1A600023814CB9
:105830002360814C2360814B1B689B687F4C2468EC
:10584000E36001237E4C2370754B9B6F43F08063B4
:10585000734CA3670123734C237000BFDFE77149CA
:10586000097801293DD176490978012914D1714976
:105870000968491C6F4A1160114609686A4A126832
:1058800091422ED36649C96F41F08061644AD16765
:1058900000216B4A117024E067490968491C664A77
:1058A000116011460968614A1268914219D3604932
:1058B0000968491E5E4A11601146096819B900213C
:1058C000584A117070475649896F41F08061544AB7
:1058D000916701215A4A11700021564A1160564AB7
:1058E000116000BFEEE730B504460A20B4FBF0F5C6
:1058F000012200212846FFF786FF30BD0121514AD1
:105900001170704730B589B00546002007900890A7
:10591000059006900024142168460FF09BFB0A2294
:1059200029466846FFF78EFC00BF06E01DF804001C
:1059300080F005000DF80400641C052CF6D39DF8DA
:1059400000009DF8011048409DF8021048409DF865
:10595000031048408DF80A009DF80A009DF80410D5
:10596000884202D0E02009B030BD9DF801109DF8BA
:10597000000001EB0024600A8DF81C00C4F3431002
:105980008DF81D0004F01F008DF81E009DF8031017
:105990009DF8020001EB0024600A8DF81400C4F3A6
:1059A00043108DF8150004F01F008DF816009DF8C7
:1059B0001C00184991F8D71188420DD19DF81D108F
:1059C000144890F8D801814206D19DF81E10114864
:1059D00090F8D901814201D0E120C4E79DF814106C
:1059E000194880F8F21C9DF8151080F8F31C9DF8FA
:1059F000161080F8F41C00F6F2401349401A00F526
:105A00000074032201F6F241204600F05CF9EB201D
:105A1000A9E70000881E00102C00001054000010A0
:105A200000C009203C000010400000104800001099
:105A300050000010440000104C0000103000001016
:105A40003D0000101200001068200010FD48FE49C3
:105A500008603C20486000208860C8600A20086117
:105A600070470EB5002100910191029100990170DB
:105A70000099090A41700099090C81700099090E7A
:105A8000C170019901710199090A41710199090CCB
:105A900081710199090EC171029901720299090A75
:105AA00041720299090C81720299090EC1720EBDF0
:105AB00010B502460B460020002100BF02E0545CF6
:105AC0006040491C9942FAD310BD0CB50AE0002190
:105AD000009104E0002101910099491C0091009976
