:020000040800F2
:10000000D016002005020008090200080B020008B3
:100010000D0200080F020008110200080000000095
:1000200000000000000000000000000013020008B3
:10003000150200080000000017020008190200085D
:100040001B0200081B0200081B0200081B0200081C
:100050001B0200081B0200081B0200081B0200080C
:100060001B0200081B0200081B0200081B020008FC
:100070001B0200081B0200081B0200081B020008EC
:100080001B0200081B0200081B0200081B020008DC
:100090001B0200081B0200081B020008D7210008F1
:1000A0001B0200081B0200081B0200081B020008BC
:1000B0007F2400082D3E00089B4B00081B0200080F
:1000C0001B0200081B0200081B0200081B0200089C
:1000D0001B0200081B0200081B0200081B0200088C
:1000E0001B0200081B0200081B02000800F002F8B7
:1000F00000F05CF80AA090E8000C82448344AAF166
:100100000107DA4501D100F051F8AFF2090EBAE863
:100110000F0013F0010F18BFFB1A43F0010318473B
:1001200048F1000068F100000A444FF0000C10F89C
:10013000013B13F0070408BF10F8014B1D1108BF65
:1001400010F8015B641E05D010F8016B641E01F805
:10015000016BF9D113F0080F1EBF10F8014BAD1C55
:100160000C1B09D16D1E58BF01F801CBFAD505E073
:1001700014F8016B01F8016B6D1EF9D59142D6D3CD
:10018000704700000023002400250026103A28BFF5
:1001900078C1FBD8520728BF30C148BF0B607047F9
:1001A0001FB505F038F91FBD10B510BD05F052F9A7
:1001B0001146FFF7F5FF00F05CF805F070F903B4A5
:1001C000FFF7F2FF03BC05F071F9000030BF00003B
:1001D0000B49D1F800C04A685CF8043B1068184429
:1001E00042F8040B8C4528BFA1F1DC0C8A4228BFE1
:1001F000A1F1DC02C1F800C04A6020F00040704765
:100200006414002008480047FEE7FEE7FEE7FEE72B
:10021000FEE7FEE7FEE7FEE7FEE7FEE703480449E8
:10022000024A044B70470000ED000008D014002083
:10023000D0160020D014002010B5092000F05BF982
:10024000482000F0AFF901F00CFAFF2001F0D9F9D5
:1002500000F0EDFD00BF02F084F90028FBD1012081
:1002600002F019FE4FF47A7000F0B8F901F0E2FFE5
:1002700010BDFFF7E1FF5BE02E480078092856D259
:10028000DFE800F055051A1D1E393C554A0003F001
:1002900079F80CE028480078062803D02648007832
:1002A000052804D103F06EF8FF2023490870214887
:1002B00000780128EED03AE003F05EFD37E036E04A
:1002C000FF2001F09EF911E000231CA21946012035
:1002D00001F06EFB00231EA21946184601F068FBD0
:1002E00000231FA21946032001F062FB1148007889
:1002F0000428E9D01BE003F0F7FF18E002220021F8
:10030000084604F055F804F045FB1A48008820F030
:100310000100184908800AE004F0BBFE04F012FF57
:100320001448008820F001001249088000BF00BF77
:10033000A2E7000000000020C403002044617465AF
:100340003A20323031302F30372F30390000000062
:1003500054696D653A2032333A35393A333000000A
:100360004861707079206576657279206461797E64
:100370007E00000000080040804A0A400243804B93
:100380001A6070470146072323EA010212027C4BE0
:100390001B1D18684FF6FF0318407A4B1843104393
:1003A000774B1B1D186070472DE9F04105460E463E
:1003B00014464FEAE27C02EB9C7CCCF387074FEAC1
:1003C000E27C02EB9C7C4FEAAC0CA2EB8C0C0CF0B8
:1003D000FF01042404EBC104E1B2C3F1040405FAF3
:1003E00004F00F241C413440204300F00F00202A69
:1003F0000CDA4FF0E024D4F800C1012494404CEA18
:10040000040C4FF0E024C4F800C10DE05E4C2468F9
:10041000A2F1200C4FF0010808FA0CF844EA080495
:100420004FF0E02CCCF80441584C54F8274000FA27
:1004300001FC44EA0C04DFF854C14CF82740BDE845
:10044000F08100B5002052490861C860142048615D
:1004500000208861C8610846006840F0010008601B
:10046000084640684B4908404949486008460068CA
:1004700049490840464908600846006820F4802041
:1004800008600846406820F4FE004860002088604C
:1004900000214FF00060FFF76FFF00BD10B5384836
:1004A0000830006840F004003549083108603848D9
:1004B000C06940F080503649C8610846C06940F0C4
:1004C0000060C8613548406840F480703349486036
:1004D0000846006840F0040008600846006840F0E4
:1004E00002000860FFF772FE10BD2648001D244977
:1004F000091D0860704730B504460025FFF7A1FFCD
:100500002348006840F480302149086000BF20483B
:100510000068400C0028FAD04FF480601C49486005
:10052000A01EC4B20846406840EA844048600846BD
:10053000406840F4803048601948006840F032005C
:10054000174908601248006840F080701049086040
:1005500000BF0F480068400E0028FAD00C484068E1
:1005600040F002000A49486005E009484068C0F3CD
:10057000870505F00305022DF7D130BD80FFFF1F71
:1005800008ED00E00000FA0504E100E000E400E00E
:10059000001002400000FFF8FFFFF6FE0070004070
:1005A000002002404FF0E021096921F004014FF0E2
:1005B000E0221161C21700EB5272C2F3C702234B53
:1005C0001A701946097801EB4102C2EBC1114FF6CE
:1005D000FF7202EAC1011E4A1180704701461C4A9F
:1005E00012884A434FF0E0235A6100229A610122A7
:1005F0001A6100BF4FF0E022106900F001021AB149
:1006000000F48032002AF5D000224FF0E0231A6176
:100610009A61704701460D4A12784A434FF0E02331
:100620005A6100229A6101221A6100BF4FF0E02254
:10063000106900F001021AB100F48032002AF5D0EE
:1006400000224FF0E0231A619A61704702000020F7
:10065000040000200246002105E0481CC1B2C82960
:1006600001DD002070475148008800F0020000289A
:10067000F3D04E48001D0280002105E0481CC1B2A5
:10068000C82901DD0020EDE74848008800F001009E
:100690000028F3D04548001D0088C0B2E2E700B54D
:1006A0004348806940F00800414988610846C069B4
:1006B00040F48040C8613F48006880B23D4908600E
:1006C000084600683C4908433A4908603948083000
:1006D000006840F4704037490831086033480838F2
:1006E00000883249083908800846008840F40070C4
:1006F00008800846008840F480700880084600881A
:1007000040F00400088008460088088008460088F9
:1007100040F0020008800846008840F00100088090
:100720000846008840F030000880084600880880AD
:100730000846008840F040000880FF20FFF78AFF4D
:1007400000BD1A49083909884FF6C7721140174A87
:10075000083A118018B91146098811801DE0012856
:1007600008D112490839098841F010010F4A083AA6
:10077000118012E0022808D10C490839098841F09B
:1007800018010A4A083A118007E00849083909881F
:1007900041F03801054A083A1180044908390988AE
:1007A00041F04001014A083A118070470838004082
:1007B00000100240040C01400000B3BB014600BF22
:1007C000FE48008900F002000028F9D0FB48818132
:1007D00000BFFA48008900F001000028F9D0F7486E
:1007E0008089C0B27047F54909884FF6C772114039
:1007F000F24A118018B911460988118017E00128C2
:1008000006D1EE49098841F01001EC4A11800EE052
:10081000022806D1E949098841F01801E74A118008
:1008200005E0E649098841F03801E44A1180E349CE
:10083000098841F04001E14A1180704710B5044633
:100840000B4600BFDE48006800F020000028F9D009
:100850000320FFF7C8FFDA48001D006840F04000A1
:10086000D749091D08600846006820F0800008602C
:100870000220FFF7A3FF2046FFF7A0FF1812FFF7A3
:100880009DFFD8B2FFF79AFFCD48001D006840F0E9
:100890008000CB49091D08600220FFF7A4FF10BDAE
:1008A000F0B504460F46C4F1FF04254604EB0520CD
:1008B00085B207EB062086B229460B20FFF7BEFF64
:1008C00031460220FFF7BAFFF0BD00B50021042039
:1008D000FFF7B4FF00210420FFF7B0FF00BD10B503
:1008E0000446002300BFB648006800F0200000283E
:1008F000F9D00320FFF777FFB148001D006840F0F2
:100900004000AF49091D08600846006820F08000DB
:1009100008600320FFF752FF2046FFF74FFFFF203C
:10092000FFF74CFF03464FF6FF7000EA0323FF205A
:10093000FFF744FF184483B2A148001D006840F04F
:1009400080009F49091D08600220FFF74CFF1846F0
:1009500010BD10B500BF9A48006800F020000028C4
:10096000F9D00020FFF72AFF00240DE040F6040133
:100970000020FFF763FF0220FFF730FE2046611CD6
:10098000CCB2642800DD06E00020FFF7A8FF40F6A7
:1009900004018842EAD100BF00BF8948006800F026
:1009A00020000028F9D000240AE04FF41841032069
:1009B000FFF744FF2046611CCCB2642800DD05E04F
:1009C0000320FFF78CFFB0F5184FEED100BF0024D5
:1009D0000AE04BF681310520FFF730FF2046611C0D
:1009E000CCB2642800DD06E00520FFF778FF4BF667
:1009F00081318842EDD100BF724801787248007899
:100A0000FFF74EFFFFF761FF6D48001D006820F003
:100A100040006B49091D0860FF20FFF7CFFEFF2053
:100A2000FFF7CCFEFF20FFF7C9FEFF20FFF7C6FE51
:100A30006348001D006840F040006149091D0860DE
:100A40001420FFF7CBFD10BD10B55D48001D0068F8
:100A500020F010005A49091D08601420FFF7BEFD60
:100A60005748001D006840F040005549091D0860C6
:100A70000846006840F0800008600846006840F0C2
:100A80001000086000BF4E48006800F020000028F9
:100A9000F9D01420FFF7A2FD10BD10B5FFF7D4FF69
:100AA00042F220010B20FFF7C9FE4FF40261002043
:100AB000FFF7C4FE00BF4248006800F02000002895
:100AC000F9D03F48001D006820F040003C49091D56
:100AD00008605320FFF772FEEF20FFF76FFE6E20D5
:100AE000FFF76CFE2420FFF769FE0020FFF766FE8B
:100AF0000020FFF763FE0020FFF760FE0020FFF7F5
:100B00005DFE6420FFF76AFD2D48001D006840F07F
:100B100040002B49091D08600846006820F040008D
:100B200008604520FFF74AFE7820FFF747FE69205E
:100B3000FFF744FE7420FFF741FE0020FFF73EFE62
:100B40000020FFF73BFE0020FFF738FE0020FFF7F4
:100B500035FE6420FFF742FD1948001D006840F093
:100B600040001749091D08600846006820F0400051
:100B700008605320FFF722FEEF20FFF71FFE6E20D4
:100B8000FFF71CFE4420FFF719FE0020FFF716FEBA
:100B90000020FFF713FE0020FFF710FE0020FFF7F4
:100BA0000DFE6420FFF71AFD0548001D006840F0A7
:100BB00040000349091D0860084607E00030014075
:100BC000080C0140B6030020B5030020006820F0A7
:100BD000400008604520FFF7F1FD7820FFF7EEFDAB
:100BE0006920FFF7EBFD7420FFF7E8FD0020FFF719
:100BF000E5FD0020FFF7E2FD0020FFF7DFFD00200C
:100C0000FFF7DCFD6420FFF7E9FC9A48006840F03C
:100C100040009849086010BD10B5FFF715FF4FF46C
:100C200002610020FFF70AFE00BF9248001F006823
:100C300000F020000028F8D08E48006820F0400026
:100C40008C4908604D20FFF7B9FDEA20FFF7B6FD9B
:100C50006D20FFF7B3FD5420FFF7B0FD0020FFF734
:100C6000ADFD0020FFF7AAFD0020FFF7A7FD002043
:100C7000FFF7A4FD3220FFF7B1FC7E48006840F08A
:100C800040007C49086010BD00B502467948006804
:100C900020F04000774908601046FFF78FFD754847
:100CA000006840F04000734908600846006840F062
:100CB0008000086000BD30B50820FFF710FE054633
:100CC0000920FFF70CFE0446A4F59A40543840B1C1
:100CD000A0F6F91038B1A0F5F8501838C8B90020BE
:100CE00030BD0120FCE768001921B0FBF1F40A20B7
:100CF000B4FBF0F100FB1140052805D90A20B4FB34
:100D0000F0F0401C80B2EBE70A20B4FBF0F080B2B8
:100D1000E6E7E40804F00304032C01D1012400E019
:100D20000024554800EB4410290B30F81100D7E798
:100D300000B50420FFF7D3FD00BD10B5002407E087
:100D40004E4A115D4E4A105DFFF778FD601C84B27B
:100D500040F2AF308442F3DB0A20FFF73FFC10BDC6
:100D600070B50446002541F604010720FFF766FD33
:100D700000BF08E00620FFF7B2FD00F0630604F8AC
:100D8000016B681CC5B20E2DF4DB70BD00B53D488B
:100D9000806940F004003B4988610846806940F45E
:100DA0008050886138480068C0F3130036490860F5
:100DB00008460068354908433349086032480C301A
:100DC000006840F0E00030490C310860304800888D
:100DD0002F4908800846008840F4007008800846C3
:100DE000008840F4807008800846008840F00400C5
:100DF00008800846008808800846008840F0020005
:100E000008800846008840F00100088008460088F5
:100E100040F03000088008460088088008460088B6
:100E200040F040000880FF20FFF7C8FC00BD10B56F
:100E3000FFF7ACFF0320FFF7D6FC1248806940F0B3
:100E40000800104988610B480C38006880B20949D5
:100E50000C390860084600680E49084305490C39FA
:100E600008600448006840F0F00002490860FFF79D
:100E7000EBFD10BD0C0C01402E7300087E6F0008C6
:100E80000600002000100240000801400000B0BB36
:100E9000003001400000833370B5002500BFFF2003
:100EA000FFF7D8FB04464FF6FE70854201D10120C2
:100EB00070BD681C85B2FF2CF1D10020F8E72DE948
:100EC000F04105460C4616460027FF20FFF7C2FBFF
:100ED000FF20FFF7BFFBFD48006820F48050FB496E
:100EE000086045F04000FFF7B5FB200EFFF7B2FBAE
:100EF000C4F30740FFF7AEFBC4F30720FFF7AAFBDC
:100F0000E0B2FFF7A7FB3046FFF7A4FB04E0781C34
:100F1000C7B2C82F00DD05E0FF20FFF79BFB80462E
:100F2000FF28F4D000BFE948006840F48050E7494A
:100F30000860FF20FFF78EFB4046BDE8F0812DE9F9
:100F4000F04105460C4616460027E048006840F48C
:100F50008050DE490860FF20FFF77CFBFF20FFF791
:100F600079FBDA48006820F48050D849086045F0E1
:100F70004000FFF76FFB200EFFF76CFBC4F3074048
:100F8000FFF768FBC4F30720FFF764FBE0B2FFF74D
:100F900061FB3046FFF75EFB04E0781CC7B2C82F48
:100FA00000DD05E0FF20FFF755FB8046FF28F4D069
:100FB00000BF4046BDE8F0817CB500200090019064
:100FC000FFF76DFB0320FFF7BCFB002501E0681C69
:100FD00085B240F6FF708542F9DB002504E0FF2072
:100FE000FFF738FB681C85B20A2DF8DBB7480068AC
:100FF00020F48050B5490860002400BF95220021EC
:101000000846FFF75CFF0546601CC4B2012D01D005
:10101000FA2CF3DBFA2C01DB01207CBD87224FF494
:10102000D5710820FFF78BFF0446052C56D101200F
:10103000A7490870A548006840F48050A34908609B
:10104000FF20FFF707FB002500BF002211463720D5
:10105000FFF735FF0446FF2C01D12046DDE70022D3
:1010600011462920FFF72BFF0446681C85B214B1F6
:10107000B5F5C87FE9DBB5F5C87F15D1002500BF00
:10108000002211460120FFF71AFF0446681C85B2B2
:1010900014B1B5F5C87FF3DBB5F5C87F01D10120E8
:1010A000BBE700208A4908700020FFF74AFBFF20B9
:1010B000FFF7D0FA952200213B20FFF700FF0446FE
:1010C0000CB12046A9E795224FF400711020FFF7DC
:1010D000F6FE0446002C77D020469EE7012C73D103
:1010E000FF20FFF7B7FA8DF80000FF20FFF7B2FAF4
:1010F0008DF80100FF20FFF7ADFA8DF80200FF2008
:10110000FFF7A8FA8DF803007048006840F480509B
:101110006E490860FF20FFF79DFAFF20FFF79AFA5B
:10112000002500BF002211463720FFF7C8FE044605
:10113000012C01D0204670E700224FF08041292089
:10114000FFF7BDFE0446681C85B2C82D01DD2046B0
:1011500063E7002CE6D1002211463A20FFF7EFFEAC
:1011600004460CB1204658E7FF20FFF773FA8DF8CC
:101170000000FF20FFF76EFA8DF80100FF20FFF757
:1011800069FA8DF80200FF20FFF764FA8DF803007A
:101190004E48006840F480504C490860FF20FFF73B
:1011A00059FAFF20FFF756FA9DF8000000F04000C2
:1011B00020B104204649087003E005E002204449BC
:1011C00008700020FFF7BDFA204626E72DE9F04120
:1011D0000446884616463D48006820F480503B4946
:1011E0000860002700BFFF20FFF734FA0546781C8F
:1011F00087B2B7F5FA6F08DD3448006840F48050D4
:10120000324908600120BDE8F081FE2DEBD104E0F9
:10121000FF20FFF71FFA2070641C5FEA0800A8F1A6
:1012200001011FFA81F8F3D1FF20FFF713FAFF2025
:10123000FFF710FA012E08D12448006840F48050CE
:1012400022490860FF20FFF705FA0020DBE770B5B0
:101250000546FF2200210A20FFF731FE04460CB1AB
:10126000204670BD012210212846FFF7AFFF002065
:10127000F7E770B50546FF2200210920FFF71FFEA2
:1012800004460CB1204670BD012210212846FFF70C
:101290009DFF0020F7E72DE9FF416846FFF7E9FFD2
:1012A00018B1002004B0BDE8F0819DF8000000F006
:1012B000C00040280ED19DF8080006029DF80900E4
:1012C000401C0644B60276023DE000000C0C0140D2
:1012D000B70300209DF8060000F003044FF6FF70EE
:1012E00000EA04249DF8070004444FF6FF7000EA6A
:1012F00084049DF8080004EB90149DF8090000F0A8
:1013000003077F009DF80A0007EBD017BF1C0125DB
:1013100005E04FF6FF7000EA4505781EC7B2002FC2
:10132000F7D1601C00FB05F69DF8050000F00F04E6
:10133000012505E04FF6FF7000EA4505601E84B206
:10134000002CF7D16E433046ACE770B505460E462B
:1013500071480078042800D06D020022294611202F
:10136000FFF7ADFD04460CB1204670BD01225102CD
:101370003046FFF72BFF04460CB12046F5E700206E
:10138000F3E72DE9F04105460E466348007804284E
:1013900000D06D02002229461820FFF790FD044678
:1013A00014B12046BDE8F0815C48006820F480500C
:1013B0005A490860FF20FFF74DF9FF20FFF74AF96F
:1013C000FF20FFF747F9FE20FFF744F9002705E06B
:1013D00016F8010BFFF73EF9781C87B2B7F5007FCE
:1013E000F6DBFF20FFF736F9FF20FFF733F9FF2088
:1013F000FFF730F9044604F01F00052807D04748DE
:10140000006840F48050454908602046CAE74FF024
:1014100000080FE008F101001FFA80F84FF6FE7097
:10142000804507DD3D48006840F480503B49086036
:101430000120B7E7FF20FFF70DF90028EAD0374871
:10144000006840F4805035490860FF20FFF702F93A
:101450000020A7E72DE9F04706460F46904699463B
:1014600000242D480078042806D0710200221120A3
:10147000FFF725FD054605E0002231461120FFF764
:101480001EFD054615B12846BDE8F08723480068D3
:1014900020F48050214908600CE0601C84B2B4F54F
:1014A000FA6F07DD1D48006840F480501B49086052
:1014B0000120E9E7FF20FFF7CDF8FE28EDD1002459
:1014C00004E0FF20FFF7C6F8601C84B24445F8D35F
:1014D00006E0FF20FFF7BEF807F8010B601C84B29E
:1014E00008EB0900A042F4D804E0FF20FFF7B2F8AF
:1014F000601C84B2B4F5007FF7DBFF20FFF7AAF889
:10150000FF20FFF7A7F80548006840F48050034922
:1015100008600020B8E70000B70300200C0C014071
:1015200070B50446002524E0FA48006820F40070F5
:10153000F849086004F0800028B90846006820F4E3
:101540008070086005E0F348006840F48070F1495D
:1015500008600120FFF75EF8EE48006840F4007074
:10156000EC4908600120FFF755F86006040E681C7E
:10157000C5B2082DD8DB70BD10B50446E54800683B
:1015800040F40060E34908600846006820F4806089
:1015900008602046FFF7C4FFDE48006840F4806022
:1015A000DC49086010BD10B50446DA48006820F434
:1015B0000060D84908600846006820F48060086030
:1015C0002046FFF7ADFFD348006840F48060D14962
:1015D000086010BD10B50446601CC4B204F00F00D2
:1015E000FFF7E1FF102141EA2410FFF7DCFF10BDF7
:1015F00010B5044604F00F0141F0B000FFF7D3FF2F
:1016000010BD70B50546042D21DA6906080EFFF7F6
:10161000EFFF0020FFF7DEFF002404E00020FFF7CB
:10162000ABFF601CC4B2842CF8DB6900491CC8B253
:10163000FFF7DEFF0020FFF7CDFF002404E00020CD
:10164000FFF79AFF601CC4B2842CF8DB08E000248A
:1016500004E02046FFF7D5FF601CC4B2042CF8DB81
:1016600070BD10B5AC48806940F00400AA4988619B
:101670000846806940F0080088610846806940F0AB
:1016800001008861A548406840F08060A349486037
:10169000A048083800686FF313009E4908390860B5
:1016A000084600689E4908439A49083908600020A6
:1016B000984908609B48006820F470409949086088
:1016C0000846006840F44050086096480C300068B6
:1016D00020F0080093490C3108608E48006820F41F
:1016E00080708C4908600846006820F4007008602B
:1016F0000846006820F4006008600846006840F46E
:10170000805008600846006840F480600860084621
:10171000006820F4805008600A20FEF75FFF7D48D3
:10172000006840F480507B490860AE20FFF73BFF23
:10173000A120FFF738FFC820FFF735FFA220FFF7F1
:1017400032FF2F20FFF72FFF2220FFF72CFF8120F1
:10175000FFF729FF1920FFF726FF0720FEF73EFFBE
:10176000AF20FFF720FFFF20FFF74BFF10BD10B5A4
:101770000446614201F03F0141F04000FFF713FFD2
:1017800010BD2DE9F04105460E4617466906080EC4
:10179000FFF72EFF3046FFF71DFF002415E0062C53
:1017A00007D16900491CC8B2FFF722FF3046FFF796
:1017B00011FFA7F1200101EB41015B4A02EB81011E
:1017C000085DFFF7D9FE601CC4B20C2CE7DBBDE856
:1017D000F08170B504460D4616466106080EFFF707
:1017E00007FF2846FFF7F6FE13E032782946204629
:1017F000FFF7C7FF761C05F10800C5B27B2D02DD9F
:10180000601CC4B20025032C03DDFF20FFF7F9FEA6
:10181000002430780028E8D170BD2DE9F04106465B
:101820000D4614464FF47A70B4FBF0F00A21B0FB79
:10183000F1F201FB120000F130073A46294630462A
:10184000FFF79FFF4FF47A70B4FBF0F100FB1140FB
:101850006421B0FBF1F03030C7B205F10800C1B22D
:101860003A463046FFF78DFF6420B4FBF0F100FBF1
:1018700011400A21B0FBF1F000F1300705F1100032
:10188000C1B23A463046FFF77CFF0A20B4FBF0F1C4
:1018900000FB114000F1300705F11800C1B23A46D3
:1018A0003046FFF76EFFBDE8F0812DE9F0410546B7
:1018B0000F4616466906080EFFF79AFE3846FFF7F0
:1018C00089FE002421E00C2C07D16900491CC8B214
:1018D000FFF78EFE3846FFF77DFE1448007850B1C2
:1018E00006EB4601124A02EBC101095DC943C8B2C9
:1018F000FFF742FE07E006EB46010D4A02EBC1018D
:10190000085DFFF739FE601CC4B2182CDBDBBDE8B4
:10191000F08100000C08014000100240000001406E
:1019200033330300000C0140D8750008B8030020D1
:10193000867300082DE9F04105460E4617466906F4
:10194000080EFFF755FE3046FFF744FE00240EE078
:101950000C2C07D16900491CC8B2FFF749FE30467C
:10196000FFF738FE385DFFF707FE601CC4B2182C85
:10197000EEDBBDE8F08170B50646002415E0E0B26C
:10198000FFF736FE0020FFF725FE002509E004EBF7
:10199000440101EBC4112944705CFFF7EDFD681CA4
:1019A00085B2832DF3DB601C84B2082CE7DB70BDAD
:1019B0002DE9F04186B005460E4614461F464FF00D
:1019C00000084AE0B8F1000F28D12078802802DD15
:1019D0004FF0010841E07D2E03DD17B1681CC5B250
:1019E0000026012F05DD022D03DDFF2006B0BDE836
:1019F000F081032D01DDFF20F8E720780D2804D1C8
:101A0000681CC5B20026641C04E0227831462846D2
:101A1000FFF7B7FE641CB01DC6B21EE0772E03DDD3
:101A200017B1681CC5B20026012F03DD022D01DDB0
:101A3000FF20DBE7032D01DDFF20D7E74FF0000893
:101A40006946204601F08CFB6A4631462846FFF77E
:101A500071FFA41C06F10C00C6B220780028B1D199
:101A600000BFC3E770B504460D4616466106080E72
:101A7000FFF7BEFD2846FFF7ADFD19E03278294695
:101A80002046FFF77EFE761CA81DC5B27B2D09DD22
:101A9000601CC4B200256106080EFFF7A9FD2846A8
:101AA000FFF798FD032C03DD0420FFF7AAFD0024B7
:101AB00030780028E2D170BD2DE9F04106460D4690
:101AC00014460A2094FBF0F00A2190FBF1F201FB8E
:101AD00012003030C7B23A4629463046FFF751FE71
:101AE0000A2094FBF0F100FB11403030C7B2A81D72
:101AF000C1B23A463046FFF744FEBDE8F0812DE919
:101B0000F04107460D4616463846FFF771FD284658
:101B1000FFF760FD002408E006EB8601FE4A114451
:101B2000085DFFF729FD601CC4B2052CF4DB002022
:101B3000FFF722FDBDE8F0812DE9F04106460D4694
:101B400014460A2094FBF0F00A2190FBF1F201FB0D
:101B500012073A4629463046FFF7D1FF0A2094FB88
:101B6000F0F100FB1147A81DC1B23A463046FFF71D
:101B7000C6FFBDE8F08170B5002421E0C4F1070183
:101B8000C8B2FFF735FD0020FFF724FD002613E063
:101B900004EB440006EB4015B5F5007F04DADF499D
:101BA000485DFFF7E9FC05E0A5F50071DC4A505CF3
:101BB000FFF7E2FC701CC6B2602EE9DB601CC4B209
:101BC000082CDBDB70BD10B502460B46002103EB91
:101BD000430002EB4011B1F5007F02DACF48405CD0
:101BE00010BDA1F50070CE4C205CF9E730B503467E
:101BF000002001EB410403EB4410B0F5007F02D25A
:101C0000C64C225403E0A0F50074C54D2A5530BDE2
:101C10002DE9F04381460C46174600260125A046D3
:101C2000E01704EB5070C0F3C7014846FFF7CBFF45
:101C300006462046E11704EB5171C910A4EBC1011F
:101C4000C1F1070105FA01F1CDB20FB12E4302E057
:101C5000E843C5B22E40A046E01704EB5070C0F335
:101C6000C70132464846FFF7C1FFBDE8F083F0B533
:101C700005460C460026A806050EA006040E2746BB
:101C8000E01704EB5070C1102846FFF79CFF064692
:101C90002046E11704EB5171C910A4EBC101C1F159
:101CA00007010E4106F0010008B10120F0BD00203F
:101CB000FCE72DE9F04106460F469046002412E06D
:101CC00000250CE0042202FB0752D1B2042202FBE1
:101CD0000642D0B24246FFF79BFF681CC5B2042DF6
:101CE000F0DB601CC4B2042CEADBBDE8F08100200C
:101CF0000CE0B0F5007F03D20021884A115404E0C3
:101D00000022A0F50071864B5A54401CB0F5806F3C
:101D1000EFD3704710B583A223210220FFF7A2FE64
:101D20004FF44870FEF75AFC81A223210220FFF7EE
:101D300099FE4FF44870FEF751FC80A22321022047
:101D4000FFF790FE4FF44870FEF748FC10BD70B5E9
:101D500005467D480678F01706EB907082100C213E
:101D60000020FFF7A9FE072228210020FFF7A4FE8C
:101D7000072244210020FFF79FFE3022602100202F
:101D8000FFF7FFFC7148007828B10A226921002082
:101D9000FFF78BFD04E0092269210020FFF785FD94
:101DA0006B48007828B10B2278210020FFF77DFDD9
:101DB00004E00E2278210020FFF777FD05F10C00EA
:101DC000C2B200210320FFF770FD0720FFF710FCCF
:101DD0006420FFF7FFFB002405E05E49085DFFF784
:101DE000CBFB601CC4B2182CF7DB70BD70B5054688
:101DF0000720FFF7FDFB6420FFF7ECFB55B1002443
:101E000005E05449085DFFF7B7FB601CC4B2182C0D
:101E1000F7DB08E0002404E00020FFF7ADFB601CC6
:101E2000C4B2182CF8DB70BD10B50420FFF7E9FB35
:101E30000020494908704949086049490860002460
:101E40000AE0601DC2B2C4EBC4008006010E00208F
:101E5000FFF72BFD601CC4B2042CF2DB0620FFF759
:101E6000C7FB0C20FFF7B6FBFC20FFF785FB002427
:101E700004E08420FFF780FB601CC4B24E2CF8DB2A
:101E8000FC20FFF779FB6F20FFF7A4FB002405E09F
:101E90003449085DFFF770FB601CC4B2142CF7DBFB
:101EA00010BD2DE9F04104460D4600262C4800687F
:101EB00038B12B48006800EB4001C1EBC010B4FB07
:101EC000F0F62648006886421DD024480660006867
:101ED0003C21B0FBF1F000F0FF084246142107203E
:101EE000FFF72AFE0A2220210720FFF708FE1B48E1
:101EF00000683C21B0FBF1F201FB120842462621AA
:101F00000720FFF719FE04EB8400040105EB8500B0
:101F1000154901EB001029E092750008FC0900202A
:101F2000CC0C002053617665696E672E00000000BE
:101F300053617665696E672E2E00000053617665E9
:101F4000696E672E2E2E0000B5030020BA03002014
:101F5000B90300206E730008B8030020C0030020FE
:101F6000BC0300207E7500080C050020406CB4FB0B
:101F7000F0F0C5B2502D01DDBDE8F0810620FFF77D
:101F800037FB0C20FFF726FB002704E0FC20FFF7BF
:101F9000F3FA781CC7B2AF42F8DB00BFECE710B52C
:101FA0000420FFF72EFB00201449087014A22321FF
:101FB000FFF758FD15A223210120FFF753FD15A2BD
:101FC00000210220FFF74EFD14A236210220FFF768
:101FD00049FD13A24E210220FFF744FD12A2002169
:101FE0000320FFF73FFD12A236210320FFF73AFD41
:101FF00010A24E210320FFF735FD10BDB8030020CD
:10200000565331303033205365740000566F6C7571
:102010006D653A004820467265713A004B687A0057
:10202000547265623A0000004C20467265713A00B5
:1020300030687A00426173733A0000000020AE49B4
:102040000870AE48006800F4005008B10120087024
:10205000AA48006800F4004020B1A7480078801C1E
:10206000A5490870A548006800F4804020B1A24846
:102070000078001DA0490870704710B5FFF7DEFF1B
:1020800000BF9F48006800F480700028F9D09D4888
:10209000007830B901209B490870FF2096490870EC
:1020A00010BD9848007801287ED193480078032815
:1020B00005D195480078801C9249087089E08E48C7
:1020C0000078052803D104208F49087081E08A48F0
:1020D0000078062803D100208B49087079E08648F3
:1020E000007807282ED188490C78E11704EB91710C
:1020F0008910A4EB8101C8B284A26821FFF769FBB3
:102100008148007818B903207F4908700CE07E48A8
:102110000078042803D107207B49087004E07A483E
:102120000078401E7849087077490C78E11704EB75
:1021300091718910A4EB8101C8B275A26821FFF7E3
:1021400048FB46E06C480078042842D16E490C7880
:10215000E11704EB91718910A4EB8101C8B26BA265
:102160006821FFF736FB68480078032803D1002078
:10217000654908700CE064480078072803D1042002
:102180006149087004E060480078401C5E490870AE
:102190005D490C78E11704EB91718910A4EB810182
:1021A000C8B25BA2682100E002E0FFF712FB10E07A
:1021B00054480078042807D14F480078022808D1F5
:1021C0000120504908706BE74E480078022800D083
:1021D00000BF00BF64E710B50A20FEF7FFF94848CA
:1021E000006800F4807020B14FF4807049490860A5
:1021F00010BDFFF742FF4FF480704649086000BFF2
:10220000F6E708B500214FF0006003F099F94FF4AC
:10221000E06003F08BF917208DF8000000208DF8A6
:1022200001008DF8020001208DF80300684603F0DC
:1022300043F908BD10B53848806940F004003649BC
:1022400088610846806940F0080088610846806916
:1022500040F0010088613148406840F080602F49BB
:1022600048602748001F006820F00F002449091F1C
:1022700008600846006840F0080008602048001D1B
:10228000006840F480701E49091D08601B48001F4B
:102290000068C0F313001949091F08600846006868
:1022A0001F4908431549091F08601448001D0068AC
:1022B00040F460401149091D0860FFF7A2FF17486C
:1022C000006940F0010115480161124814380068A6
:1022D00040F480700F4914390860081D006840F40C
:1022E0008070091D08600B480838006840F4807051
:1022F00008490839086010BDC403002008080140DF
:10230000080C0140000000200100002020200000F7
:102310003C2D000014040140001002400000014068
:10232000000080887E48806940F004007C49886114
:102330007C48006820F470607A49086070477848EB
:10234000406840F40040764948600846806940F49F
:10235000007088617448006840F4807072490860B9
:10236000081D0068091D0860081D006840F26D1115
:1023700008436D49083108606B48283000686A4995
:102380002831086068483030006840F00200664933
:10239000303108606448001D006840F00100624967
:1023A000091D08600846006840F001000860084602
:1023B000006840F00800086000BF5B48001D00682E
:1023C00000F008000028F8D15748001D006840F0D0
:1023D00004005549091D086000BF5348001D0068EE
:1023E00000F004000028F8D1704708B500214FF034
:1023F000006003F0A5F84FF4C06003F097F81C20CC
:102400008DF8000000208DF801008DF802000120F9
:102410008DF80300684603F04FF8684603F04CF867
:1024200008BD10B5FFF7E1FF3D48C06940F001006D
:102430003B49C8611120810708855A208885888416
:102440004007808940F0010088810846808940F07B
:10245000400088810846008A40F001000882802000
:102460000880C005008840F00100088010BD10B54C
:10247000FFF758FFFFF763FFFFF7D3FF10BD10B55D
:102480004FF08040008A00F0010000283FD026482D
:10249000001D006840F001002349091D086008463E
:1024A000006840F00100086000BF1F48001F00687E
:1024B00000F002000028F8D01B494831086804F0F9
:1024C0002BFB1A491A4A127841F82200184A12784E
:1024D00051F82200174904F03DFA1449144A1278C1
:1024E00041F8220012480078401C11490870084643
:1024F000007880280BD10020087001200E49087058
:102500008007008820F001004FF0804108804FF0E4
:102510008040008A20F001004FF08041088210BD09
:102520000010024000080140042401404C0F00202C
:10253000C503002000007A44C603002001460020A5
:10254000F74BCA1C9A5C00EB02608A1C9A5C00EB99
:1025500002404A1C9A5C00EB02201A46525C10446E
:1025600070472DE9F0410027002400250026FF20B8
:10257000FFF747F8EBA200210846FFF72AF900BF52
:10258000FEF71AFD0028FBD1EB48006820F48050CC
:10259000E9490860FF20FFF734F8E8A20021084667
:1025A000FFF717F9E9480078042805D1E8A20021CF
:1025B0000120FFF70EF907E0E4480078012803D175
:1025C000E7A20021FFF705F9D5490020FEF7BDFE7F
:1025D000D34890F8FE01552804D1D14890F8FF0166
:1025E000AA2802D00120BDE8F0814FF4E370FFF784
:1025F000A5FF28B14FF4E370FFF7A0FF05461FE0E9
:102600004FF4EB70FFF79AFF28B14FF4EB70FFF730
:1026100095FF054614E04FF4F370FFF78FFF28B1E4
:102620004FF4F370FFF78AFF054609E04FF4FB70A3
:10263000FFF784FF20B14FF4FB70FFF77FFF0546E3
:10264000B7492846FEF781FEB54F07F10B0420205D
:10265000FFF774FFB0F5000F08D92020FFF76EFFD9
:10266000000D4FF6FF7101EA402607E02020FFF73A
:1026700065FF40024FF6FF7101EA10563246002115
:102680000220FFF7CAF8BAA220210220FFF7A1F822
:10269000A34890F8520046281FD1A14890F8530053
:1026A00041281AD19E4890F85400542815D19C48CE
:1026B00090F85500332810D1994890F856003228E8
:1026C0000BD12020AB490870D4F81900AA49086042
:1026D000D4F82100A949086009E01020A549087034
:1026E000B4F80B00A44908600220A4490860A4A221
:1026F0003C210220FFF76DF89E4802785421022009
:10270000FFF78BF820889F490880A0789E490870C1
:10271000B4F8030028449D490860E0889C4908609B
:1027200008460068C0F316109A490860607992491B
:102730000968964A126800FB01209749086008461C
:1027400000689449096808449449086000204AE7F1
:1027500070B5044687480078202801D1E50900E0DB
:10276000250A022C01D28E4870BD8848006846199F
:102770006B493046FEF7E9FD08B18948F4E77D482A
:102780000078202805D104F07F05654850F82560C1
:1027900003E0E5B2624830F815603046E4E72DE921
:1027A000F04105460E463746B54202D17C48BDE8A9
:1027B000F0810CE03846FFF7CBFF0446AC4201D174
:1027C0003846F4E727467648844200D1EFE7F1E740
:1027D0000146881E6C4A12786F4B1B6800FB023062
:1027E000704710B50346002213E0002109E0585C51
:1027F0006C4C54F82240645CA04200D003E0481CBA
:10280000C1B20329F3DB00BF032900D103E0501C50
:10281000C2B20D2AE9DB00BF0120904080B210BD9A
:1028200070B504460E46002503E0705D6055681CD7
:10283000C5B2082DF9DB06F10800FFF7D2FFA4F8B6
:102840006200708BB18A00EB0140A065F069E06521
:10285000F07A84F8600000206066A0664548007841
:10286000202804D1A06D10B944480068A0654E48E6
:102870000068A0B100204D4981F84F0081F84E005A
:10288000084600F039FD002506E04848415D04F1A6
:1028900008004155681CC5B2502DF6DB18E03078B1
:1028A0002E2809D14249A06D08603A2020725C218F
:1028B00061720021A1720BE0002505E0715D04F159
:1028C00008004155681CC5B20B2DF7DB0021E174EF
:1028D00070BD2DE9FF4F83B0994603980190002009
:1028E00000900025002700902F49086001980028DB
:1028F00015D1204800781028FAD14FF0000ACEE018
:102900002549096801EB0A000549FEF71EFD18B1CB
:10291000012007B0BDE8F08F4FF00008B8E0C4E038
:10292000FC090020496E7365727420534420636172
:1029300072642E2E2E0000000C0C0140496E69744A
:1029400069616C204F4B202100000000B70300207C
:1029500053445F54797065203A2053444843000043
:1029600053445F54797065203A205344312E30002F
:102970004D420000F4030020DC030020D0030020BF
:1029800046415400D8030020E0030020E403002067
:10299000F0030020EC030020E8030020D403002013
:1029A000F8FFFF0FAC04002000040020FC0B002007
:1029B000FC030020FD4800EB080528782E2804D0F1
:1029C000287810B12878E52805D128782E285DD1FF
:1029D00068782E285AD1E87A0F283BD1F34800EBCB
:1029E00008073878401E00F03F001A214843C4B25F
:1029F000372C4BDAEE480619002405E0781C005D00
:102A000006F8010B601CC4B20A2CF7DB002406E0B8
:102A100007F10E00005D06F8010B601CC4B20C2C1F
:102A2000F6DB002406E007F11C00005D06F8010B50
:102A3000601CC4B2042CF6DB387800F0400008B10A
:102A400000203060387800F03F0001281ED1D949BD
:102A500008601BE005F10800FFF7C3FE0599084078
:102A600018B10098401C80B20090B9F8000050B135
:102A7000B9F800100098814205D129460498FFF763
:102A8000CFFE012045E70020CA49086008F1200870
:102A9000B8F5007F8ED30AF1010000F0FF0AC648A6
:102AA00000688245FFF42CAFA5E0DDF804B0A0E09B
:102AB0005846FFF78DFE02904FF0000A80E0029921
:102AC00001EB0A00B949FEF740FC08B1012020E7FC
:102AD0004FF000086DE0B54800EB080528782E2877
:102AE00004D0287810B12878E52805D128782E2838
:102AF0005DD168782E285AD1E87A0F283BD1AB48AF
:102B000000EB08073878401E00F03F001A214843C8
:102B1000C4B2372C4BDAA6480619002405E0781C0D
:102B2000005D06F8010B601CC4B20A2CF7DB002420
:102B300006E007F10E00005D06F8010B601CC4B250
:102B40000C2CF6DB002406E007F11C00005D06F803
:102B5000010B601CC4B2042CF6DB387800F0400096
:102B600008B100203060387800F03F0001281ED105
:102B7000904908601BE005F10800FFF732FE059957
:102B8000084018B10098401C80B20090B9F80000CD
:102B900050B1B9F800100098814205D12946049837
:102BA000FFF73EFE0120B4E600208249086008F1EC
:102BB0002008B8F5007F8ED30AF1010000F0FF0A6B
:102BC0007E4800788245FFF67AAF5846FFF7C0FD91
:102BD00083466FF0704083450AD0C01F834507D0FD
:102BE00077480078102804D14FF6FF70834500D154
:102BF00000E05DE700BFB9F8000020B90098A9F82F
:102C00000000012085E6002083E6816D41660021F9
:102C10008166704770B504460D46606EFFF7D8FDBB
:102C20000646A16E88192946FEF78FFB08B10020E1
:102C300070BDA06E401CA06660490978A06E8842F5
:102C400018D10020A066606EFFF782FD60665C48C8
:102C50000078102804D14FF6FF71606E884207D0CB
:102C60005849606E884203D0C91D606E884201D108
:102C70000020DDE70120DBE770B504460E46A06EBC
:102C8000012803D9A06E801EA06623E0A16D606EAE
:102C9000FFF785FD60664A480078102804D14FF69A
:102CA000FF71606E884207D04649606E884203D04B
:102CB000C91D606E884201D1002070BDA06E012840
:102CC00004D13E480078401EA06603E03B480078EF
:102CD000801EA066606EFFF77BFD0546A16E481959
:102CE0003146FEF732FB08B10020E6E70120E4E7B9
:102CF00030B5024600200446034602E0581CC3B229
:102D0000521C10780028F9D102E0601CC4B2491CA2
:102D100008780028F9D1A34200D030BDD21AC91AD0
:102D200007E010780D78A84201D00020F5E7521C8A
:102D3000491C10780028F4D10120EEE72DE9F04F6E
:102D40009BB080468B4691460025B8F1000F4BD1D1
:102D50001B480078102847D1002440E01A49096830
:102D600008191249FEF7F1FA18B101201BB0BDE8AD
:102D7000F08F00262EE00D4885192878A8B1287814
:102D8000E52826D0E87A0F2823D029466846FFF7A1
:102D900047FDBDF8620000EA0900B8B102A9584633
:102DA000FFF7A6FF90B11698E0E712E0FC090020BB
:102DB000FC0B002000040020EC030020E0030020B6
:102DC000F4030020F8FFFF0FE80300200020FE4975
:102DD00008602036B6F5007FCDD3601CC4B2FB4836
:102DE00000688442BAD354E0474650E03846FFF7C3
:102DF000EFFC8246002432E00AEB0400F449FEF7BF
:102E0000A4FA08B10120B1E7002623E0F0488519B3
:102E10002878F0B12878E5281BD0E87A0F2818D058
:102E200029466846FFF7FCFCBDF8620000EA09008D
:102E300060B102A95846FFF75BFF38B1E549169823
:102E40000860E5491798086016988FE70020DE496A
:102E500008602036B6F5007FD8D3601CC4B2DF48C6
:102E600000788442C8DB3846FFF772FC07466FF0F3
:102E7000704087420AD0C01F874207D0D8480078E8
:102E8000102804D14FF6FF70874200D100E0ADE773
:102E900000BF00206AE72DE9F04107460025002623
:102EA0000024CF480078202802D1CE48056800E0F1
:102EB0000025CD484FF4006201682846FFF73EFF29
:102EC000054615B90020BDE8F0812E46C7480560CB
:102ED000C5484FF40062016AC2480068FFF72EFF40
:102EE00005460DB90020EEE7C0484560BE484FF4E6
:102EF0000062C169BB480068FFF720FF05460DB9B5
:102F00000020E0E7B9488560B7484FF40062416AA5
:102F1000B4480068FFF712FF05460DB90020D2E75C
:102F2000B2480561B0484FF40062C16AAD4800681C
:102F3000FFF704FF05460DB90020C4E7AB48456123
:102F4000A9484FF4006241683046FFF7F7FE054696
:102F50000DB90020B7E7A6484FF480520168284613
:102F6000FFF7ECFEA34908600846006808B9002096
:102F7000A9E79F484FF4805241682846FFF7DEFEDC
:102F80009D4908600846006808B900209BE79648FC
:102F90004FF4006281683046FFF7D0FE05460DB958
:102FA000002090E7002413E0914AA01C52F8201062
:102FB0004FF480622846FFF7C1FE904941F8240093
:102FC000084650F8240008B900207CE7601CC4B211
:102FD000092CE9DB002412E0894850F824104FF452
:102FE00080622846FFF7AAFE864941F82400084679
:102FF00050F8240008B9002065E7601CC4B2092C11
:10300000EADB0B2415E07A4850F824104FF4806274
:103010002846FFF793FEA4F10B017B4A42F82100FA
:103020000846114651F8200008B900204BE7601C03
:10303000C4B2132CE7DB012045E72DE9F74F9CB024
:1030400081468A464FF0010B5446002553E0204646
:10305000FFF7BEFB0646002735E0F0195C49FEF796
:1030600074F918B100201FB0BDE8F08F4FF00008D0
:1030700024E0574800EB08052878D8B12878E528DF
:1030800018D0E87A0F2815D029466846FFF7C8FB04
:10309000BDF862001E99084048B1CB4503D102A893
:1030A0001B901B98DFE70BF1010000F0FF0B0020E5
:1030B0004549086008F120001FFA80F8B8F5007F44
:1030C000D7DB781CC7B2454800788742C5DB20466D
:1030D000FFF73EFB04466FF0704084420AD0C01FE9
:1030E000844207D03E480078102804D14FF6FF7084
:1030F000844200D100E0AAE700BF0020B3E7F8B5A2
:1031000005460C4600260020009000BF6B46224674
:1031100031462846FFF7DDFB0028F7D0BDF8000058
:10312000C0B2F8BD2DE9F04104460E460027102C30
:1031300002D13048076803E00C2C01D12E48076803
:10314000354604E03846FFF703FB07466D1E002DA9
:10315000F8D1B81E2D49096801EBC000BDE8F08127
:103160002DE9F84F044688462078A1280FDA14F894
:10317000011BA1290BDA641E002504E0FF2008F8DA
:10318000010B681CC5B2182DF8DBBDE8F88F14F8E8
:10319000010BA138C0B200902078A138C6B25E21E0
:1031A000009801FB006000EB4000C7001848008851
:1031B000B7FBF0FA16480088B7FBF0F100FB117975
:1031C0000AF0FF00054925E000040020EC03002080
:1031D000FC090020C8030020CC030020E0030020ED
:1031E000F4030020D00300200C040020B40C0020C5
:1031F0003C04002004040020080400204C0C0020A3
:1032000088040020700C0020940C0020E8030020AB
:10321000D8030020097890FBF1F201FB1200C6B23E
:103220001D480078BAFBF0FB59460C20FFF77AFFE7
:1032300007461A480088A0EB0900182806D3B819D9
:1032400018234A464146FEF705F922E01348007864
:10325000A0EB0900C5B2B8192B464A464146FEF715
:10326000F9F8701CC0B206460B490978884208DD9F
:1032700000260BF10100834601460020FFF752FFB4
:103280000746C5F1180308EB0501B8190022FEF73F
:10329000E1F800BF79E70000E0030020D803002038
:1032A00070B5014641F6155500236C1E202901DB3F
:1032B0005B2903DD5D2903DB7E2901DC084670BD47
:1032C00016E0181900EBD07672102D4830F8220065
:1032D000884201DD541E0BE0294830F82200884264
:1032E00001DA531C04E0264800EB82004088E6E740
:1032F000A342E6DD0020E2E7F0B505460027002600
:1033000038E015F81610012000EB4600285C01EBB0
:1033100000241CB14FF6FF70844200D12CE004F46D
:103320007F4070B9202C06D37E2C04D83846791CF7
:10333000CFB22C5404E03F223846791CCFB22A5435
:1033400016E0B4F59C4F0DD3A0B2FFF7A9FF0446D9
:10335000220A3846791CCFB22A543846791CCFB29B
:103360002C5404E03F223846791CCFB22A5400BFC7
:10337000701CC6B2502EC4DB00BF0020E855F0BD63
:103380004C7A000810B5FF20FEF73BF9D7480078CB
:1033900004281ADAD6A200210846FEF71AFAD8A2A3
:1033A00000210120FEF715FAD9A200210220FEF724
:1033B00010FADAA200210320FEF70BFADAA2682144
:1033C000CA480078FEF705FA2CE0C84800780428BF
:1033D00028DBC6480078082824DA0023D3A219463F
:1033E0001846FEF7E5FA0023D3A219460120FEF79E
:1033F000DFFA0023D3A219460220FEF7D9FA0023F0
:10340000D4A219460320FEF7D3FAB8490C78E11785
:1034100004EB91718910A4EB8101C8B2C2A26821AA
:10342000FEF7D7F910BD70472DE9F04106460C466E
:103430000027601EC4B2002546E005EBC50000EB86
:103440004000C74901EB8000B0F86200B0F5006FA2
:1034500001D104271AE005EBC50000EB4000C0498C
:1034600001EB800090F8620000F00F0008B1002727
:103470000CE005EBC50000EB4000B94901EB800012
:1034800090F8620000F0F00000B10127A54203D1DE
:103490000120B449087002E00020B24908703A46A1
:1034A00000212846FEF701FA05EBC50000EB4000BD
:1034B000AB4901EB800000F1080200230C212846F3
:1034C000FEF776FA681CC5B2B542B6DB0020A54906
:1034D000087059E000BFA4480078FF28FBD0A2483C
:1034E0000078FF284DD0A0480078801E062847D2DB
:1034F000DFE800F0373019413C030020994908709B
:103500003A4600212046FEF7D0F90CB9032401E029
:10351000601EC4B20120934908703A46002120463B
:10352000FEF7C3F92CE000208E4908703A460021CE
:103530002046FEF7BAF9032C01D1002401E0601CFB
:10354000C4B20120874908703A4600212046FEF7A0
:10355000ACF915E0FF2084490870601CC0B2BDE8DA
:10356000F081FF20804908700920F8E7FF207E499C
:1035700008700A20F3E7FF207B4908700B20EEE774
:1035800000BFFF2078490870A4E72DE9FE4380467C
:1035900000BF00200290019000250026002402AB0D
:1035A0004FF40062494671480068FFF792F901AB99
:1035B000424649466D480068FFF78BF9BDF80400A4
:1035C000BDF80810084487B28FE0BC4227DA05EB4B
:1035D000C50000EB4000624901EB8009BDF808001E
:1035E00084420BDA601C80B200906B464FF400629C
:1035F00049465E480068FFF76CF90CE0BDF808002A
:10360000201A401C80B200906B46424649465748FB
:103610000068FFF75EF9681CC5B2601C84B2042D17
:1036200001D0BC4261D101212846FFF7FDFE0646CC
:103630000C2E58D2DFE806F05706070809575757EF
:10364000572D444F00BF00BF00BF701EC6B2AE4230
:103650001EDA06EBC60000EB4000414901EB80009A
:10366000B0F86200B0F5006F09D106EBC60000EBC0
:10367000400001EB8000806D3C49086089E7A0199B
:10368000BDF80810401A401B401C80B2BDE8FE8304
:1036900029E037480078202805D1344800683549AA
:1036A0000968884202D03148006808B90020EDE777
:1036B000314800682D490860FF20FDF7A2FF68E748
:1036C000042C03DD281D201A84B200E00024FF2012
:1036D000FDF797FF07E0BC4201D1601B84B2FF20D9
:1036E000FDF78FFF00BF00BF00256EE7010000203F
:1036F000312E4D503320506C61796572000000000E
:10370000322E5458542052656164657200000000E6
:10371000332E53686F772054696D6500342E5368DB
:103720006F772046465400003C2D0000352ECCB06B
:10373000CAB3C9DF00000000372ECDC6CFE4D7D30F
:1037400000000000362EB6EDC2DECBB9B7BDBFE932
:1037500000000000382ECFB5CDB3D0C5CFA20000F9
:103760009C060020B8030020C4030020F8030020BA
:10377000F4030020D0030020FC0300202DE9F34FC8
:1037800083B00D46002600240027A046F948008893
:103790004FF6FF71884252D10020F7490880FDF7AB
:1037A0008AFAF4490880084600880A2190FBF1F063
:1037B00000F0FF094A465D210620FEF7BDF9ED48FD
:1037C00000880A2190FBF1F201FB12094A466921A7
:1037D0000620FEF794F9E7480088B5FBF0F07D215C
:1037E000B0FBF1F084B2E348008838B1E1480088CA
:1037F000B5FBF0F0B0FBF1F084B200E000240B2246
:1038000032210720FEF77BF93C2094FBF0F000F01A
:10381000FF094A4638210720FEF78EF90A22442183
:103820000720FEF76CF93C2094FBF0F100FB1140FF
:1038300000F0FF094A464A210720FEF77DF9CDB185
:10384000284603F069F98246039803F065F9834638
:103850004FF0884103F0A8F98146514603F07AF809
:1038600006464FF07E51304603F06AFA05D24FF01B
:103870007E5602E005B0BDE8F08FBE48008898B1E2
:10388000BC480088B5FBF0F07D21B0FBF1F084B2BC
:10389000204603F041F98246314603F085F981461E
:1038A00003F01AF984B202E0FDF742FA0446B34984
:1038B000304603F079F90646B049304603F040FA45
:1038C00000D2D7E70620FDF793FE0C20FDF782FE1D
:1038D0004FF0000806E0FC20FDF74EFE08F1010065
:1038E00000F0FF08404603F017F98146314603F027
:1038F00027F9F0D3A048008884423FD0FDF7DBF9D8
:103900000746F7B19B4807809C49304603F022F8F0
:1039100002909848008803F0FFF80190284603F0D1
:10392000FBF80090019903F015F88346944903F0E1
:1039300011F88246029903F037F9814603F0CCF87A
:1039400084B28D4804803C2094FBF0F000F0FF0925
:103950004A4614210720FEF7EFF80A22202107200B
:10396000FEF7CDF83C2094FBF0F100FB114000F095
:10397000FF094A4626210720FEF7DEF800BF79E757
:1039800010B50446022304F1080200210120FEF7CD
:103990000FF810BD2DE9F74F90B0044617460020F0
:1039A0000F9080464FF0010B0E900D900A907548D5
:1039B000099000F5007008900E3007900E300690C8
:1039C0004FF0010900200590012500F05AFA6E48D9
:1039D000407908B945F0800500BF6C4800786C4A12
:1039E0001288504332225043E16DB1FBF0F0C0B277
:1039F00002900298022801DA02200290002004902E
:103A000004980490002003900398039000200E90E7
:103A10000B900B980B904FF6FF70564908800020D2
:103A20000D90A06DFEF7D4FE0F90D4F85880FDF7EE
:103A30000BF8FCF78EFFFDF780F9FEF7F5F9584615
:103A4000FEF785F92046FFF79BFF052005900598B6
:103A50000590002608E000210798815506988155B9
:103A600008988155701C86B20E2EF4DBFF20494960
:103A7000087060E109990F98FDF767FC00B15BE100
:103A800000260D98401CC0B20D9000BF2FE0B4F886
:103A90006200082821D00A9850B9B9F1000F14D05B
:103AA0000898FDF75DF9E16D0E98FFF767FE0CE0F1
:103AB000B9F1000F02D005F4807030B9B9F1000FF0
:103AC00003D1E16D0E98FFF759FEB9F1000F01D156
:103AD000012000E00020814609E02F48006800F442
:103AE000807000B90CE0E16D0E98FFF747FE2A48A0
:103AF000006800F0200018B905F480600028C6D0E6
:103B000000BF2548006800F0200098B105F48060EF
:103B100080B900200C900AE03146721C96B2099AD6
:103B2000505CFDF7B1F80C98401C80B20C900C98DA
:103B30002028F1DB17480078FF286ED01548007860
:103B4000082863D2DFE800F0A83F63C52C896A0427
:103B5000BDF84400401E80B21190BDF8440000B989
:103B6000119711AB0F2221460C480068FEF7B1FEF9
:103B700033E70000E6040020E80400200000A04233
:103B80000000FA42CC0C0020E0040020E0030020FA
:103B9000D8030020C4030020080C0140F8030020D3
:103BA000BDF84400401C80B21190BDF84400B842FA
:103BB00001DD0120119011AB0F22214690480068D1
:103BC000FEF787FE09E7C5F3802ABAF1000F01D19D
:103BD000012000E000208246BAF1000F08D04FF02B
:103BE000000B0BF10C0200210320FDF75EFE07E045
:103BF0004FF0010B0BF10C0200210320FDF755FEE5
:103C00004FF6FF30054045EA8A2085B261E0FCF7B7
:103C1000A0FE012013B0BDE8F08F5EE07948007887
:103C2000042803DC00207749087004E07548007818
:103C3000001F7449087073480078C117019000EBA9
:103C4000917082100C210020FDF736FF6E4801783C
:103C50006C480078FCF724FE3BE06A480078FB28BB
:103C600003DBFF206749087004E066480078001D08
:103C70006449087063480078C117019000EB9170A7
:103C800082100C210020FDF717FF5F4801785D4886
:103C90000078FCF705FE1CE05B48007860B9FF2067
:103CA000594908700846017856480078FCF7F8FD35
:103CB0000120FEF79BF80BE00020534908700846EE
:103CC000017850480078FCF7EBFD0020FEF78EF8F5
:103CD00000BF00BFFF204D490870B6F5FF7F7FF79A
:103CE000D5AE0E98401C0E900F98401C0F90E16DC1
:103CF0000E98B0EB512F00D91EE0454909780D9878
:103D0000884218DB00200D904046FEF721FD8046DA
:103D100040480078102803D14FF6FF70804505D049
:103D20003D48804502D0C01D804500D104E040469A
:103D3000FEF74EFD0F909DE600BFFCF785FEFCF7F9
:103D400008FE05F0030ABAF1010F14D1BDF84400D2
:103D5000401C80B21190BDF84400B84201DD012042
:103D60001190FF202949087011AB0F2221462448E9
:103D70000068FEF7AEFD30E61CB500200190009013
:103D8000FF20FDF73EFC23480078202804D123487B
:103D900000681B49086002E00020194908601848C3
:103DA00000681F49086029E000BF0F20FFF7EDFB06
:103DB0000090BDF8000018B901201A4908701CBD18
:103DC0000020019001AB0F2221460D480068FEF74C
:103DD00080FD154C11E06B460F2221460848006813
:103DE000FEF777FDFF20FDF70CFCBDF80420BDF8C1
:103DF00000102046FFF7CEFDD7E7ECE7D4E7000040
:103E0000F8030020B5030020B6030020C4030020FF
:103E1000E0030020F4030020F8FFFF0FD003002090
:103E2000FC030020000000209C0600202948008898
:103E300000F0010010B101202749087025480088D2
:103E400020F0010023490880704708B500214FF099
:103E5000006001F075FB4FF4A06001F067FB1D20CE
:103E60008DF8000000208DF801008DF8020001207F
:103E70008DF80300684601F01FFB684601F01CFB4B
:103E800008BD10B51548C06940F002001349C8616B
:103E9000FFF7DBFF4FF496700E491C31088041F6A6
:103EA0001F40091F08800B48001F008840F00100D8
:103EB0000849091F08800846008840F04000088033
:103EC00080200449103908800846008840F001002D
:103ED000088010BD10040040EA04002000100240D9
:103EE0002DE9F04F95B0F948007812900026F8E0DF
:103EF000012000FA06F50027EFE01298801B401E13
:103F0000012101FA00F0784313903C46DFE0F048CD
:103F100050F82480EF4850F82490EF48006802F0F1
:103F200091F9CDE90401139802F08CF9EB4AEC4BBE
:103F3000CDE9000102F09AF9CDE90201DDE904239F
:103F400001F0E2FFCDE9060101F086FECDE90A01AC
:103F50006119E04A52F8210002F062FCCDE9080143
:103F6000DDE90A2302F082F9CDE90E01DA480068A2
:103F700002F068F9CDE90401139802F063F9D74A19
:103F8000D74BCDE9000102F071F9CDE90201DDE97D
:103F9000042301F0B9FFCDE9060101F00FFECDE9E0
:103FA0000A016119CA4A52F8210002F039FCCDE930
:103FB0000801DDE90A2302F059F9CDE90C01DDE938
:103FC0000E2301F0F1FECDE9100101F0BBFE8246A7
:103FD000C148006802F036F9CDE90401139802F0F7
:103FE00031F9BE4ABE4BCDE9000102F03FF9CDE9FF
:103FF0000201DDE9042301F087FFCDE9060101F0AC
:10400000DDFDCDE90A016119B24A52F8210002F042
:1040100007FCCDE90801DDE90A2302F027F9CDE923
:104020000E01AD48006802F00DF9CDE904011398C6
:1040300002F008F9A94AAA4BCDE9000102F016F9ED
:10404000CDE90201DDE9042301F05EFFCDE90601BF
:1040500001F002FECDE90A0160199D4951F82000E6
:1040600080F00040079002F0DBFBCDE90801DDE9BC
:104070000A2302F0FBF8CDE90C01DDE90E2301F083
:1040800093FECDE9100101F05DFE834651464046A6
:1040900002F0F2FB8E4941F824005946484602F0EE
:1040A000EBFB8C4941F824005146404602F07AFE71
:1040B0006119874A42F821005946484602F072FECB
:1040C0006119844A42F82100022000FB054482481D
:1040D00000688442FFF41BAF7F1CAF42FFF40DAFBA
:1040E000761C12988642FFF403AF15B0BDE8F08F3E
:1040F0002DE9FC5F0720754908707A48097850F867
:1041000021007549086000241DE04FF0000AD146E7
:104110000EE044FA09F000F0010038B16B48007875
:10412000A0EB0900401E012181408A4409F10109E8
:10413000664800788145ECDB654850F82400654905
:1041400041F82A00641C644800688442DDD30024DE
:104150000AE0604850F824005D4941F8240000203E
:104160005C4941F82400641C5B4800688442F0D339
:10417000FFF7B6FE00241FE0564A52F8241052F80A
:10418000240002F011FD524A019052F8241052F816
:10419000240002F009FD0090019902F06DFB8346B6
:1041A00002F03EFB074601F0A7FD054601F0CAFDFF
:1041B000474941F82400641C474800688442DBD327
:1041C000BDE8FC9F2DE9F04104460F46002600257E
:1041D000A84601255EE0E800A0424BDD002608E08D
:1041E000C6F1070101208840404400F0FF08701C20
:1041F000C6B2681E082101FB1040B042F0DCC5F1D8
:104200000401C8B2FDF7F4F93846FDF7E3F940467A
:10421000FDF7B2F94046FDF7AFF94FF00008182C52
:1042200027DA0020FDF7E4F93846FDF7D3F900203E
:10423000FDF7A2F90020FDF79FF9102C19DA0120F3
:10424000FDF7D6F93846FDF7C5F90020FDF794F9DA
:104250000020FDF791F9082C0BDA0220FDF7C8F9D0
:104260003846FDF7B7F90020FDF786F90020FDF785
:1042700083F911E0C5F10401C8B2FDF7B9F9384678
:10428000FDF7A8F9FF20FDF777F9FF20FDF774F996
:10429000681CC5B2052D9EDB00BFBDE8F08170B57E
:1042A000002401240EE00A4951F8240002F014FC15
:1042B000C5B20120C0EB4400C1B22846FFF782FF1F
:1042C000601CC4B2402CEEDB70BD0000EC0400208A
:1042D0004C0F00204C110020F004002038E92F542E
:1042E000FB211940A0EE000810B5FF201E49087000
:1042F000FDF787F900231DA219460220FDF758FBA0
:1043000000231EA219460320FDF752FBFEF7AFF86B
:1043100029E02048007801280ED100201D490870AE
:10432000FFF7E6FEFFF7BBFF4FF08040008840F04C
:1043300001004FF0804108800B480078FF2812D020
:104340000948007802280ED1012013490870002086
:10435000124908704FF08040008820F001004FF0B3
:104360008041088010BDD4E7C40300204175646912
:104370006F20506C6179657200000000313238B5F1
:10438000E3204646542053686F77696E67205E5F6E
:104390005E000000C603002000000020C5030020CE
:1043A00070B504460D4629462046FDF760FC70BDF9
:1043B0002DE9F0470746884615460020FE4908705B
:1043C0000520FE49087008464560FDF790FC002670
:1043D00007E0B919C8B201224146FDF76AFC701C1A
:1043E000C6B2AE42F5DB28E0F548008800F0FEFFDB
:1043F000FBF7EEFE04111820B4FBF0F100FB1149AD
:10440000C4F3C7114846FFF7CBFF00B115E01820F1
:10441000B4FBF0F100FB11490122C4F3C711484677
:10442000FDF747FC1820B4FBF0F100FB1140E34915
:104430000872C4F3C710487200E0D5E700BFFDF76B
:104440009AFBBDE8F08710B5DE4802786D210120A7
:10445000FDF732FBDC480088642190FBF1F0C4B228
:10446000224667210320FDF727FBD74800886421F7
:1044700090FBF1F201FB1200C4B22246732103202B
:10448000FDF71AFB10BD70B5CC484068401CCB4905
:104490004860CD4800880A30CB490880C74840684A
:1044A0000D2820D9C7480078122805DAC5480078B9
:1044B000401CC449087002E00120C4490870FFF79D
:1044C000C2FF022200210846FFF772FF4FF47A7004
:1044D000FCF784F84FF47A70FCF780F8FF20BC49B1
:1044E0000870002070BDFFF7AEFF37E0B4480088C9
:1044F00000F07CFFFBF76CFEC0F30F14182094FB58
:10450000F0F100FB1140C6B2E01704EB5060C0F3BD
:10451000C7113046FFF744FF00B11FE0182094FB9D
:10452000F0F100FB1140C6B22546E01704EB5060E5
:10453000C0F3C71101223046FDF7BBFB182094FBE6
:10454000F0F100FB11409D4908722046E11704EB91
:104550005161C1F3C711994A517200E0C6E700BF2B
:10456000964A517A107A0122FDF7A3FB6420FCF7EA
:1045700035F80120B6E770B596480068057895488B
:10458000006846788D480078042806D005281DD09C
:10459000062813D0072822D107E01EB9012086493A
:1045A000087001E0701EC6B21AE00F2E03D1012080
:1045B0008149087001E0701CC6B211E01DB90120EC
:1045C0007D49087001E0681EC5B209E0172D03D1CE
:1045D00001207949087001E0681CC5B200E000BF05
:1045E00000BF7548007800287CD17448007AA84242
:1045F00043D17248407AB0423FD170484068754913
:10460000096811F810106D484068401C714A126822
:1046100002F81010694840684000401C6D49096864
:10462000095C66484068401C4000401C694A1268AA
:1046300011546248047914E0601E6649096811F853
:104640001000644A126802F814006000401E6149BC
:104650000968095C6000401C5E4A12681154601EC3
:10466000C4B2002CE8DC5B4800680570594800685B
:104670004670FFF708FF80BB70BD504A5268520079
:10468000521C544B1B68995C4C4A5268514B1B6836
:1046900013F812000022FDF70CFB4848047914E0DF
:1046A000601E4C49096811F810004A4A126802F865
:1046B00014006000401E47490968095C6000401C06
:1046C000444A12681154601EC4B2002CE8DC414810
:1046D000006805703F480068467001223146284650
:1046E000FDF7E7FA012418E03A4800680078394AF3
:1046F000126812F8141088420DD1364800684178CB
:104700006000401C334A1268105C814203D10120D2
:104710002949087006E0601CC4B228484068401C63
:10472000A042E1D800BFFDF726FA00BFA4E710B50C
:10473000002400BF0AE02046FCF75AFF6020FCF787
:1047400049FFFF20FCF718FF601CC4B2082CF2DB05
:1047500021A263210020FDF785F92148007828B1C6
:1047600020A263210220FDF77DF904E01FA263214E
:104770000220FDF777F910BD70B504460420FCF760
:1047800040FF1CA218210020FDF76CF9002C5AD123
:104790001B4800880C490988884203DA0A480088C7
:1047A0001749088016480088642190FBF1F0C5B2D3
:1047B0002A465421002025E0F60400204C13002056
:1047C000F40400200005002002050020F70400206A
:1047D000C4030020040500204C4556454C00000051
:1047E000F8040020504155534500000053434F52F8
:1047F000450000004D61782053636F72653A0000F8
:10480000FC040020FDF758F9F2480088642190FB71
:10481000F1F201FB1200C5B22A4660210020FDF72B
:104820004BF9ED480088EB490988884205D1EBA295
:1048300024210120FDF716F938E0EBA22421012004
:10484000FDF710F932E0EB480088E3490988884217
:1048500003DAE1480088E7490880E64800886421D7
:1048600090FBF1F0C5B22A4654210020FDF724F94F
:10487000E0480088642190FBF1F201FB1200C5B210
:104880002A4660210020FDF717F9D3480088D9494E
:104890000988884205D1D1A224210120FDF7E2F840
:1048A00004E0D1A224210120FDF7DCF84FF47A7056
:1048B000FBF794FED0A214210220FDF7D3F8C648DE
:1048C0000088642190FBF1F0C5B22A4656210220EF
:1048D000FDF7F2F8C0480088642190FBF1F201FB7B
:1048E0001200C5B22A4662210220FDF7E5F840F623
:1048F000B830FBF773FE0020C249087070BD08B5E0
:1049000000214FF0006000F01BFE4FF4A06000F0AB
:104910000DFE1E208DF8000000208DF801008DF89E
:10492000020001208DF80300684600F0C5FD6846CE
:1049300000F0C2FD08BD10B5FFF7E1FFB248C06945
:1049400040F00400B049C8611120B04908806420DB
:10495000091D0880AD49091F0880AC481C38008833
:1049600040F00100A9491C3908800846008840F041
:1049700040000880081D008840F00100091D0880E3
:104980008020A249283908800846008840F00100AC
:10499000088010BD70B5FFF7CEFF9D480078122843
:1049A00003DD08209A49087003E099480078994986
:1049B00008708848008842F20F71884202DD0020AA
:1049C00084490880FFF7B3FE00208349088092499C
:1049D000087001208B490870002090490870FFF78B
:1049E00032FDD0E08E480078FF284FD08C48007808
:1049F000082846D2DFE800F02F243E451C040C14A2
:104A000088480078062802D005208649087039E0D9
:104A100084480078052802D006208249087031E0D9
:104A200080480078042802D007207E49087029E0D9
:104A30007C480078072802D004207A49087021E0D9
:104A40007548007808B9012000E00020724908701C
:104A5000FFF76DFE16E06F48007828B16D480078CA
:104A6000401E6C49087002E000206A490870FFF798
:104A7000EAFC07E000206349087001206A490870D9
:104A800070BD00BF00BFFF20654908706348007813
:104A9000002864D00420FCF7B4FD4E4800884E493D
:104AA0000988884203DA4C4800884A490880AFF2F6
:104AB000BC2218210020FCF7D5FF4648008864215D
:104AC00090FBF1F0C5B22A4654210020FCF7F4FF18
:104AD00040480088642190FBF1F201FB1200C5B24E
:104AE0002A4660210020FCF7E7FF50A21221012096
:104AF000FCF7B8FF4FF4FA60FBF770FD50A20521F8
:104B00000220FCF7AFFF4FF4FA60FBF767FD3AA213
:104B100014210320FCF7A6FF2F480088642190FB96
:104B2000F1F0C5B22A4656210320FCF7C5FF2A48FA
:104B30000088642190FBF1F201FB1200C5B22A4605
:104B400062210320FCF7B8FF4FF47A60FBF746FDC3
:104B500000202C49087001203349087090E72E4846
:104B6000007810B9FFF707FD01E0FFF7E0FD2948E5
:104B70000478C4F1120000EB8000282101EB8004CE
:104B8000A0B2FBF72BFD3348007800283FF42AAF92
:104B90000020FFF7F1FD00BF72E71C4818380088BD
:104BA00000F0010068B12C480088401C2A490880A8
:104BB000084600884FF6FF71884202D1002026493E
:104BC000088012481838008820F001000F49183971
:104BD00008807047FC0400200205002057656C6CBB
:104BE00020446F6E6521000047616D65204F76653A
:104BF00072210000FE040020596F75722053636F0C
:104C000072653A00F90400200010024028080040B4
:104C1000FA04002000050020F8040020F70400201A
:104C2000C40300204C1300200000002057656C6C6A
:104C300020446F6E652120447564652E00000000DD
:104C4000436F6E67726174756C6174696F6E732106
:104C500021210000F6040020F404002070B5002497
:104C600026E0F84890F82900F74901EB0010F549D3
:104C700091F82C1000EB8100065DF24890F82A5064
:104C80000EE006F0010040B1EE4890F82B00204401
:104C9000C1B200222846FDF70CF87610681CC5B298
:104CA000E84890F82A00001DA842EADC601CC4B263
:104CB000042CD6DB002426E0E24890F82900E249E3
:104CC00001EB0010DF4991F8281000EB8100065D30
:104CD000DC4890F826500EE006F0010040B1D948BB
:104CE00090F827002044C1B201222846FCF7E1FFDA
:104CF0007610681CC5B2D34890F82600001DA84263
:104D0000EADC601CC4B2042CD6DBCE4890F8260046
:104D1000CC4981F82A00084690F8270081F82B003A
:104D2000084690F8280081F82C00FCF724FF70BD9D
:104D300070B500241CE0C34890F82D00C24901EB77
:104D40000010C04991F82E1000EB8100065D0D2582
:104D50000AE006F0010204F10C00C1B22846FCF79B
:104D6000A8FF7610681CC5B2112DF2DB601CC4B21E
:104D7000042CE0DBFCF7FFFE70BD70B50446B148C3
:104D800030F81460002508E006F0010221462846AC
:104D9000FCF78FFF7610681CC5B20C2DF4DBFCF716
:104DA000EAFE70BD30B50020002134E0A54A92F83B
:104DB0002920A54B03EB0212A24B93F8283002EBFB
:104DC0008302525C9F4B93F826309A409D4B93F898
:104DD00027300B449B4C34F813301344224692F88E
:104DE0002920994C04EB0212964C94F8284002EBCF
:104DF0008402525C934C94F82640A240914C94F863
:104E000027400C448F4D35F814402243934200D084
:104E100001204A1CD1B20429C8DB30BD10B58B4833
:104E2000008800F0E3FAFBF7D3F9864991F82610E1
:104E30000844844991F827100844824991F82810C1
:104E40004418204600F0D2FA05207E4981F8260059
:104E500081F82A000F2081F8270081F82B000846EE
:104E600090F82D0081F82900084690F82E0081F86E
:104E70002C00084690F82C0081F82800FBF7A8F9D0
:104E8000072190FBF1F201FB12006E4981F82D0021
:104E9000FBF79EF90446C01704EB90708010A4EB5A
:104EA0008000684981F82E00FFF742FF10BD10B561
:104EB000674802786D210120FCF7AFFC6548008847
:104EC000642190FBF1F4224667210320FCF7A5FC46
:104ED00060480088642190FBF1F201FB1204224635
:104EE00073210320FCF799FC10BD2DE9F041002748
:104EF0000025002434E0534890F82900524901EB82
:104F00000010504991F8281000EB8100005D4D49D8
:104F100091F8261088404B4991F827102144494ABE
:104F200032F811100843114691F82710214422F855
:104F300011007806070E104690F82700204400283C
:104F40000CDB104690F827002044114631F8100081
:104F50004FF6FF71884201D147F00107601CC4B2CF
:104F6000042CC8DB002F6CD04FF000082AE03E462E
:104F700000241EE006F0080080B1324890F82700B7
:104F80002044304931F8100040F6FF7148402D4967
:104F900091F8271021442B4A22F81100294991F851
:104FA00027102144C8B2FFF7E8FE7006060E601C09
:104FB000C4B2042CDEDBC820FBF710FB08F10100B3
:104FC00000F0FF08B8F1030FD1DB3E461D4890F812
:104FD000274030E0132C12DA601B1A4931F8100018
:104FE00031F8141088420AD0164830F81400611BBA
:104FF000144A22F81100611BC8B2FFF7BEFE132C41
:1050000010DB601B0F4931F8100010F5805F09D0EC
:105010004FF47040611B0B4A22F81100611BC8B2AB
:10502000FFF7ABFE06F0080008B1681CC5B27006B9
:10503000060E601CC4B205F11300A042CADC0126B2
:105040000EE019E058130020D0EE0008F404002010
:1050500000050020020500207006060E681EC5B27D
:10506000002DF9D1D14800883044D0490880FFF79D
:105070001EFFFFF7D3FE0AE0CD4890F827000F2867
:1050800003D10020CB49087001E0FFF7C7FEBDE85F
:10509000F08110B50420FCF7B4FAFCF728FE4FF6B7
:1050A000FF70C3490880002409E04FF47040C049F4
:1050B00021F814002046FFF760FE601CC4B2132CD8
:1050C000F3DB0120BB490870FFF7A8FE10BD10B547
:1050D000002400BF06E0012221463020FCF798FDA5
:1050E000601CC4B2402CF6DB002406E001222146FD
:1050F0005F20FCF78DFD601CC4B2402CF6DB002461
:1051000008E004F13001C8B201222C21FCF780FD37
:10511000601CC4B22F2CF4DBA7A263210020FCF793
:10512000A1FCA748007828B1A6A263210220FCF7C1
:1051300099FC04E0A5A263210220FCF793FCFFF791
:10514000B6FE10BD70B500240025FFF7F4FBA148A2
:105150000078082803DD04209E49087003E09D487C
:1051600000789D4908709D48008842F20F7188427E
:1051700002DD0020994908809748007800EB800004
:105180005A21A1EB4000C5B20020884908808C4913
:105190000870FFF79CFF012091490870854908704D
:1051A000FAE090480078FF2879D000248D480078F4
:1051B000082821D2DFE800F095ACB7BE043F59744F
:1051C0007C48007898B37A4890F82700002809DDD9
:1051D000FFF7E8FD30B9764890F82700401E744983
:1051E00081F82700FFF7DEFD38B1714890F82700FD
:1051F000401C6F4981F827009CE06D4890F827001B
:10520000002809DDFFF7CEFD30B9694890F8270086
:10521000401E674981F82700FFF7C4FD30B164489C
:1052200090F82700401C624981F8270082E0FFE7E0
:10523000FFF7F4FD7EE05F480078A8B15C4890F885
:1052400026000C2810DA5A4890F82600401C5849CD
:1052500081F82600FFF7A6FD30B1554890F82600EA
:10526000401E534981F8260064E052480078A8B1F6
:105270004F4890F82600002810DD4D4890F8260091
:10528000401E4B4981F82600FFF78CFD30B148489D
:1052900090F82600401C464981F826004AE04DE07F
:1052A00044480078C8B1424890F82800401C404962
:1052B00081F82800FFF776FD30B13D4890F82800CE
:1052C000401E3B4981F82800394890F8280000F03A
:1052D0000300374981F8280002E0012035490870B1
:1052E00028E03D48007828B13B480078401E3A4904
:1052F000087002E00020384908703748007800EB59
:1053000080005A21A1EB4000C5B2FFF7D0FD11E0AB
:105310002B48007808B9012000E0002028490870D7
:10532000FFF7D5FE06E000202D49087001202E4928
:10533000087070BD00BFFFF791FC2DE0AC4225D195
:1053400000241F48007800B126E01A480078E8B130
:10535000174890F82700002813DD154890F827001B
:10536000401E134981F82700FFF71CFD58B1104873
:1053700090F82700401C0E4981F82700FFF7B5FD83
:1053800001E0FFF7B2FDFFF769FC05E00520FBF740
:1053900025F9601CC4B200BF0648007800287FF4DD
:1053A00000AF0120FFF7E8F900BFC2E702050020C7
:1053B00058130020080500204C4556454C000000BD
:1053C000F8040020504155534500000053434F520C
:1053D00045000000FB04002000050020FE04002022
:1053E000F9040020C4030020000000200B4910B580
:1053F000A1F17C020A4CC2E93712372106E000EB2A
:10540000104342F82130074B00FB03400B1EA1F173
:105410000101F4DC10BD0120E8E7000004140020C5
:10542000E119D666CD0D010070477047704710B581
:1054300000F008F8006810BD10B5044600F002F84E
:10544000046010BD004870476C140020004870478D
:105450006C1400207546FFF7F9FFAE46050069465B
:10546000534620F00700854618B020B5FAF7D6FE5F
:10547000BDE820404FF000064FF000074FF0000855
:105480004FF0000B21F00701AC46ACE8C009ACE8D6
:10549000C009ACE8C009ACE8C0098D4670470446B5
:1054A000AFF300802046FAF78AFE704701491820C2
:1054B000ABBEFEE726000200F0B50F23C2780178EC
:1054C0004FF0E024012742B3D4F80C2D467802F4C3
:1054D000E062C2F5E062120AC2F10405D3408278AC
:1054E000AE401A40324315018A07D20E954021F092
:1054F00003010B19D3F80064FF2191408E430D4046
:105500002E43C3F800640078410900F01F0004EB4B
:1055100081018740C1F80071F0BD01F01F00874094
:10552000480904EB8000C0F88071F0BD02490843CF
:1055300002490860704700000000FA050CED00E029
:10554000024A1140014302480160704780FFFF1F7B
:1055500008ED00E0490050EAC12018BF04204A0DC0
:1055600018BF40F0010040F2FF72B2EB515F08BF7C
:1055700040F00200012808BF052070472DE9F74FD1
:10558000144694B00021C4E902111599079121F045
:105590000045C9498D4206DC1599C4E9000117B0E0
:1055A0000020BDE8F08FC549DFF814A3A9423CDD17
:1055B0000799C44E0029C44FC44A1599534619DDB2
:1055C00001F044F8554506D0C14AC24B01F03EF8FF
:1055D000C4E900010AE04FF0D352BE4B01F036F8A7
:1055E00032463B4601F032F8C4E9000117B0012011
:1055F000BDE8F08F00F0D8FB554506D0B44AB54B56
:1056000000F0D2FBC4E900010AE04FF0D352B14BE5
:1056100000F0CAFB32463B4600F0C6FBC4E900017D
:1056200017B04FF0FF30BDE8F08FAB49A942159994
:1056300078DB21F0004183468846A84AA84B00F059
:1056400015FE0022A74B00F0AFFB00F0B5FD09905E
:1056500000F0E1FD06460F469C4A534600F006FE68
:1056600043465A4600F000FF80468A46984A994BC6
:105670003046394600F0FAFD2A0D01250B924246CC
:10568000534600F0F1FE032DC4E9000139D00B9818
:10569000C1F30A51401A05EB45111139814230DA44
:1056A0009148C346784400EB0510CDF80CA00C904F
:1056B000D0E900233046394600F0D8FD02460B46BB
:1056C000049106905846039900F0C0FF80468A4630
:1056D00002460B465846039900F0B8FF049B069A11
:1056E00000F0B4FF83460C9803913946D0E90223B9
:1056F000304600F0BBFD5A46039B00F0A7FF6D1C2F
:10570000BDE707980028A2BF099817B0BDE8F08F41
:10571000616881F000416160099817B04042BDE8BE
:10572000F08FFFE784461598C1F31301C0F30A50C8
:10573000A0F2F5304FEA601800F01F06C6F1200015
:10574000139000200690079041F4801E05206D46BE
:1057500076B1664A08EB00017A4452F8213002EB38
:105760008101B3404A68139922FA01F1194305E017
:105770005F4908EB0002794451F82210A1FB0E2783
:10578000A1FB0C131A449A4234BF0123002303EBFC
:10579000070A05EB8003D3E901B70F448F4234BFFA
:1057A0000121002193448B4411B1934502D903E0B8
:1057B000934501D2012100E00021C3E901B7514422
:1057C00045F82010011EA0F10100C1DC0298059FE0
:1057D00000F10050800F12900298DDE9035680001E
:1057E00000F019FD834628460D9100F02BFD6FF067
:1057F0001D0201F07EFBCDE90E01304600F022FDD6
:105800006FF03D0201F075FB80468A46384600F095
:1058100019FD6FF05D0201F06CFB074642465346EE
:10582000119100F0C1FADDE90E2300F0BDFA5A46ED
:105830000D9B00F0B9FA00250E465A4628460D9BEE
:1058400000F004FFDDE90E2300F000FF424653465E
:1058500000F0FCFE3A46119B00F006FEDFF898A02F
:10586000244A534600F002FD07468846234A244B4B
:105870003146284600F0FAFC3A46434600F094FAD6
:10588000074688464FF0A84253463146284600F066
:10589000EDFC3A46434600F087FA159A12F0004FA5
:1058A00004D0129A81F0004152421292C4E90001E0
:1058B000129817B0BDE8F08FFB21E93F7CD9024078
:1058C000FB21F93F7370032E8A19A33B000040545B
:1058D0003163621A61B4D03DFB21394183C8C96D7F
:1058E000305FE43F0000E03FC898000044980000AB
:1058F00026980000182D4454FB21F93D3326A611AB
:10590000460B113C2DE9FF4D21F0004807460C469F
:10591000B8F1795F08DA00F04FFC002801BF0020E1
:10592000324904B0BDE8F08D3A4623461046194688
:1059300000F09CFC054602462D480E460B4606210B
:10594000784400F05DF82A46334600F08FFCDDE92C
:10595000022382468B463846214600F087FC0446E7
:105960000F4652465B462846314600F07FFC2246F1
:105970003B4600F06BFE07468A464FF0FF32284652
:10598000314601F0B6FA1B4A90450ADA3A465346C8
:1059900000F05CFE04B00022BDE8F04D134B00F0B7
:1059A00063BD154A4245A8BFA8F500154FF0000495
:1059B000B8BF124D22462B4600F048FE06468846E8
:1059C00022462B460020094900F040FE04460D46C1
:1059D0003A4653463046414600F038FE04B022466F
:1059E0002B46BDE8F04D00F03FBD00000000F03F49
:1059F000FC9500003333D33F0000E93F0000D23F65
:105A00002DE9F0414F1E00EBC7010446D1E900012A
:105A100015461E4637F006020DD02A46334600F0E2
:105A200025FC7F1E04EBC703D3E9002300F0BCF97B
:105A300037F00602F1D1022F25D0042F13D0062F04
:105A400018BFBDE8F0812A46334600F00FFCD4E9C8
:105A50000A2300F0A9F92A46334600F007FCD4E9EE
:105A6000082300F0A1F92A46334600F0FFFBD4E9F1
:105A7000062300F099F92A46334600F0F7FBD4E9F3
:105A8000042300F091F92A46334600F0EFFBD4E9F5
:105A9000022300F089F92A46334600F0E7FBD4E9F7
:105AA0000023BDE8F04100F07FB900002DE9FF4D73
:105AB000054621F0004084B00C46B0F1795F0BDA66
:105AC0002846FFF747FD042808BF00F06FF8284676
:105AD00008B02146BDE8F08D2A460B46104600F07E
